{
  "_format": "hh3-artifact-1",
  "contractName": "OpenSEO",
  "sourceName": "src/contracts/OpenSEO.sol",
  "abi": [
    {
      "inputs": [
        {
          "internalType": "address[3]",
          "name": "_nodes",
          "type": "address[3]"
        }
      ],
      "stateMutability": "nonpayable",
      "type": "constructor"
    },
    {
      "anonymous": false,
      "inputs": [
        {
          "indexed": true,
          "internalType": "uint256",
          "name": "requestId",
          "type": "uint256"
        },
        {
          "indexed": false,
          "internalType": "bool",
          "name": "success",
          "type": "bool"
        }
      ],
      "name": "RequestCompleted",
      "type": "event"
    },
    {
      "anonymous": false,
      "inputs": [
        {
          "indexed": true,
          "internalType": "uint256",
          "name": "requestId",
          "type": "uint256"
        },
        {
          "indexed": false,
          "internalType": "string",
          "name": "cid",
          "type": "string"
        },
        {
          "indexed": false,
          "internalType": "string[]",
          "name": "keywords",
          "type": "string[]"
        },
        {
          "indexed": false,
          "internalType": "address",
          "name": "owner",
          "type": "address"
        }
      ],
      "name": "VerificationRequested",
      "type": "event"
    },
    {
      "inputs": [],
      "name": "REQUIRED_CONSENSUS",
      "outputs": [
        {
          "internalType": "uint256",
          "name": "",
          "type": "uint256"
        }
      ],
      "stateMutability": "view",
      "type": "function"
    },
    {
      "inputs": [],
      "name": "VERIFICATION_TIMEOUT",
      "outputs": [
        {
          "internalType": "uint256",
          "name": "",
          "type": "uint256"
        }
      ],
      "stateMutability": "view",
      "type": "function"
    },
    {
      "inputs": [
        {
          "internalType": "address",
          "name": "",
          "type": "address"
        }
      ],
      "name": "authorizedNodes",
      "outputs": [
        {
          "internalType": "bool",
          "name": "",
          "type": "bool"
        }
      ],
      "stateMutability": "view",
      "type": "function"
    },
    {
      "inputs": [
        {
          "internalType": "string",
          "name": "",
          "type": "string"
        }
      ],
      "name": "cidToRequestID",
      "outputs": [
        {
          "internalType": "uint256",
          "name": "",
          "type": "uint256"
        }
      ],
      "stateMutability": "view",
      "type": "function"
    },
    {
      "inputs": [
        {
          "internalType": "uint256",
          "name": "reqID",
          "type": "uint256"
        }
      ],
      "name": "getRequestDetails",
      "outputs": [
        {
          "internalType": "address",
          "name": "owner",
          "type": "address"
        },
        {
          "internalType": "uint256",
          "name": "timestamp",
          "type": "uint256"
        },
        {
          "internalType": "bool",
          "name": "isProcessed",
          "type": "bool"
        },
        {
          "internalType": "string",
          "name": "cid",
          "type": "string"
        },
        {
          "internalType": "bytes32",
          "name": "resultRoot",
          "type": "bytes32"
        }
      ],
      "stateMutability": "view",
      "type": "function"
    },
    {
      "inputs": [
        {
          "internalType": "uint256",
          "name": "",
          "type": "uint256"
        },
        {
          "internalType": "uint256",
          "name": "",
          "type": "uint256"
        }
      ],
      "name": "requestVotes",
      "outputs": [
        {
          "internalType": "address",
          "name": "node",
          "type": "address"
        },
        {
          "internalType": "bytes32",
          "name": "root",
          "type": "bytes32"
        }
      ],
      "stateMutability": "view",
      "type": "function"
    },
    {
      "inputs": [
        {
          "internalType": "uint256",
          "name": "",
          "type": "uint256"
        }
      ],
      "name": "requests",
      "outputs": [
        {
          "internalType": "address",
          "name": "owner",
          "type": "address"
        },
        {
          "internalType": "uint256",
          "name": "timestamp",
          "type": "uint256"
        },
        {
          "internalType": "uint256",
          "name": "paymentAmount",
          "type": "uint256"
        },
        {
          "internalType": "bool",
          "name": "isProcessed",
          "type": "bool"
        },
        {
          "internalType": "string",
          "name": "cid",
          "type": "string"
        },
        {
          "internalType": "bytes32",
          "name": "resultRoot",
          "type": "bytes32"
        }
      ],
      "stateMutability": "view",
      "type": "function"
    },
    {
      "inputs": [
        {
          "internalType": "string",
          "name": "cid",
          "type": "string"
        },
        {
          "internalType": "bytes32",
          "name": "htmlRoot",
          "type": "bytes32"
        }
      ],
      "name": "submitVerification",
      "outputs": [],
      "stateMutability": "nonpayable",
      "type": "function"
    },
    {
      "inputs": [
        {
          "internalType": "string",
          "name": "cid",
          "type": "string"
        },
        {
          "internalType": "string[]",
          "name": "keywords",
          "type": "string[]"
        }
      ],
      "name": "verifyRequest",
      "outputs": [],
      "stateMutability": "payable",
      "type": "function"
    }
  ],
  "bytecode": "0x608060405234801562000010575f80fd5b506040516200124a3803806200124a8339810160408190526200003391620000b4565b5f5b6003811015620000905760015f8084846003811062000058576200005862000148565b602090810291909101516001600160a01b031682528101919091526040015f20805460ff191691151591909117905560010162000035565b50506200015c565b80516001600160a01b0381168114620000af575f80fd5b919050565b5f60608284031215620000c5575f80fd5b82601f830112620000d4575f80fd5b604051606081016001600160401b03811182821017156200010357634e487b7160e01b5f52604160045260245ffd5b60405280606084018581111562000118575f80fd5b845b818110156200013d576200012e8162000098565b8352602092830192016200011a565b509195945050505050565b634e487b7160e01b5f52603260045260245ffd5b6110e0806200016a5f395ff3fe608060405260043610610084575f3560e01c80636718ad59116100575780636718ad59146100f85780637e53a7401461012f57806381d12c581461016d578063e9cd1c261461019e578063f34d4c63146101dc575f80fd5b806303cbc784146100885780631981dbbd146100a95780631e1d6e1d146100d057806324a7b434146100e5575b5f80fd5b348015610093575f80fd5b506100a76100a2366004610b1b565b61020c565b005b3480156100b4575f80fd5b506100bd600281565b6040519081526020015b60405180910390f35b3480156100db575f80fd5b506100bd61012c81565b6100a76100f3366004610b63565b610612565b348015610103575f80fd5b506100bd610112366004610c09565b805160208183018101805160028252928201919093012091525481565b34801561013a575f80fd5b5061015d610149366004610cb4565b5f6020819052908152604090205460ff1681565b60405190151581526020016100c7565b348015610178575f80fd5b5061018c610187366004610ce1565b610884565b6040516100c796959493929190610d3b565b3480156101a9575f80fd5b506101bd6101b8366004610d82565b610961565b604080516001600160a01b0390931683526020830191909152016100c7565b3480156101e7575f80fd5b506101fb6101f6366004610ce1565b6109a3565b6040516100c7959493929190610da2565b335f9081526020819052604090205460ff1661025e5760405162461bcd60e51b815260206004820152600c60248201526b155b985d5d1a1bdc9a5e995960a21b60448201526064015b60405180910390fd5b5f60028484604051610271929190610de2565b90815260200160405180910390205490505f81116102c55760405162461bcd60e51b815260206004820152601160248201527014995c5d595cdd081b9bdd08199bdd5b99607a1b6044820152606401610255565b5f6102d1600183610e05565b90505f600182815481106102e7576102e7610e1e565b5f9182526020909120600690910201600381015490915060ff16156103425760405162461bcd60e51b815260206004820152601160248201527014995c5d595cdd081c1c9bd8d95cdcd959607a1b6044820152606401610255565b61012c81600101546103549190610e32565b4211156103e25760038101805460ff19166001179055805460028201546040516001600160a01b039092169181156108fc0291905f818181858888f193505050501580156103a4573d5f803e3d5ffd5b506040515f815282907f6dd7918a82b02b53ca2299f04355a0a04a470c45dc3723dc69d1ace94f92bad29060200160405180910390a2505050505050565b5f828152600360205260408120905b815481101561046c57336001600160a01b031682828154811061041657610416610e1e565b5f9182526020909120600290910201546001600160a01b0316036104645760405162461bcd60e51b8152602060048201526005602482015264159bdd195960da1b6044820152606401610255565b6001016103f1565b506040805180820190915233815260208082018781528354600180820186555f8681529384209451600290920290940180546001600160a01b0319166001600160a01b039092169190911781559051920191909155805b825481101561050a57868382815481106104df576104df610e1e565b905f5260205f209060020201600101540361050257816104fe81610e45565b9250505b6001016104c3565b50600281106106075760038301805460ff191660011790556005830186905560028301545f9061053b908390610e5d565b90505f5b83548110156105ce578784828154811061055b5761055b610e1e565b905f5260205f20906002020160010154036105c65783818154811061058257610582610e1e565b5f91825260208220600290910201546040516001600160a01b039091169184156108fc02918591818181858888f193505050501580156105c4573d5f803e3d5ffd5b505b60010161053f565b506040516001815285907f6dd7918a82b02b53ca2299f04355a0a04a470c45dc3723dc69d1ace94f92bad29060200160405180910390a2505b50505050505b505050565b5f34116106615760405162461bcd60e51b815260206004820152601760248201527f5061796d656e7420616d6f756e742072657175697265640000000000000000006044820152606401610255565b60028484604051610673929190610de2565b9081526020016040518091039020545f14806106df57506001806002868660405161069f929190610de2565b9081526020016040518091039020546106b89190610e05565b815481106106c8576106c8610e1e565b5f91825260209091206003600690920201015460ff165b61071f5760405162461bcd60e51b8152602060048201526011602482015270139bc81858dd1a5d99481c995c5d595cdd607a1b6044820152606401610255565b600180546040805160c0810182523381524260208083019190915234828401525f60608301528251601f89018290048202810182019093528783529293929091608083019189908990819084018382808284375f920182905250938552505050602091820181905283546001808201865594825290829020835160069092020180546001600160a01b0319166001600160a01b03909216919091178155908201519281019290925560408101516002830155606081015160038301805460ff1916911515919091179055608081015190919060048201906108009082610eff565b5060a09190910151600590910155610819816001610e32565b6002868660405161082b929190610de2565b908152602001604051809103902081905550807ffd320264c427fdc25163d24b5346a8a83d139f65245efabf4fd5a066dad872128686868633604051610875959493929190610fe7565b60405180910390a25050505050565b60018181548110610893575f80fd5b5f918252602090912060069091020180546001820154600283015460038401546004850180546001600160a01b0390951696509294919360ff90911692906108da90610e7c565b80601f016020809104026020016040519081016040528092919081815260200182805461090690610e7c565b80156109515780601f1061092857610100808354040283529160200191610951565b820191905f5260205f20905b81548152906001019060200180831161093457829003601f168201915b5050505050908060050154905086565b6003602052815f5260405f20818154811061097a575f80fd5b5f918252602090912060029091020180546001909101546001600160a01b039091169250905082565b5f805f60605f80600187815481106109bd576109bd610e1e565b5f9182526020918290206040805160c081018252600690930290910180546001600160a01b03168352600181015493830193909352600283015490820152600382015460ff1615156060820152600482018054919291608084019190610a2290610e7c565b80601f0160208091040260200160405190810160405280929190818152602001828054610a4e90610e7c565b8015610a995780601f10610a7057610100808354040283529160200191610a99565b820191905f5260205f20905b815481529060010190602001808311610a7c57829003601f168201915b5050509183525050600591909101546020918201528151908201516060830151608084015160a090940151929b919a509850919650945092505050565b5f8083601f840112610ae6575f80fd5b50813567ffffffffffffffff811115610afd575f80fd5b602083019150836020828501011115610b14575f80fd5b9250929050565b5f805f60408486031215610b2d575f80fd5b833567ffffffffffffffff811115610b43575f80fd5b610b4f86828701610ad6565b909790965060209590950135949350505050565b5f805f8060408587031215610b76575f80fd5b843567ffffffffffffffff80821115610b8d575f80fd5b610b9988838901610ad6565b90965094506020870135915080821115610bb1575f80fd5b818701915087601f830112610bc4575f80fd5b813581811115610bd2575f80fd5b8860208260051b8501011115610be6575f80fd5b95989497505060200194505050565b634e487b7160e01b5f52604160045260245ffd5b5f60208284031215610c19575f80fd5b813567ffffffffffffffff80821115610c30575f80fd5b818401915084601f830112610c43575f80fd5b813581811115610c5557610c55610bf5565b604051601f8201601f19908116603f01168101908382118183101715610c7d57610c7d610bf5565b81604052828152876020848701011115610c95575f80fd5b826020860160208301375f928101602001929092525095945050505050565b5f60208284031215610cc4575f80fd5b81356001600160a01b0381168114610cda575f80fd5b9392505050565b5f60208284031215610cf1575f80fd5b5035919050565b5f81518084525f5b81811015610d1c57602081850181015186830182015201610d00565b505f602082860101526020601f19601f83011685010191505092915050565b60018060a01b0387168152856020820152846040820152831515606082015260c060808201525f610d6f60c0830185610cf8565b90508260a0830152979650505050505050565b5f8060408385031215610d93575f80fd5b50508035926020909101359150565b60018060a01b0386168152846020820152831515604082015260a060608201525f610dd060a0830185610cf8565b90508260808301529695505050505050565b818382375f9101908152919050565b634e487b7160e01b5f52601160045260245ffd5b81810381811115610e1857610e18610df1565b92915050565b634e487b7160e01b5f52603260045260245ffd5b80820180821115610e1857610e18610df1565b5f60018201610e5657610e56610df1565b5060010190565b5f82610e7757634e487b7160e01b5f52601260045260245ffd5b500490565b600181811c90821680610e9057607f821691505b602082108103610eae57634e487b7160e01b5f52602260045260245ffd5b50919050565b601f82111561060d57805f5260205f20601f840160051c81016020851015610ed95750805b601f840160051c820191505b81811015610ef8575f8155600101610ee5565b5050505050565b815167ffffffffffffffff811115610f1957610f19610bf5565b610f2d81610f278454610e7c565b84610eb4565b602080601f831160018114610f60575f8415610f495750858301515b5f19600386901b1c1916600185901b178555610fb7565b5f85815260208120601f198616915b82811015610f8e57888601518255948401946001909101908401610f6f565b5085821015610fab57878501515f19600388901b60f8161c191681555b505060018460011b0185555b505050505050565b81835281816020850137505f828201602090810191909152601f909101601f19169091010190565b606081525f610ffa606083018789610fbf565b602083820381850152818683528183019050818760051b840101885f5b8981101561108457858303601f190184528135368c9003601e1901811261103c575f80fd5b8b01858101903567ffffffffffffffff811115611057575f80fd5b803603821315611065575f80fd5b611070858284610fbf565b958701959450505090840190600101611017565b50506001600160a01b038716604087015293506110a092505050565b969550505050505056fea26469706673582212205286f887288e2ff592796c99ad6af76bac536d9f0eba6630d6508286472f6c2b64736f6c63430008180033",
  "linkReferences": {},
  "deployedLinkReferences": {},
  "immutableReferences": {},
  "inputSourceName": "project/src/contracts/OpenSEO.sol",
  "buildInfoId": "solc-0_8_24-f76ea0ca35f1e47f93feef69c6881b7c1cab2907"
}