{"project/src/contracts/OpenSEO.sol":{"OpenSEO":{"abi":[{"inputs":[{"internalType":"address[3]","name":"_nodes","type":"address[3]"}],"stateMutability":"nonpayable","type":"constructor"},{"anonymous":false,"inputs":[{"indexed":false,"internalType":"string","name":"cid","type":"string"},{"indexed":false,"internalType":"bool","name":"success","type":"bool"}],"name":"RequestCompleted","type":"event"},{"anonymous":false,"inputs":[{"indexed":false,"internalType":"string","name":"cid","type":"string"},{"indexed":false,"internalType":"string[]","name":"keywords","type":"string[]"},{"indexed":false,"internalType":"address","name":"owner","type":"address"}],"name":"VerificationRequested","type":"event"},{"inputs":[],"name":"REQUIRED_CONSENSUS","outputs":[{"internalType":"uint256","name":"","type":"uint256"}],"stateMutability":"view","type":"function"},{"inputs":[],"name":"VERIFICATION_TIMEOUT","outputs":[{"internalType":"uint256","name":"","type":"uint256"}],"stateMutability":"view","type":"function"},{"inputs":[{"internalType":"address","name":"","type":"address"}],"name":"authorizedNodes","outputs":[{"internalType":"bool","name":"","type":"bool"}],"stateMutability":"view","type":"function"},{"inputs":[{"internalType":"string","name":"cid","type":"string"}],"name":"claimRefund","outputs":[],"stateMutability":"nonpayable","type":"function"},{"inputs":[{"internalType":"string","name":"cid","type":"string"}],"name":"cleanIsNotProcessedRequest","outputs":[],"stateMutability":"nonpayable","type":"function"},{"inputs":[{"internalType":"string","name":"cid","type":"string"}],"name":"getRequestDetails","outputs":[{"internalType":"string","name":"CID","type":"string"},{"internalType":"bytes32","name":"resultRoot","type":"bytes32"}],"stateMutability":"view","type":"function"},{"inputs":[{"internalType":"string","name":"","type":"string"},{"internalType":"address","name":"","type":"address"}],"name":"hasVoted","outputs":[{"internalType":"bool","name":"","type":"bool"}],"stateMutability":"view","type":"function"},{"inputs":[{"internalType":"string","name":"","type":"string"}],"name":"requests","outputs":[{"internalType":"address","name":"owner","type":"address"},{"internalType":"uint256","name":"timestamp","type":"uint256"},{"internalType":"uint256","name":"paymentAmount","type":"uint256"},{"internalType":"bool","name":"isProcessed","type":"bool"}],"stateMutability":"view","type":"function"},{"inputs":[{"internalType":"string","name":"","type":"string"}],"name":"results","outputs":[{"internalType":"string","name":"cid","type":"string"},{"internalType":"bytes32","name":"resultRoot","type":"bytes32"}],"stateMutability":"view","type":"function"},{"inputs":[{"internalType":"string","name":"cid","type":"string"},{"internalType":"bytes32","name":"htmlRoot","type":"bytes32"}],"name":"submitHtmlRoot","outputs":[],"stateMutability":"nonpayable","type":"function"},{"inputs":[{"internalType":"string","name":"cid","type":"string"},{"internalType":"string[]","name":"keywords","type":"string[]"}],"name":"submitRequest","outputs":[],"stateMutability":"payable","type":"function"}],"evm":{"bytecode":{"linkReferences":{},"object":"608060405234801562000010575f80fd5b50604051620013d9380380620013d98339810160408190526200003391620000b4565b5f5b6003811015620000905760015f8084846003811062000058576200005862000148565b602090810291909101516001600160a01b031682528101919091526040015f20805460ff191691151591909117905560010162000035565b50506200015c565b80516001600160a01b0381168114620000af575f80fd5b919050565b5f60608284031215620000c5575f80fd5b82601f830112620000d4575f80fd5b604051606081016001600160401b03811182821017156200010357634e487b7160e01b5f52604160045260245ffd5b60405280606084018581111562000118575f80fd5b845b818110156200013d576200012e8162000098565b8352602092830192016200011a565b509195945050505050565b634e487b7160e01b5f52603260045260245ffd5b61126f806200016a5f395ff3fe60806040526004361061009a575f3560e01c8063692d51d211610062578063692d51d2146101475780637e53a740146101cf57806383a000191461020d57806385810ba31461022c5780639af06cd91461023f5780639f8910f014610288575f80fd5b80631981dbbd1461009e5780631e1d6e1d146100c55780632bf4b910146100da5780634b13d17d146101075780634e8b87fe14610126575b5f80fd5b3480156100a9575f80fd5b506100b2600281565b6040519081526020015b60405180910390f35b3480156100d0575f80fd5b506100b261012c81565b3480156100e5575f80fd5b506100f96100f4366004610cb9565b6102a7565b6040516100bc929190610cf8565b348015610112575f80fd5b506100f9610121366004610de7565b610384565b348015610131575f80fd5b50610145610140366004610cb9565b610431565b005b348015610152575f80fd5b506101a3610161366004610de7565b80516020818301810180516002808352938301929094019190912092905281546001830154918301546003909301546001600160a01b03909116929060ff1684565b604080516001600160a01b039095168552602085019390935291830152151560608201526080016100bc565b3480156101da575f80fd5b506101fd6101e9366004610e3c565b5f6020819052908152604090205460ff1681565b60405190151581526020016100bc565b348015610218575f80fd5b50610145610227366004610e5c565b6105ff565b61014561023a366004610ea4565b610990565b34801561024a575f80fd5b506101fd610259366004610f36565b81516020818401810180516003825292820194820194909420919093529091525f908152604090205460ff1681565b348015610293575f80fd5b506101456102a2366004610cb9565b610ac9565b60605f80600185856040516102bd929190610f81565b90815260200160405180910390206040518060400160405290815f820180546102e590610f90565b80601f016020809104026020016040519081016040528092919081815260200182805461031190610f90565b801561035c5780601f106103335761010080835404028352916020019161035c565b820191905f5260205f20905b81548152906001019060200180831161033f57829003601f168201915b50505091835250506001919091015460209182015281519101519093509150505b9250929050565b80516020818301810180516001825292820191909301209152805481906103aa90610f90565b80601f01602080910402602001604051908101604052809291908181526020018280546103d690610f90565b80156104215780601f106103f857610100808354040283529160200191610421565b820191905f5260205f20905b81548152906001019060200180831161040457829003601f168201915b5050505050908060010154905082565b5f60028383604051610444929190610f81565b908152602001604051809103902090505f8160020154116104985760405162461bcd60e51b8152602060048201526009602482015268139bdd08199bdd5b9960ba1b60448201526064015b60405180910390fd5b600381015460ff16156104e15760405162461bcd60e51b8152602060048201526011602482015270105b1c9958591e481c1c9bd8d95cdcd959607a1b604482015260640161048f565b61012c81600101546104f39190610fc8565b42116105305760405162461bcd60e51b815260206004820152600c60248201526b15d85a5d081d1a5b595bdd5d60a21b604482015260640161048f565b80546001600160a01b031633146105755760405162461bcd60e51b81526020600482015260096024820152682737ba1037bbb732b960b91b604482015260640161048f565b60038101805460ff19166001179055805460028201546040516001600160a01b039092169181156108fc0291905f818181858888f193505050501580156105be573d5f803e3d5ffd5b507f94563d730336ff32b7d62d92eaa0c450b413cb41d4b41936df4d5536232b4b4983835f6040516105f293929190611015565b60405180910390a1505050565b335f9081526020819052604090205460ff1661064c5760405162461bcd60e51b815260206004820152600c60248201526b155b985d5d1a1bdc9a5e995960a21b604482015260640161048f565b5f6002848460405161065f929190610f81565b908152602001604051809103902090505f8160020154116106b65760405162461bcd60e51b815260206004820152601160248201527014995c5d595cdd081b9bdd08199bdd5b99607a1b604482015260640161048f565b600381015460ff16156106ff5760405162461bcd60e51b815260206004820152601160248201527014995c5d595cdd081c1c9bd8d95cdcd959607a1b604482015260640161048f565b60038484604051610711929190610f81565b9081526040805160209281900383019020335f908152925290205460ff16156107645760405162461bcd60e51b8152602060048201526005602482015264159bdd195960da1b604482015260640161048f565b600160038585604051610778929190610f81565b9081526040805160209281900383019020335f818152918452828220805460ff191695151595909517909455858152600485018352908120805460018101825581835292822090920180546001600160a01b0319169093179092559083905254600281106109895760038201805460ff191660011790556040805160606020601f880181900402820181018352918101868152909182919088908890819085018382808284375f920191909152505050908252506020018490526040516001906108459088908890610f81565b908152604051908190036020019020815181906108629082611083565b506020918201516001909101555f848152600484018252604080822080548251818602810186019093528083529293919290918301828280156108cc57602002820191905f5260205f20905b81546001600160a01b031681526001909101906020018083116108ae575b505050505090505f8284600201546108e49190611143565b90505f5b82518110156109495782818151811061090357610903611162565b60200260200101516001600160a01b03166108fc8390811502906040515f60405180830381858888f19350505050158015610940573d5f803e3d5ffd5b506001016108e8565b507f94563d730336ff32b7d62d92eaa0c450b413cb41d4b41936df4d5536232b4b498787600160405161097e93929190611015565b60405180910390a150505b5050505050565b5f34116109df5760405162461bcd60e51b815260206004820152601760248201527f5061796d656e7420616d6f756e74207265717569726564000000000000000000604482015260640161048f565b5f600285856040516109f2929190610f81565b908152602001604051809103902090505f81600201541115610a5a57600381015460ff16610a5a5760405162461bcd60e51b815260206004820152601560248201527441637469766520726571756573742065786973747360581b604482015260640161048f565b80546001600160a01b03191633908117825542600183015534600283015560038201805460ff191690556040517ff5af9e5ebdd1fa9d6b7605d73ac037435203aca5814494c564f48583ae8a78f891610aba918891889188918891611176565b60405180910390a15050505050565b335f9081526020819052604090205460ff16610b165760405162461bcd60e51b815260206004820152600c60248201526b155b985d5d1a1bdc9a5e995960a21b604482015260640161048f565b5f60028383604051610b29929190610f81565b908152602001604051809103902090505f816002015411610b805760405162461bcd60e51b815260206004820152601160248201527014995c5d595cdd081b9bdd08199bdd5b99607a1b604482015260640161048f565b600381015460ff1615610bc15760405162461bcd60e51b8152602060048201526009602482015268141c9bd8d95cdcd95960ba1b604482015260640161048f565b61012c8160010154610bd39190610fc8565b4211610c2f5760405162461bcd60e51b815260206004820152602560248201527f4e6f742065787069726564207265717565737420766572696669636174696f6e6044820152642074696d6560d81b606482015260840161048f565b60028383604051610c41929190610f81565b90815260405190819003602001902080546001600160a01b03191681555f600182018190556002820155600301805460ff19169055505050565b5f8083601f840112610c8b575f80fd5b50813567ffffffffffffffff811115610ca2575f80fd5b60208301915083602082850101111561037d575f80fd5b5f8060208385031215610cca575f80fd5b823567ffffffffffffffff811115610ce0575f80fd5b610cec85828601610c7b565b90969095509350505050565b604081525f83518060408401525f5b81811015610d245760208187018101516060868401015201610d07565b505f606082850101526060601f19601f8301168401019150508260208301529392505050565b634e487b7160e01b5f52604160045260245ffd5b5f82601f830112610d6d575f80fd5b813567ffffffffffffffff80821115610d8857610d88610d4a565b604051601f8301601f19908116603f01168101908282118183101715610db057610db0610d4a565b81604052838152866020858801011115610dc8575f80fd5b836020870160208301375f602085830101528094505050505092915050565b5f60208284031215610df7575f80fd5b813567ffffffffffffffff811115610e0d575f80fd5b610e1984828501610d5e565b949350505050565b80356001600160a01b0381168114610e37575f80fd5b919050565b5f60208284031215610e4c575f80fd5b610e5582610e21565b9392505050565b5f805f60408486031215610e6e575f80fd5b833567ffffffffffffffff811115610e84575f80fd5b610e9086828701610c7b565b909790965060209590950135949350505050565b5f805f8060408587031215610eb7575f80fd5b843567ffffffffffffffff80821115610ece575f80fd5b610eda88838901610c7b565b90965094506020870135915080821115610ef2575f80fd5b818701915087601f830112610f05575f80fd5b813581811115610f13575f80fd5b8860208260051b8501011115610f27575f80fd5b95989497505060200194505050565b5f8060408385031215610f47575f80fd5b823567ffffffffffffffff811115610f5d575f80fd5b610f6985828601610d5e565b925050610f7860208401610e21565b90509250929050565b818382375f9101908152919050565b600181811c90821680610fa457607f821691505b602082108103610fc257634e487b7160e01b5f52602260045260245ffd5b50919050565b80820180821115610fe757634e487b7160e01b5f52601160045260245ffd5b92915050565b81835281816020850137505f828201602090810191909152601f909101601f19169091010190565b604081525f611028604083018587610fed565b90508215156020830152949350505050565b601f82111561107e57805f5260205f20601f840160051c8101602085101561105f5750805b601f840160051c820191505b81811015610989575f815560010161106b565b505050565b815167ffffffffffffffff81111561109d5761109d610d4a565b6110b1816110ab8454610f90565b8461103a565b602080601f8311600181146110e4575f84156110cd5750858301515b5f19600386901b1c1916600185901b17855561113b565b5f85815260208120601f198616915b82811015611112578886015182559484019460019091019084016110f3565b508582101561112f57878501515f19600388901b60f8161c191681555b505060018460011b0185555b505050505050565b5f8261115d57634e487b7160e01b5f52601260045260245ffd5b500490565b634e487b7160e01b5f52603260045260245ffd5b606081525f611189606083018789610fed565b602083820381850152818683528183019050818760051b840101885f5b8981101561121357858303601f190184528135368c9003601e190181126111cb575f80fd5b8b01858101903567ffffffffffffffff8111156111e6575f80fd5b8036038213156111f4575f80fd5b6111ff858284610fed565b9587019594505050908401906001016111a6565b50506001600160a01b0387166040870152935061122f92505050565b969550505050505056fea2646970667358221220fd0cffc6ec809395cbe96597bec8b15dfa7f3ad06354405647cdb0e4afd6e5aa64736f6c63430008180033","opcodes":"PUSH1 0x80 PUSH1 0x40 MSTORE CALLVALUE DUP1 ISZERO PUSH3 0x10 JUMPI PUSH0 DUP1 REVERT JUMPDEST POP PUSH1 0x40 MLOAD PUSH3 0x13D9 CODESIZE SUB DUP1 PUSH3 0x13D9 DUP4 CODECOPY DUP2 ADD PUSH1 0x40 DUP2 SWAP1 MSTORE PUSH3 0x33 SWAP2 PUSH3 0xB4 JUMP JUMPDEST PUSH0 JUMPDEST PUSH1 0x3 DUP2 LT ISZERO PUSH3 0x90 JUMPI PUSH1 0x1 PUSH0 DUP1 DUP5 DUP5 PUSH1 0x3 DUP2 LT PUSH3 0x58 JUMPI PUSH3 0x58 PUSH3 0x148 JUMP JUMPDEST PUSH1 0x20 SWAP1 DUP2 MUL SWAP2 SWAP1 SWAP2 ADD MLOAD PUSH1 0x1 PUSH1 0x1 PUSH1 0xA0 SHL SUB AND DUP3 MSTORE DUP2 ADD SWAP2 SWAP1 SWAP2 MSTORE PUSH1 0x40 ADD PUSH0 KECCAK256 DUP1 SLOAD PUSH1 0xFF NOT AND SWAP2 ISZERO ISZERO SWAP2 SWAP1 SWAP2 OR SWAP1 SSTORE PUSH1 0x1 ADD PUSH3 0x35 JUMP JUMPDEST POP POP PUSH3 0x15C JUMP JUMPDEST DUP1 MLOAD PUSH1 0x1 PUSH1 0x1 PUSH1 0xA0 SHL SUB DUP2 AND DUP2 EQ PUSH3 0xAF JUMPI PUSH0 DUP1 REVERT JUMPDEST SWAP2 SWAP1 POP JUMP JUMPDEST PUSH0 PUSH1 0x60 DUP3 DUP5 SUB SLT ISZERO PUSH3 0xC5 JUMPI PUSH0 DUP1 REVERT JUMPDEST DUP3 PUSH1 0x1F DUP4 ADD SLT PUSH3 0xD4 JUMPI PUSH0 DUP1 REVERT JUMPDEST PUSH1 0x40 MLOAD PUSH1 0x60 DUP2 ADD PUSH1 0x1 PUSH1 0x1 PUSH1 0x40 SHL SUB DUP2 GT DUP3 DUP3 LT OR ISZERO PUSH3 0x103 JUMPI PUSH4 0x4E487B71 PUSH1 0xE0 SHL PUSH0 MSTORE PUSH1 0x41 PUSH1 0x4 MSTORE PUSH1 0x24 PUSH0 REVERT JUMPDEST PUSH1 0x40 MSTORE DUP1 PUSH1 0x60 DUP5 ADD DUP6 DUP2 GT ISZERO PUSH3 0x118 JUMPI PUSH0 DUP1 REVERT JUMPDEST DUP5 JUMPDEST DUP2 DUP2 LT ISZERO PUSH3 0x13D JUMPI PUSH3 0x12E DUP2 PUSH3 0x98 JUMP JUMPDEST DUP4 MSTORE PUSH1 0x20 SWAP3 DUP4 ADD SWAP3 ADD PUSH3 0x11A JUMP JUMPDEST POP SWAP2 SWAP6 SWAP5 POP POP POP POP POP JUMP JUMPDEST PUSH4 0x4E487B71 PUSH1 0xE0 SHL PUSH0 MSTORE PUSH1 0x32 PUSH1 0x4 MSTORE PUSH1 0x24 PUSH0 REVERT JUMPDEST PUSH2 0x126F DUP1 PUSH3 0x16A PUSH0 CODECOPY PUSH0 RETURN INVALID PUSH1 0x80 PUSH1 0x40 MSTORE PUSH1 0x4 CALLDATASIZE LT PUSH2 0x9A JUMPI PUSH0 CALLDATALOAD PUSH1 0xE0 SHR DUP1 PUSH4 0x692D51D2 GT PUSH2 0x62 JUMPI DUP1 PUSH4 0x692D51D2 EQ PUSH2 0x147 JUMPI DUP1 PUSH4 0x7E53A740 EQ PUSH2 0x1CF JUMPI DUP1 PUSH4 0x83A00019 EQ PUSH2 0x20D JUMPI DUP1 PUSH4 0x85810BA3 EQ PUSH2 0x22C JUMPI DUP1 PUSH4 0x9AF06CD9 EQ PUSH2 0x23F JUMPI DUP1 PUSH4 0x9F8910F0 EQ PUSH2 0x288 JUMPI PUSH0 DUP1 REVERT JUMPDEST DUP1 PUSH4 0x1981DBBD EQ PUSH2 0x9E JUMPI DUP1 PUSH4 0x1E1D6E1D EQ PUSH2 0xC5 JUMPI DUP1 PUSH4 0x2BF4B910 EQ PUSH2 0xDA JUMPI DUP1 PUSH4 0x4B13D17D EQ PUSH2 0x107 JUMPI DUP1 PUSH4 0x4E8B87FE EQ PUSH2 0x126 JUMPI JUMPDEST PUSH0 DUP1 REVERT JUMPDEST CALLVALUE DUP1 ISZERO PUSH2 0xA9 JUMPI PUSH0 DUP1 REVERT JUMPDEST POP PUSH2 0xB2 PUSH1 0x2 DUP2 JUMP JUMPDEST PUSH1 0x40 MLOAD SWAP1 DUP2 MSTORE PUSH1 0x20 ADD JUMPDEST PUSH1 0x40 MLOAD DUP1 SWAP2 SUB SWAP1 RETURN JUMPDEST CALLVALUE DUP1 ISZERO PUSH2 0xD0 JUMPI PUSH0 DUP1 REVERT JUMPDEST POP PUSH2 0xB2 PUSH2 0x12C DUP2 JUMP JUMPDEST CALLVALUE DUP1 ISZERO PUSH2 0xE5 JUMPI PUSH0 DUP1 REVERT JUMPDEST POP PUSH2 0xF9 PUSH2 0xF4 CALLDATASIZE PUSH1 0x4 PUSH2 0xCB9 JUMP JUMPDEST PUSH2 0x2A7 JUMP JUMPDEST PUSH1 0x40 MLOAD PUSH2 0xBC SWAP3 SWAP2 SWAP1 PUSH2 0xCF8 JUMP JUMPDEST CALLVALUE DUP1 ISZERO PUSH2 0x112 JUMPI PUSH0 DUP1 REVERT JUMPDEST POP PUSH2 0xF9 PUSH2 0x121 CALLDATASIZE PUSH1 0x4 PUSH2 0xDE7 JUMP JUMPDEST PUSH2 0x384 JUMP JUMPDEST CALLVALUE DUP1 ISZERO PUSH2 0x131 JUMPI PUSH0 DUP1 REVERT JUMPDEST POP PUSH2 0x145 PUSH2 0x140 CALLDATASIZE PUSH1 0x4 PUSH2 0xCB9 JUMP JUMPDEST PUSH2 0x431 JUMP JUMPDEST STOP JUMPDEST CALLVALUE DUP1 ISZERO PUSH2 0x152 JUMPI PUSH0 DUP1 REVERT JUMPDEST POP PUSH2 0x1A3 PUSH2 0x161 CALLDATASIZE PUSH1 0x4 PUSH2 0xDE7 JUMP JUMPDEST DUP1 MLOAD PUSH1 0x20 DUP2 DUP4 ADD DUP2 ADD DUP1 MLOAD PUSH1 0x2 DUP1 DUP4 MSTORE SWAP4 DUP4 ADD SWAP3 SWAP1 SWAP5 ADD SWAP2 SWAP1 SWAP2 KECCAK256 SWAP3 SWAP1 MSTORE DUP2 SLOAD PUSH1 0x1 DUP4 ADD SLOAD SWAP2 DUP4 ADD SLOAD PUSH1 0x3 SWAP1 SWAP4 ADD SLOAD PUSH1 0x1 PUSH1 0x1 PUSH1 0xA0 SHL SUB SWAP1 SWAP2 AND SWAP3 SWAP1 PUSH1 0xFF AND DUP5 JUMP JUMPDEST PUSH1 0x40 DUP1 MLOAD PUSH1 0x1 PUSH1 0x1 PUSH1 0xA0 SHL SUB SWAP1 SWAP6 AND DUP6 MSTORE PUSH1 0x20 DUP6 ADD SWAP4 SWAP1 SWAP4 MSTORE SWAP2 DUP4 ADD MSTORE ISZERO ISZERO PUSH1 0x60 DUP3 ADD MSTORE PUSH1 0x80 ADD PUSH2 0xBC JUMP JUMPDEST CALLVALUE DUP1 ISZERO PUSH2 0x1DA JUMPI PUSH0 DUP1 REVERT JUMPDEST POP PUSH2 0x1FD PUSH2 0x1E9 CALLDATASIZE PUSH1 0x4 PUSH2 0xE3C JUMP JUMPDEST PUSH0 PUSH1 0x20 DUP2 SWAP1 MSTORE SWAP1 DUP2 MSTORE PUSH1 0x40 SWAP1 KECCAK256 SLOAD PUSH1 0xFF AND DUP2 JUMP JUMPDEST PUSH1 0x40 MLOAD SWAP1 ISZERO ISZERO DUP2 MSTORE PUSH1 0x20 ADD PUSH2 0xBC JUMP JUMPDEST CALLVALUE DUP1 ISZERO PUSH2 0x218 JUMPI PUSH0 DUP1 REVERT JUMPDEST POP PUSH2 0x145 PUSH2 0x227 CALLDATASIZE PUSH1 0x4 PUSH2 0xE5C JUMP JUMPDEST PUSH2 0x5FF JUMP JUMPDEST PUSH2 0x145 PUSH2 0x23A CALLDATASIZE PUSH1 0x4 PUSH2 0xEA4 JUMP JUMPDEST PUSH2 0x990 JUMP JUMPDEST CALLVALUE DUP1 ISZERO PUSH2 0x24A JUMPI PUSH0 DUP1 REVERT JUMPDEST POP PUSH2 0x1FD PUSH2 0x259 CALLDATASIZE PUSH1 0x4 PUSH2 0xF36 JUMP JUMPDEST DUP2 MLOAD PUSH1 0x20 DUP2 DUP5 ADD DUP2 ADD DUP1 MLOAD PUSH1 0x3 DUP3 MSTORE SWAP3 DUP3 ADD SWAP5 DUP3 ADD SWAP5 SWAP1 SWAP5 KECCAK256 SWAP2 SWAP1 SWAP4 MSTORE SWAP1 SWAP2 MSTORE PUSH0 SWAP1 DUP2 MSTORE PUSH1 0x40 SWAP1 KECCAK256 SLOAD PUSH1 0xFF AND DUP2 JUMP JUMPDEST CALLVALUE DUP1 ISZERO PUSH2 0x293 JUMPI PUSH0 DUP1 REVERT JUMPDEST POP PUSH2 0x145 PUSH2 0x2A2 CALLDATASIZE PUSH1 0x4 PUSH2 0xCB9 JUMP JUMPDEST PUSH2 0xAC9 JUMP JUMPDEST PUSH1 0x60 PUSH0 DUP1 PUSH1 0x1 DUP6 DUP6 PUSH1 0x40 MLOAD PUSH2 0x2BD SWAP3 SWAP2 SWAP1 PUSH2 0xF81 JUMP JUMPDEST SWAP1 DUP2 MSTORE PUSH1 0x20 ADD PUSH1 0x40 MLOAD DUP1 SWAP2 SUB SWAP1 KECCAK256 PUSH1 0x40 MLOAD DUP1 PUSH1 0x40 ADD PUSH1 0x40 MSTORE SWAP1 DUP2 PUSH0 DUP3 ADD DUP1 SLOAD PUSH2 0x2E5 SWAP1 PUSH2 0xF90 JUMP JUMPDEST DUP1 PUSH1 0x1F ADD PUSH1 0x20 DUP1 SWAP2 DIV MUL PUSH1 0x20 ADD PUSH1 0x40 MLOAD SWAP1 DUP2 ADD PUSH1 0x40 MSTORE DUP1 SWAP3 SWAP2 SWAP1 DUP2 DUP2 MSTORE PUSH1 0x20 ADD DUP3 DUP1 SLOAD PUSH2 0x311 SWAP1 PUSH2 0xF90 JUMP JUMPDEST DUP1 ISZERO PUSH2 0x35C JUMPI DUP1 PUSH1 0x1F LT PUSH2 0x333 JUMPI PUSH2 0x100 DUP1 DUP4 SLOAD DIV MUL DUP4 MSTORE SWAP2 PUSH1 0x20 ADD SWAP2 PUSH2 0x35C JUMP JUMPDEST DUP3 ADD SWAP2 SWAP1 PUSH0 MSTORE PUSH1 0x20 PUSH0 KECCAK256 SWAP1 JUMPDEST DUP2 SLOAD DUP2 MSTORE SWAP1 PUSH1 0x1 ADD SWAP1 PUSH1 0x20 ADD DUP1 DUP4 GT PUSH2 0x33F JUMPI DUP3 SWAP1 SUB PUSH1 0x1F AND DUP3 ADD SWAP2 JUMPDEST POP POP POP SWAP2 DUP4 MSTORE POP POP PUSH1 0x1 SWAP2 SWAP1 SWAP2 ADD SLOAD PUSH1 0x20 SWAP2 DUP3 ADD MSTORE DUP2 MLOAD SWAP2 ADD MLOAD SWAP1 SWAP4 POP SWAP2 POP POP JUMPDEST SWAP3 POP SWAP3 SWAP1 POP JUMP JUMPDEST DUP1 MLOAD PUSH1 0x20 DUP2 DUP4 ADD DUP2 ADD DUP1 MLOAD PUSH1 0x1 DUP3 MSTORE SWAP3 DUP3 ADD SWAP2 SWAP1 SWAP4 ADD KECCAK256 SWAP2 MSTORE DUP1 SLOAD DUP2 SWAP1 PUSH2 0x3AA SWAP1 PUSH2 0xF90 JUMP JUMPDEST DUP1 PUSH1 0x1F ADD PUSH1 0x20 DUP1 SWAP2 DIV MUL PUSH1 0x20 ADD PUSH1 0x40 MLOAD SWAP1 DUP2 ADD PUSH1 0x40 MSTORE DUP1 SWAP3 SWAP2 SWAP1 DUP2 DUP2 MSTORE PUSH1 0x20 ADD DUP3 DUP1 SLOAD PUSH2 0x3D6 SWAP1 PUSH2 0xF90 JUMP JUMPDEST DUP1 ISZERO PUSH2 0x421 JUMPI DUP1 PUSH1 0x1F LT PUSH2 0x3F8 JUMPI PUSH2 0x100 DUP1 DUP4 SLOAD DIV MUL DUP4 MSTORE SWAP2 PUSH1 0x20 ADD SWAP2 PUSH2 0x421 JUMP JUMPDEST DUP3 ADD SWAP2 SWAP1 PUSH0 MSTORE PUSH1 0x20 PUSH0 KECCAK256 SWAP1 JUMPDEST DUP2 SLOAD DUP2 MSTORE SWAP1 PUSH1 0x1 ADD SWAP1 PUSH1 0x20 ADD DUP1 DUP4 GT PUSH2 0x404 JUMPI DUP3 SWAP1 SUB PUSH1 0x1F AND DUP3 ADD SWAP2 JUMPDEST POP POP POP POP POP SWAP1 DUP1 PUSH1 0x1 ADD SLOAD SWAP1 POP DUP3 JUMP JUMPDEST PUSH0 PUSH1 0x2 DUP4 DUP4 PUSH1 0x40 MLOAD PUSH2 0x444 SWAP3 SWAP2 SWAP1 PUSH2 0xF81 JUMP JUMPDEST SWAP1 DUP2 MSTORE PUSH1 0x20 ADD PUSH1 0x40 MLOAD DUP1 SWAP2 SUB SWAP1 KECCAK256 SWAP1 POP PUSH0 DUP2 PUSH1 0x2 ADD SLOAD GT PUSH2 0x498 JUMPI PUSH1 0x40 MLOAD PUSH3 0x461BCD PUSH1 0xE5 SHL DUP2 MSTORE PUSH1 0x20 PUSH1 0x4 DUP3 ADD MSTORE PUSH1 0x9 PUSH1 0x24 DUP3 ADD MSTORE PUSH9 0x139BDD08199BDD5B99 PUSH1 0xBA SHL PUSH1 0x44 DUP3 ADD MSTORE PUSH1 0x64 ADD JUMPDEST PUSH1 0x40 MLOAD DUP1 SWAP2 SUB SWAP1 REVERT JUMPDEST PUSH1 0x3 DUP2 ADD SLOAD PUSH1 0xFF AND ISZERO PUSH2 0x4E1 JUMPI PUSH1 0x40 MLOAD PUSH3 0x461BCD PUSH1 0xE5 SHL DUP2 MSTORE PUSH1 0x20 PUSH1 0x4 DUP3 ADD MSTORE PUSH1 0x11 PUSH1 0x24 DUP3 ADD MSTORE PUSH17 0x105B1C9958591E481C1C9BD8D95CDCD959 PUSH1 0x7A SHL PUSH1 0x44 DUP3 ADD MSTORE PUSH1 0x64 ADD PUSH2 0x48F JUMP JUMPDEST PUSH2 0x12C DUP2 PUSH1 0x1 ADD SLOAD PUSH2 0x4F3 SWAP2 SWAP1 PUSH2 0xFC8 JUMP JUMPDEST TIMESTAMP GT PUSH2 0x530 JUMPI PUSH1 0x40 MLOAD PUSH3 0x461BCD PUSH1 0xE5 SHL DUP2 MSTORE PUSH1 0x20 PUSH1 0x4 DUP3 ADD MSTORE PUSH1 0xC PUSH1 0x24 DUP3 ADD MSTORE PUSH12 0x15D85A5D081D1A5B595BDD5D PUSH1 0xA2 SHL PUSH1 0x44 DUP3 ADD MSTORE PUSH1 0x64 ADD PUSH2 0x48F JUMP JUMPDEST DUP1 SLOAD PUSH1 0x1 PUSH1 0x1 PUSH1 0xA0 SHL SUB AND CALLER EQ PUSH2 0x575 JUMPI PUSH1 0x40 MLOAD PUSH3 0x461BCD PUSH1 0xE5 SHL DUP2 MSTORE PUSH1 0x20 PUSH1 0x4 DUP3 ADD MSTORE PUSH1 0x9 PUSH1 0x24 DUP3 ADD MSTORE PUSH9 0x2737BA1037BBB732B9 PUSH1 0xB9 SHL PUSH1 0x44 DUP3 ADD MSTORE PUSH1 0x64 ADD PUSH2 0x48F JUMP JUMPDEST PUSH1 0x3 DUP2 ADD DUP1 SLOAD PUSH1 0xFF NOT AND PUSH1 0x1 OR SWAP1 SSTORE DUP1 SLOAD PUSH1 0x2 DUP3 ADD SLOAD PUSH1 0x40 MLOAD PUSH1 0x1 PUSH1 0x1 PUSH1 0xA0 SHL SUB SWAP1 SWAP3 AND SWAP2 DUP2 ISZERO PUSH2 0x8FC MUL SWAP2 SWAP1 PUSH0 DUP2 DUP2 DUP2 DUP6 DUP9 DUP9 CALL SWAP4 POP POP POP POP ISZERO DUP1 ISZERO PUSH2 0x5BE JUMPI RETURNDATASIZE PUSH0 DUP1 RETURNDATACOPY RETURNDATASIZE PUSH0 REVERT JUMPDEST POP PUSH32 0x94563D730336FF32B7D62D92EAA0C450B413CB41D4B41936DF4D5536232B4B49 DUP4 DUP4 PUSH0 PUSH1 0x40 MLOAD PUSH2 0x5F2 SWAP4 SWAP3 SWAP2 SWAP1 PUSH2 0x1015 JUMP JUMPDEST PUSH1 0x40 MLOAD DUP1 SWAP2 SUB SWAP1 LOG1 POP POP POP JUMP JUMPDEST CALLER PUSH0 SWAP1 DUP2 MSTORE PUSH1 0x20 DUP2 SWAP1 MSTORE PUSH1 0x40 SWAP1 KECCAK256 SLOAD PUSH1 0xFF AND PUSH2 0x64C JUMPI PUSH1 0x40 MLOAD PUSH3 0x461BCD PUSH1 0xE5 SHL DUP2 MSTORE PUSH1 0x20 PUSH1 0x4 DUP3 ADD MSTORE PUSH1 0xC PUSH1 0x24 DUP3 ADD MSTORE PUSH12 0x155B985D5D1A1BDC9A5E9959 PUSH1 0xA2 SHL PUSH1 0x44 DUP3 ADD MSTORE PUSH1 0x64 ADD PUSH2 0x48F JUMP JUMPDEST PUSH0 PUSH1 0x2 DUP5 DUP5 PUSH1 0x40 MLOAD PUSH2 0x65F SWAP3 SWAP2 SWAP1 PUSH2 0xF81 JUMP JUMPDEST SWAP1 DUP2 MSTORE PUSH1 0x20 ADD PUSH1 0x40 MLOAD DUP1 SWAP2 SUB SWAP1 KECCAK256 SWAP1 POP PUSH0 DUP2 PUSH1 0x2 ADD SLOAD GT PUSH2 0x6B6 JUMPI PUSH1 0x40 MLOAD PUSH3 0x461BCD PUSH1 0xE5 SHL DUP2 MSTORE PUSH1 0x20 PUSH1 0x4 DUP3 ADD MSTORE PUSH1 0x11 PUSH1 0x24 DUP3 ADD MSTORE PUSH17 0x14995C5D595CDD081B9BDD08199BDD5B99 PUSH1 0x7A SHL PUSH1 0x44 DUP3 ADD MSTORE PUSH1 0x64 ADD PUSH2 0x48F JUMP JUMPDEST PUSH1 0x3 DUP2 ADD SLOAD PUSH1 0xFF AND ISZERO PUSH2 0x6FF JUMPI PUSH1 0x40 MLOAD PUSH3 0x461BCD PUSH1 0xE5 SHL DUP2 MSTORE PUSH1 0x20 PUSH1 0x4 DUP3 ADD MSTORE PUSH1 0x11 PUSH1 0x24 DUP3 ADD MSTORE PUSH17 0x14995C5D595CDD081C1C9BD8D95CDCD959 PUSH1 0x7A SHL PUSH1 0x44 DUP3 ADD MSTORE PUSH1 0x64 ADD PUSH2 0x48F JUMP JUMPDEST PUSH1 0x3 DUP5 DUP5 PUSH1 0x40 MLOAD PUSH2 0x711 SWAP3 SWAP2 SWAP1 PUSH2 0xF81 JUMP JUMPDEST SWAP1 DUP2 MSTORE PUSH1 0x40 DUP1 MLOAD PUSH1 0x20 SWAP3 DUP2 SWAP1 SUB DUP4 ADD SWAP1 KECCAK256 CALLER PUSH0 SWAP1 DUP2 MSTORE SWAP3 MSTORE SWAP1 KECCAK256 SLOAD PUSH1 0xFF AND ISZERO PUSH2 0x764 JUMPI PUSH1 0x40 MLOAD PUSH3 0x461BCD PUSH1 0xE5 SHL DUP2 MSTORE PUSH1 0x20 PUSH1 0x4 DUP3 ADD MSTORE PUSH1 0x5 PUSH1 0x24 DUP3 ADD MSTORE PUSH5 0x159BDD1959 PUSH1 0xDA SHL PUSH1 0x44 DUP3 ADD MSTORE PUSH1 0x64 ADD PUSH2 0x48F JUMP JUMPDEST PUSH1 0x1 PUSH1 0x3 DUP6 DUP6 PUSH1 0x40 MLOAD PUSH2 0x778 SWAP3 SWAP2 SWAP1 PUSH2 0xF81 JUMP JUMPDEST SWAP1 DUP2 MSTORE PUSH1 0x40 DUP1 MLOAD PUSH1 0x20 SWAP3 DUP2 SWAP1 SUB DUP4 ADD SWAP1 KECCAK256 CALLER PUSH0 DUP2 DUP2 MSTORE SWAP2 DUP5 MSTORE DUP3 DUP3 KECCAK256 DUP1 SLOAD PUSH1 0xFF NOT AND SWAP6 ISZERO ISZERO SWAP6 SWAP1 SWAP6 OR SWAP1 SWAP5 SSTORE DUP6 DUP2 MSTORE PUSH1 0x4 DUP6 ADD DUP4 MSTORE SWAP1 DUP2 KECCAK256 DUP1 SLOAD PUSH1 0x1 DUP2 ADD DUP3 SSTORE DUP2 DUP4 MSTORE SWAP3 DUP3 KECCAK256 SWAP1 SWAP3 ADD DUP1 SLOAD PUSH1 0x1 PUSH1 0x1 PUSH1 0xA0 SHL SUB NOT AND SWAP1 SWAP4 OR SWAP1 SWAP3 SSTORE SWAP1 DUP4 SWAP1 MSTORE SLOAD PUSH1 0x2 DUP2 LT PUSH2 0x989 JUMPI PUSH1 0x3 DUP3 ADD DUP1 SLOAD PUSH1 0xFF NOT AND PUSH1 0x1 OR SWAP1 SSTORE PUSH1 0x40 DUP1 MLOAD PUSH1 0x60 PUSH1 0x20 PUSH1 0x1F DUP9 ADD DUP2 SWAP1 DIV MUL DUP3 ADD DUP2 ADD DUP4 MSTORE SWAP2 DUP2 ADD DUP7 DUP2 MSTORE SWAP1 SWAP2 DUP3 SWAP2 SWAP1 DUP9 SWAP1 DUP9 SWAP1 DUP2 SWAP1 DUP6 ADD DUP4 DUP3 DUP1 DUP3 DUP5 CALLDATACOPY PUSH0 SWAP3 ADD SWAP2 SWAP1 SWAP2 MSTORE POP POP POP SWAP1 DUP3 MSTORE POP PUSH1 0x20 ADD DUP5 SWAP1 MSTORE PUSH1 0x40 MLOAD PUSH1 0x1 SWAP1 PUSH2 0x845 SWAP1 DUP9 SWAP1 DUP9 SWAP1 PUSH2 0xF81 JUMP JUMPDEST SWAP1 DUP2 MSTORE PUSH1 0x40 MLOAD SWAP1 DUP2 SWAP1 SUB PUSH1 0x20 ADD SWAP1 KECCAK256 DUP2 MLOAD DUP2 SWAP1 PUSH2 0x862 SWAP1 DUP3 PUSH2 0x1083 JUMP JUMPDEST POP PUSH1 0x20 SWAP2 DUP3 ADD MLOAD PUSH1 0x1 SWAP1 SWAP2 ADD SSTORE PUSH0 DUP5 DUP2 MSTORE PUSH1 0x4 DUP5 ADD DUP3 MSTORE PUSH1 0x40 DUP1 DUP3 KECCAK256 DUP1 SLOAD DUP3 MLOAD DUP2 DUP7 MUL DUP2 ADD DUP7 ADD SWAP1 SWAP4 MSTORE DUP1 DUP4 MSTORE SWAP3 SWAP4 SWAP2 SWAP3 SWAP1 SWAP2 DUP4 ADD DUP3 DUP3 DUP1 ISZERO PUSH2 0x8CC JUMPI PUSH1 0x20 MUL DUP3 ADD SWAP2 SWAP1 PUSH0 MSTORE PUSH1 0x20 PUSH0 KECCAK256 SWAP1 JUMPDEST DUP2 SLOAD PUSH1 0x1 PUSH1 0x1 PUSH1 0xA0 SHL SUB AND DUP2 MSTORE PUSH1 0x1 SWAP1 SWAP2 ADD SWAP1 PUSH1 0x20 ADD DUP1 DUP4 GT PUSH2 0x8AE JUMPI JUMPDEST POP POP POP POP POP SWAP1 POP PUSH0 DUP3 DUP5 PUSH1 0x2 ADD SLOAD PUSH2 0x8E4 SWAP2 SWAP1 PUSH2 0x1143 JUMP JUMPDEST SWAP1 POP PUSH0 JUMPDEST DUP3 MLOAD DUP2 LT ISZERO PUSH2 0x949 JUMPI DUP3 DUP2 DUP2 MLOAD DUP2 LT PUSH2 0x903 JUMPI PUSH2 0x903 PUSH2 0x1162 JUMP JUMPDEST PUSH1 0x20 MUL PUSH1 0x20 ADD ADD MLOAD PUSH1 0x1 PUSH1 0x1 PUSH1 0xA0 SHL SUB AND PUSH2 0x8FC DUP4 SWAP1 DUP2 ISZERO MUL SWAP1 PUSH1 0x40 MLOAD PUSH0 PUSH1 0x40 MLOAD DUP1 DUP4 SUB DUP2 DUP6 DUP9 DUP9 CALL SWAP4 POP POP POP POP ISZERO DUP1 ISZERO PUSH2 0x940 JUMPI RETURNDATASIZE PUSH0 DUP1 RETURNDATACOPY RETURNDATASIZE PUSH0 REVERT JUMPDEST POP PUSH1 0x1 ADD PUSH2 0x8E8 JUMP JUMPDEST POP PUSH32 0x94563D730336FF32B7D62D92EAA0C450B413CB41D4B41936DF4D5536232B4B49 DUP8 DUP8 PUSH1 0x1 PUSH1 0x40 MLOAD PUSH2 0x97E SWAP4 SWAP3 SWAP2 SWAP1 PUSH2 0x1015 JUMP JUMPDEST PUSH1 0x40 MLOAD DUP1 SWAP2 SUB SWAP1 LOG1 POP POP JUMPDEST POP POP POP POP POP JUMP JUMPDEST PUSH0 CALLVALUE GT PUSH2 0x9DF JUMPI PUSH1 0x40 MLOAD PUSH3 0x461BCD PUSH1 0xE5 SHL DUP2 MSTORE PUSH1 0x20 PUSH1 0x4 DUP3 ADD MSTORE PUSH1 0x17 PUSH1 0x24 DUP3 ADD MSTORE PUSH32 0x5061796D656E7420616D6F756E74207265717569726564000000000000000000 PUSH1 0x44 DUP3 ADD MSTORE PUSH1 0x64 ADD PUSH2 0x48F JUMP JUMPDEST PUSH0 PUSH1 0x2 DUP6 DUP6 PUSH1 0x40 MLOAD PUSH2 0x9F2 SWAP3 SWAP2 SWAP1 PUSH2 0xF81 JUMP JUMPDEST SWAP1 DUP2 MSTORE PUSH1 0x20 ADD PUSH1 0x40 MLOAD DUP1 SWAP2 SUB SWAP1 KECCAK256 SWAP1 POP PUSH0 DUP2 PUSH1 0x2 ADD SLOAD GT ISZERO PUSH2 0xA5A JUMPI PUSH1 0x3 DUP2 ADD SLOAD PUSH1 0xFF AND PUSH2 0xA5A JUMPI PUSH1 0x40 MLOAD PUSH3 0x461BCD PUSH1 0xE5 SHL DUP2 MSTORE PUSH1 0x20 PUSH1 0x4 DUP3 ADD MSTORE PUSH1 0x15 PUSH1 0x24 DUP3 ADD MSTORE PUSH21 0x416374697665207265717565737420657869737473 PUSH1 0x58 SHL PUSH1 0x44 DUP3 ADD MSTORE PUSH1 0x64 ADD PUSH2 0x48F JUMP JUMPDEST DUP1 SLOAD PUSH1 0x1 PUSH1 0x1 PUSH1 0xA0 SHL SUB NOT AND CALLER SWAP1 DUP2 OR DUP3 SSTORE TIMESTAMP PUSH1 0x1 DUP4 ADD SSTORE CALLVALUE PUSH1 0x2 DUP4 ADD SSTORE PUSH1 0x3 DUP3 ADD DUP1 SLOAD PUSH1 0xFF NOT AND SWAP1 SSTORE PUSH1 0x40 MLOAD PUSH32 0xF5AF9E5EBDD1FA9D6B7605D73AC037435203ACA5814494C564F48583AE8A78F8 SWAP2 PUSH2 0xABA SWAP2 DUP9 SWAP2 DUP9 SWAP2 DUP9 SWAP2 DUP9 SWAP2 PUSH2 0x1176 JUMP JUMPDEST PUSH1 0x40 MLOAD DUP1 SWAP2 SUB SWAP1 LOG1 POP POP POP POP POP JUMP JUMPDEST CALLER PUSH0 SWAP1 DUP2 MSTORE PUSH1 0x20 DUP2 SWAP1 MSTORE PUSH1 0x40 SWAP1 KECCAK256 SLOAD PUSH1 0xFF AND PUSH2 0xB16 JUMPI PUSH1 0x40 MLOAD PUSH3 0x461BCD PUSH1 0xE5 SHL DUP2 MSTORE PUSH1 0x20 PUSH1 0x4 DUP3 ADD MSTORE PUSH1 0xC PUSH1 0x24 DUP3 ADD MSTORE PUSH12 0x155B985D5D1A1BDC9A5E9959 PUSH1 0xA2 SHL PUSH1 0x44 DUP3 ADD MSTORE PUSH1 0x64 ADD PUSH2 0x48F JUMP JUMPDEST PUSH0 PUSH1 0x2 DUP4 DUP4 PUSH1 0x40 MLOAD PUSH2 0xB29 SWAP3 SWAP2 SWAP1 PUSH2 0xF81 JUMP JUMPDEST SWAP1 DUP2 MSTORE PUSH1 0x20 ADD PUSH1 0x40 MLOAD DUP1 SWAP2 SUB SWAP1 KECCAK256 SWAP1 POP PUSH0 DUP2 PUSH1 0x2 ADD SLOAD GT PUSH2 0xB80 JUMPI PUSH1 0x40 MLOAD PUSH3 0x461BCD PUSH1 0xE5 SHL DUP2 MSTORE PUSH1 0x20 PUSH1 0x4 DUP3 ADD MSTORE PUSH1 0x11 PUSH1 0x24 DUP3 ADD MSTORE PUSH17 0x14995C5D595CDD081B9BDD08199BDD5B99 PUSH1 0x7A SHL PUSH1 0x44 DUP3 ADD MSTORE PUSH1 0x64 ADD PUSH2 0x48F JUMP JUMPDEST PUSH1 0x3 DUP2 ADD SLOAD PUSH1 0xFF AND ISZERO PUSH2 0xBC1 JUMPI PUSH1 0x40 MLOAD PUSH3 0x461BCD PUSH1 0xE5 SHL DUP2 MSTORE PUSH1 0x20 PUSH1 0x4 DUP3 ADD MSTORE PUSH1 0x9 PUSH1 0x24 DUP3 ADD MSTORE PUSH9 0x141C9BD8D95CDCD959 PUSH1 0xBA SHL PUSH1 0x44 DUP3 ADD MSTORE PUSH1 0x64 ADD PUSH2 0x48F JUMP JUMPDEST PUSH2 0x12C DUP2 PUSH1 0x1 ADD SLOAD PUSH2 0xBD3 SWAP2 SWAP1 PUSH2 0xFC8 JUMP JUMPDEST TIMESTAMP GT PUSH2 0xC2F JUMPI PUSH1 0x40 MLOAD PUSH3 0x461BCD PUSH1 0xE5 SHL DUP2 MSTORE PUSH1 0x20 PUSH1 0x4 DUP3 ADD MSTORE PUSH1 0x25 PUSH1 0x24 DUP3 ADD MSTORE PUSH32 0x4E6F742065787069726564207265717565737420766572696669636174696F6E PUSH1 0x44 DUP3 ADD MSTORE PUSH5 0x2074696D65 PUSH1 0xD8 SHL PUSH1 0x64 DUP3 ADD MSTORE PUSH1 0x84 ADD PUSH2 0x48F JUMP JUMPDEST PUSH1 0x2 DUP4 DUP4 PUSH1 0x40 MLOAD PUSH2 0xC41 SWAP3 SWAP2 SWAP1 PUSH2 0xF81 JUMP JUMPDEST SWAP1 DUP2 MSTORE PUSH1 0x40 MLOAD SWAP1 DUP2 SWAP1 SUB PUSH1 0x20 ADD SWAP1 KECCAK256 DUP1 SLOAD PUSH1 0x1 PUSH1 0x1 PUSH1 0xA0 SHL SUB NOT AND DUP2 SSTORE PUSH0 PUSH1 0x1 DUP3 ADD DUP2 SWAP1 SSTORE PUSH1 0x2 DUP3 ADD SSTORE PUSH1 0x3 ADD DUP1 SLOAD PUSH1 0xFF NOT AND SWAP1 SSTORE POP POP POP JUMP JUMPDEST PUSH0 DUP1 DUP4 PUSH1 0x1F DUP5 ADD SLT PUSH2 0xC8B JUMPI PUSH0 DUP1 REVERT JUMPDEST POP DUP2 CALLDATALOAD PUSH8 0xFFFFFFFFFFFFFFFF DUP2 GT ISZERO PUSH2 0xCA2 JUMPI PUSH0 DUP1 REVERT JUMPDEST PUSH1 0x20 DUP4 ADD SWAP2 POP DUP4 PUSH1 0x20 DUP3 DUP6 ADD ADD GT ISZERO PUSH2 0x37D JUMPI PUSH0 DUP1 REVERT JUMPDEST PUSH0 DUP1 PUSH1 0x20 DUP4 DUP6 SUB SLT ISZERO PUSH2 0xCCA JUMPI PUSH0 DUP1 REVERT JUMPDEST DUP3 CALLDATALOAD PUSH8 0xFFFFFFFFFFFFFFFF DUP2 GT ISZERO PUSH2 0xCE0 JUMPI PUSH0 DUP1 REVERT JUMPDEST PUSH2 0xCEC DUP6 DUP3 DUP7 ADD PUSH2 0xC7B JUMP JUMPDEST SWAP1 SWAP7 SWAP1 SWAP6 POP SWAP4 POP POP POP POP JUMP JUMPDEST PUSH1 0x40 DUP2 MSTORE PUSH0 DUP4 MLOAD DUP1 PUSH1 0x40 DUP5 ADD MSTORE PUSH0 JUMPDEST DUP2 DUP2 LT ISZERO PUSH2 0xD24 JUMPI PUSH1 0x20 DUP2 DUP8 ADD DUP2 ADD MLOAD PUSH1 0x60 DUP7 DUP5 ADD ADD MSTORE ADD PUSH2 0xD07 JUMP JUMPDEST POP PUSH0 PUSH1 0x60 DUP3 DUP6 ADD ADD MSTORE PUSH1 0x60 PUSH1 0x1F NOT PUSH1 0x1F DUP4 ADD AND DUP5 ADD ADD SWAP2 POP POP DUP3 PUSH1 0x20 DUP4 ADD MSTORE SWAP4 SWAP3 POP POP POP JUMP JUMPDEST PUSH4 0x4E487B71 PUSH1 0xE0 SHL PUSH0 MSTORE PUSH1 0x41 PUSH1 0x4 MSTORE PUSH1 0x24 PUSH0 REVERT JUMPDEST PUSH0 DUP3 PUSH1 0x1F DUP4 ADD SLT PUSH2 0xD6D JUMPI PUSH0 DUP1 REVERT JUMPDEST DUP2 CALLDATALOAD PUSH8 0xFFFFFFFFFFFFFFFF DUP1 DUP3 GT ISZERO PUSH2 0xD88 JUMPI PUSH2 0xD88 PUSH2 0xD4A JUMP JUMPDEST PUSH1 0x40 MLOAD PUSH1 0x1F DUP4 ADD PUSH1 0x1F NOT SWAP1 DUP2 AND PUSH1 0x3F ADD AND DUP2 ADD SWAP1 DUP3 DUP3 GT DUP2 DUP4 LT OR ISZERO PUSH2 0xDB0 JUMPI PUSH2 0xDB0 PUSH2 0xD4A JUMP JUMPDEST DUP2 PUSH1 0x40 MSTORE DUP4 DUP2 MSTORE DUP7 PUSH1 0x20 DUP6 DUP9 ADD ADD GT ISZERO PUSH2 0xDC8 JUMPI PUSH0 DUP1 REVERT JUMPDEST DUP4 PUSH1 0x20 DUP8 ADD PUSH1 0x20 DUP4 ADD CALLDATACOPY PUSH0 PUSH1 0x20 DUP6 DUP4 ADD ADD MSTORE DUP1 SWAP5 POP POP POP POP POP SWAP3 SWAP2 POP POP JUMP JUMPDEST PUSH0 PUSH1 0x20 DUP3 DUP5 SUB SLT ISZERO PUSH2 0xDF7 JUMPI PUSH0 DUP1 REVERT JUMPDEST DUP2 CALLDATALOAD PUSH8 0xFFFFFFFFFFFFFFFF DUP2 GT ISZERO PUSH2 0xE0D JUMPI PUSH0 DUP1 REVERT JUMPDEST PUSH2 0xE19 DUP5 DUP3 DUP6 ADD PUSH2 0xD5E JUMP JUMPDEST SWAP5 SWAP4 POP POP POP POP JUMP JUMPDEST DUP1 CALLDATALOAD PUSH1 0x1 PUSH1 0x1 PUSH1 0xA0 SHL SUB DUP2 AND DUP2 EQ PUSH2 0xE37 JUMPI PUSH0 DUP1 REVERT JUMPDEST SWAP2 SWAP1 POP JUMP JUMPDEST PUSH0 PUSH1 0x20 DUP3 DUP5 SUB SLT ISZERO PUSH2 0xE4C JUMPI PUSH0 DUP1 REVERT JUMPDEST PUSH2 0xE55 DUP3 PUSH2 0xE21 JUMP JUMPDEST SWAP4 SWAP3 POP POP POP JUMP JUMPDEST PUSH0 DUP1 PUSH0 PUSH1 0x40 DUP5 DUP7 SUB SLT ISZERO PUSH2 0xE6E JUMPI PUSH0 DUP1 REVERT JUMPDEST DUP4 CALLDATALOAD PUSH8 0xFFFFFFFFFFFFFFFF DUP2 GT ISZERO PUSH2 0xE84 JUMPI PUSH0 DUP1 REVERT JUMPDEST PUSH2 0xE90 DUP7 DUP3 DUP8 ADD PUSH2 0xC7B JUMP JUMPDEST SWAP1 SWAP8 SWAP1 SWAP7 POP PUSH1 0x20 SWAP6 SWAP1 SWAP6 ADD CALLDATALOAD SWAP5 SWAP4 POP POP POP POP JUMP JUMPDEST PUSH0 DUP1 PUSH0 DUP1 PUSH1 0x40 DUP6 DUP8 SUB SLT ISZERO PUSH2 0xEB7 JUMPI PUSH0 DUP1 REVERT JUMPDEST DUP5 CALLDATALOAD PUSH8 0xFFFFFFFFFFFFFFFF DUP1 DUP3 GT ISZERO PUSH2 0xECE JUMPI PUSH0 DUP1 REVERT JUMPDEST PUSH2 0xEDA DUP9 DUP4 DUP10 ADD PUSH2 0xC7B JUMP JUMPDEST SWAP1 SWAP7 POP SWAP5 POP PUSH1 0x20 DUP8 ADD CALLDATALOAD SWAP2 POP DUP1 DUP3 GT ISZERO PUSH2 0xEF2 JUMPI PUSH0 DUP1 REVERT JUMPDEST DUP2 DUP8 ADD SWAP2 POP DUP8 PUSH1 0x1F DUP4 ADD SLT PUSH2 0xF05 JUMPI PUSH0 DUP1 REVERT JUMPDEST DUP2 CALLDATALOAD DUP2 DUP2 GT ISZERO PUSH2 0xF13 JUMPI PUSH0 DUP1 REVERT JUMPDEST DUP9 PUSH1 0x20 DUP3 PUSH1 0x5 SHL DUP6 ADD ADD GT ISZERO PUSH2 0xF27 JUMPI PUSH0 DUP1 REVERT JUMPDEST SWAP6 SWAP9 SWAP5 SWAP8 POP POP PUSH1 0x20 ADD SWAP5 POP POP POP JUMP JUMPDEST PUSH0 DUP1 PUSH1 0x40 DUP4 DUP6 SUB SLT ISZERO PUSH2 0xF47 JUMPI PUSH0 DUP1 REVERT JUMPDEST DUP3 CALLDATALOAD PUSH8 0xFFFFFFFFFFFFFFFF DUP2 GT ISZERO PUSH2 0xF5D JUMPI PUSH0 DUP1 REVERT JUMPDEST PUSH2 0xF69 DUP6 DUP3 DUP7 ADD PUSH2 0xD5E JUMP JUMPDEST SWAP3 POP POP PUSH2 0xF78 PUSH1 0x20 DUP5 ADD PUSH2 0xE21 JUMP JUMPDEST SWAP1 POP SWAP3 POP SWAP3 SWAP1 POP JUMP JUMPDEST DUP2 DUP4 DUP3 CALLDATACOPY PUSH0 SWAP2 ADD SWAP1 DUP2 MSTORE SWAP2 SWAP1 POP JUMP JUMPDEST PUSH1 0x1 DUP2 DUP2 SHR SWAP1 DUP3 AND DUP1 PUSH2 0xFA4 JUMPI PUSH1 0x7F DUP3 AND SWAP2 POP JUMPDEST PUSH1 0x20 DUP3 LT DUP2 SUB PUSH2 0xFC2 JUMPI PUSH4 0x4E487B71 PUSH1 0xE0 SHL PUSH0 MSTORE PUSH1 0x22 PUSH1 0x4 MSTORE PUSH1 0x24 PUSH0 REVERT JUMPDEST POP SWAP2 SWAP1 POP JUMP JUMPDEST DUP1 DUP3 ADD DUP1 DUP3 GT ISZERO PUSH2 0xFE7 JUMPI PUSH4 0x4E487B71 PUSH1 0xE0 SHL PUSH0 MSTORE PUSH1 0x11 PUSH1 0x4 MSTORE PUSH1 0x24 PUSH0 REVERT JUMPDEST SWAP3 SWAP2 POP POP JUMP JUMPDEST DUP2 DUP4 MSTORE DUP2 DUP2 PUSH1 0x20 DUP6 ADD CALLDATACOPY POP PUSH0 DUP3 DUP3 ADD PUSH1 0x20 SWAP1 DUP2 ADD SWAP2 SWAP1 SWAP2 MSTORE PUSH1 0x1F SWAP1 SWAP2 ADD PUSH1 0x1F NOT AND SWAP1 SWAP2 ADD ADD SWAP1 JUMP JUMPDEST PUSH1 0x40 DUP2 MSTORE PUSH0 PUSH2 0x1028 PUSH1 0x40 DUP4 ADD DUP6 DUP8 PUSH2 0xFED JUMP JUMPDEST SWAP1 POP DUP3 ISZERO ISZERO PUSH1 0x20 DUP4 ADD MSTORE SWAP5 SWAP4 POP POP POP POP JUMP JUMPDEST PUSH1 0x1F DUP3 GT ISZERO PUSH2 0x107E JUMPI DUP1 PUSH0 MSTORE PUSH1 0x20 PUSH0 KECCAK256 PUSH1 0x1F DUP5 ADD PUSH1 0x5 SHR DUP2 ADD PUSH1 0x20 DUP6 LT ISZERO PUSH2 0x105F JUMPI POP DUP1 JUMPDEST PUSH1 0x1F DUP5 ADD PUSH1 0x5 SHR DUP3 ADD SWAP2 POP JUMPDEST DUP2 DUP2 LT ISZERO PUSH2 0x989 JUMPI PUSH0 DUP2 SSTORE PUSH1 0x1 ADD PUSH2 0x106B JUMP JUMPDEST POP POP POP JUMP JUMPDEST DUP2 MLOAD PUSH8 0xFFFFFFFFFFFFFFFF DUP2 GT ISZERO PUSH2 0x109D JUMPI PUSH2 0x109D PUSH2 0xD4A JUMP JUMPDEST PUSH2 0x10B1 DUP2 PUSH2 0x10AB DUP5 SLOAD PUSH2 0xF90 JUMP JUMPDEST DUP5 PUSH2 0x103A JUMP JUMPDEST PUSH1 0x20 DUP1 PUSH1 0x1F DUP4 GT PUSH1 0x1 DUP2 EQ PUSH2 0x10E4 JUMPI PUSH0 DUP5 ISZERO PUSH2 0x10CD JUMPI POP DUP6 DUP4 ADD MLOAD JUMPDEST PUSH0 NOT PUSH1 0x3 DUP7 SWAP1 SHL SHR NOT AND PUSH1 0x1 DUP6 SWAP1 SHL OR DUP6 SSTORE PUSH2 0x113B JUMP JUMPDEST PUSH0 DUP6 DUP2 MSTORE PUSH1 0x20 DUP2 KECCAK256 PUSH1 0x1F NOT DUP7 AND SWAP2 JUMPDEST DUP3 DUP2 LT ISZERO PUSH2 0x1112 JUMPI DUP9 DUP7 ADD MLOAD DUP3 SSTORE SWAP5 DUP5 ADD SWAP5 PUSH1 0x1 SWAP1 SWAP2 ADD SWAP1 DUP5 ADD PUSH2 0x10F3 JUMP JUMPDEST POP DUP6 DUP3 LT ISZERO PUSH2 0x112F JUMPI DUP8 DUP6 ADD MLOAD PUSH0 NOT PUSH1 0x3 DUP9 SWAP1 SHL PUSH1 0xF8 AND SHR NOT AND DUP2 SSTORE JUMPDEST POP POP PUSH1 0x1 DUP5 PUSH1 0x1 SHL ADD DUP6 SSTORE JUMPDEST POP POP POP POP POP POP JUMP JUMPDEST PUSH0 DUP3 PUSH2 0x115D JUMPI PUSH4 0x4E487B71 PUSH1 0xE0 SHL PUSH0 MSTORE PUSH1 0x12 PUSH1 0x4 MSTORE PUSH1 0x24 PUSH0 REVERT JUMPDEST POP DIV SWAP1 JUMP JUMPDEST PUSH4 0x4E487B71 PUSH1 0xE0 SHL PUSH0 MSTORE PUSH1 0x32 PUSH1 0x4 MSTORE PUSH1 0x24 PUSH0 REVERT JUMPDEST PUSH1 0x60 DUP2 MSTORE PUSH0 PUSH2 0x1189 PUSH1 0x60 DUP4 ADD DUP8 DUP10 PUSH2 0xFED JUMP JUMPDEST PUSH1 0x20 DUP4 DUP3 SUB DUP2 DUP6 ADD MSTORE DUP2 DUP7 DUP4 MSTORE DUP2 DUP4 ADD SWAP1 POP DUP2 DUP8 PUSH1 0x5 SHL DUP5 ADD ADD DUP9 PUSH0 JUMPDEST DUP10 DUP2 LT ISZERO PUSH2 0x1213 JUMPI DUP6 DUP4 SUB PUSH1 0x1F NOT ADD DUP5 MSTORE DUP2 CALLDATALOAD CALLDATASIZE DUP13 SWAP1 SUB PUSH1 0x1E NOT ADD DUP2 SLT PUSH2 0x11CB JUMPI PUSH0 DUP1 REVERT JUMPDEST DUP12 ADD DUP6 DUP2 ADD SWAP1 CALLDATALOAD PUSH8 0xFFFFFFFFFFFFFFFF DUP2 GT ISZERO PUSH2 0x11E6 JUMPI PUSH0 DUP1 REVERT JUMPDEST DUP1 CALLDATASIZE SUB DUP3 SGT ISZERO PUSH2 0x11F4 JUMPI PUSH0 DUP1 REVERT JUMPDEST PUSH2 0x11FF DUP6 DUP3 DUP5 PUSH2 0xFED JUMP JUMPDEST SWAP6 DUP8 ADD SWAP6 SWAP5 POP POP POP SWAP1 DUP5 ADD SWAP1 PUSH1 0x1 ADD PUSH2 0x11A6 JUMP JUMPDEST POP POP PUSH1 0x1 PUSH1 0x1 PUSH1 0xA0 SHL SUB DUP8 AND PUSH1 0x40 DUP8 ADD MSTORE SWAP4 POP PUSH2 0x122F SWAP3 POP POP POP JUMP JUMPDEST SWAP7 SWAP6 POP POP POP POP POP POP JUMP INVALID LOG2 PUSH5 0x6970667358 0x22 SLT KECCAK256 REVERT 0xC SELFDESTRUCT 0xC6 0xEC DUP1 SWAP4 SWAP6 0xCB 0xE9 PUSH6 0x97BEC8B15DFA PUSH32 0x3AD06354405647CDB0E4AFD6E5AA64736F6C6343000818003300000000000000 "},"methodIdentifiers":{"REQUIRED_CONSENSUS()":"1981dbbd","VERIFICATION_TIMEOUT()":"1e1d6e1d","authorizedNodes(address)":"7e53a740","claimRefund(string)":"4e8b87fe","cleanIsNotProcessedRequest(string)":"9f8910f0","getRequestDetails(string)":"2bf4b910","hasVoted(string,address)":"9af06cd9","requests(string)":"692d51d2","results(string)":"4b13d17d","submitHtmlRoot(string,bytes32)":"83a00019","submitRequest(string,string[])":"85810ba3"}}}}}