{"project/src/contracts/OpenSEO.sol":{"OpenSEO":{"abi":[{"inputs":[{"internalType":"address[3]","name":"_nodes","type":"address[3]"}],"stateMutability":"nonpayable","type":"constructor"},{"anonymous":false,"inputs":[{"indexed":false,"internalType":"string","name":"cid","type":"string"},{"indexed":false,"internalType":"bool","name":"success","type":"bool"}],"name":"RequestCompleted","type":"event"},{"anonymous":false,"inputs":[{"indexed":false,"internalType":"string","name":"cid","type":"string"},{"indexed":false,"internalType":"string[]","name":"keywords","type":"string[]"},{"indexed":false,"internalType":"address","name":"owner","type":"address"}],"name":"VerificationRequested","type":"event"},{"inputs":[],"name":"REQUIRED_CONSENSUS","outputs":[{"internalType":"uint256","name":"","type":"uint256"}],"stateMutability":"view","type":"function"},{"inputs":[],"name":"VERIFICATION_TIMEOUT","outputs":[{"internalType":"uint256","name":"","type":"uint256"}],"stateMutability":"view","type":"function"},{"inputs":[{"internalType":"address","name":"","type":"address"}],"name":"authorizedNodes","outputs":[{"internalType":"bool","name":"","type":"bool"}],"stateMutability":"view","type":"function"},{"inputs":[{"internalType":"string","name":"","type":"string"},{"internalType":"bytes32","name":"","type":"bytes32"},{"internalType":"uint256","name":"","type":"uint256"}],"name":"cidRootVotes","outputs":[{"internalType":"address","name":"","type":"address"}],"stateMutability":"view","type":"function"},{"inputs":[{"internalType":"string","name":"cid","type":"string"}],"name":"claimRefund","outputs":[],"stateMutability":"nonpayable","type":"function"},{"inputs":[{"internalType":"string","name":"cid","type":"string"}],"name":"cleanIsNotProcessedRequest","outputs":[],"stateMutability":"nonpayable","type":"function"},{"inputs":[{"internalType":"string","name":"cid","type":"string"}],"name":"getRequestDetails","outputs":[{"internalType":"string","name":"CID","type":"string"},{"internalType":"bytes32","name":"resultRoot","type":"bytes32"}],"stateMutability":"view","type":"function"},{"inputs":[{"internalType":"string","name":"","type":"string"},{"internalType":"address","name":"","type":"address"}],"name":"hasVoted","outputs":[{"internalType":"bool","name":"","type":"bool"}],"stateMutability":"view","type":"function"},{"inputs":[{"internalType":"string","name":"","type":"string"}],"name":"requests","outputs":[{"internalType":"address","name":"owner","type":"address"},{"internalType":"uint256","name":"timestamp","type":"uint256"},{"internalType":"uint256","name":"paymentAmount","type":"uint256"},{"internalType":"bool","name":"isProcessed","type":"bool"}],"stateMutability":"view","type":"function"},{"inputs":[{"internalType":"string","name":"","type":"string"}],"name":"results","outputs":[{"internalType":"string","name":"cid","type":"string"},{"internalType":"bytes32","name":"resultRoot","type":"bytes32"}],"stateMutability":"view","type":"function"},{"inputs":[{"internalType":"string","name":"cid","type":"string"},{"internalType":"bytes32","name":"htmlRoot","type":"bytes32"}],"name":"submitHtmlRoot","outputs":[],"stateMutability":"nonpayable","type":"function"},{"inputs":[{"internalType":"string","name":"cid","type":"string"},{"internalType":"string[]","name":"keywords","type":"string[]"}],"name":"submitRequest","outputs":[],"stateMutability":"payable","type":"function"}],"evm":{"bytecode":{"linkReferences":{},"object":"608060405234801562000010575f80fd5b506040516200156c3803806200156c8339810160408190526200003391620000b4565b5f5b6003811015620000905760015f8084846003811062000058576200005862000148565b602090810291909101516001600160a01b031682528101919091526040015f20805460ff191691151591909117905560010162000035565b50506200015c565b80516001600160a01b0381168114620000af575f80fd5b919050565b5f60608284031215620000c5575f80fd5b82601f830112620000d4575f80fd5b604051606081016001600160401b03811182821017156200010357634e487b7160e01b5f52604160045260245ffd5b60405280606084018581111562000118575f80fd5b845b818110156200013d576200012e8162000098565b8352602092830192016200011a565b509195945050505050565b634e487b7160e01b5f52603260045260245ffd5b611402806200016a5f395ff3fe6080604052600436106100a5575f3560e01c80637e53a740116100625780637e53a740146101da57806383a000191461021857806385810ba3146102375780639af06cd91461024a5780639f8910f014610293578063fc28b0d8146102b2575f80fd5b80631981dbbd146100a95780631e1d6e1d146100d05780632bf4b910146100e55780634b13d17d146101125780634e8b87fe14610131578063692d51d214610152575b5f80fd5b3480156100b4575f80fd5b506100bd600281565b6040519081526020015b60405180910390f35b3480156100db575f80fd5b506100bd61012c81565b3480156100f0575f80fd5b506101046100ff366004610e02565b6102e9565b6040516100c7929190610e41565b34801561011d575f80fd5b5061010461012c366004610f30565b6103c6565b34801561013c575f80fd5b5061015061014b366004610e02565b610473565b005b34801561015d575f80fd5b506101ae61016c366004610f30565b80516020818301810180516002808352938301929094019190912092905281546001830154918301546003909301546001600160a01b03909116929060ff1684565b604080516001600160a01b039095168552602085019390935291830152151560608201526080016100c7565b3480156101e5575f80fd5b506102086101f4366004610f85565b5f6020819052908152604090205460ff1681565b60405190151581526020016100c7565b348015610223575f80fd5b50610150610232366004610fa5565b610641565b610150610245366004610fed565b610a2f565b348015610255575f80fd5b5061020861026436600461107f565b81516020818401810180516004825292820194820194909420919093529091525f908152604090205460ff1681565b34801561029e575f80fd5b506101506102ad366004610e02565b610bc6565b3480156102bd575f80fd5b506102d16102cc3660046110ca565b610d78565b6040516001600160a01b0390911681526020016100c7565b60605f80600185856040516102ff929190611114565b90815260200160405180910390206040518060400160405290815f8201805461032790611123565b80601f016020809104026020016040519081016040528092919081815260200182805461035390611123565b801561039e5780601f106103755761010080835404028352916020019161039e565b820191905f5260205f20905b81548152906001019060200180831161038157829003601f168201915b50505091835250506001919091015460209182015281519101519093509150505b9250929050565b80516020818301810180516001825292820191909301209152805481906103ec90611123565b80601f016020809104026020016040519081016040528092919081815260200182805461041890611123565b80156104635780601f1061043a57610100808354040283529160200191610463565b820191905f5260205f20905b81548152906001019060200180831161044657829003601f168201915b5050505050908060010154905082565b5f60028383604051610486929190611114565b908152602001604051809103902090505f8160020154116104da5760405162461bcd60e51b8152602060048201526009602482015268139bdd08199bdd5b9960ba1b60448201526064015b60405180910390fd5b600381015460ff16156105235760405162461bcd60e51b8152602060048201526011602482015270105b1c9958591e481c1c9bd8d95cdcd959607a1b60448201526064016104d1565b61012c8160010154610535919061115b565b42116105725760405162461bcd60e51b815260206004820152600c60248201526b15d85a5d081d1a5b595bdd5d60a21b60448201526064016104d1565b80546001600160a01b031633146105b75760405162461bcd60e51b81526020600482015260096024820152682737ba1037bbb732b960b91b60448201526064016104d1565b60038101805460ff19166001179055805460028201546040516001600160a01b039092169181156108fc0291905f818181858888f19350505050158015610600573d5f803e3d5ffd5b507f94563d730336ff32b7d62d92eaa0c450b413cb41d4b41936df4d5536232b4b4983835f604051610634939291906111a8565b60405180910390a1505050565b335f9081526020819052604090205460ff1661068e5760405162461bcd60e51b815260206004820152600c60248201526b155b985d5d1a1bdc9a5e995960a21b60448201526064016104d1565b5f600284846040516106a1929190611114565b908152602001604051809103902090505f8160020154116106f85760405162461bcd60e51b815260206004820152601160248201527014995c5d595cdd081b9bdd08199bdd5b99607a1b60448201526064016104d1565b600381015460ff16156107415760405162461bcd60e51b815260206004820152601160248201527014995c5d595cdd081c1c9bd8d95cdcd959607a1b60448201526064016104d1565b60048484604051610753929190611114565b9081526040805160209281900383019020335f908152925290205460ff16156107a65760405162461bcd60e51b8152602060048201526005602482015264159bdd195960da1b60448201526064016104d1565b6001600485856040516107ba929190611114565b9081526040805160209281900383018120335f90815293529120805460ff1916921515929092179091556003906107f49086908690611114565b9081526040805191829003602090810183205f86815290825291822080546001810182559083529082200180546001600160a01b03191633179055906003906108409087908790611114565b90815260408051602092819003830190205f8681529252902054905060028110610a285760038201805460ff191660011790556040805160606020601f880181900402820181018352918101868152909182919088908890819085018382808284375f920191909152505050908252506020018490526040516001906108c99088908890611114565b908152604051908190036020019020815181906108e69082611216565b50602082015181600101559050505f60038686604051610907929190611114565b9081526040805191829003602090810183205f888152908252829020805480830285018301909352828452919083018282801561096b57602002820191905f5260205f20905b81546001600160a01b0316815260019091019060200180831161094d575b505050505090505f82846002015461098391906112d6565b90505f5b82518110156109e8578281815181106109a2576109a26112f5565b60200260200101516001600160a01b03166108fc8390811502906040515f60405180830381858888f193505050501580156109df573d5f803e3d5ffd5b50600101610987565b507f94563d730336ff32b7d62d92eaa0c450b413cb41d4b41936df4d5536232b4b4987876001604051610a1d939291906111a8565b60405180910390a150505b5050505050565b5f3411610a7e5760405162461bcd60e51b815260206004820152601760248201527f5061796d656e7420616d6f756e7420726571756972656400000000000000000060448201526064016104d1565b5f60028585604051610a91929190611114565b908152602001604051809103902090505f81600201541115610af957600381015460ff16610af95760405162461bcd60e51b815260206004820152601560248201527441637469766520726571756573742065786973747360581b60448201526064016104d1565b6040805160808101825233815242602082015234818301525f60608201529051600290610b299088908890611114565b9081526040805160209281900383018120845181546001600160a01b0319166001600160a01b039091161781559284015160018401559083015160028301556060909201516003909101805460ff19169115159190911790557ff5af9e5ebdd1fa9d6b7605d73ac037435203aca5814494c564f48583ae8a78f890610bb79087908790879087903390611309565b60405180910390a15050505050565b335f9081526020819052604090205460ff16610c135760405162461bcd60e51b815260206004820152600c60248201526b155b985d5d1a1bdc9a5e995960a21b60448201526064016104d1565b5f60028383604051610c26929190611114565b908152602001604051809103902090505f816002015411610c7d5760405162461bcd60e51b815260206004820152601160248201527014995c5d595cdd081b9bdd08199bdd5b99607a1b60448201526064016104d1565b600381015460ff1615610cbe5760405162461bcd60e51b8152602060048201526009602482015268141c9bd8d95cdcd95960ba1b60448201526064016104d1565b61012c8160010154610cd0919061115b565b4211610d2c5760405162461bcd60e51b815260206004820152602560248201527f4e6f742065787069726564207265717565737420766572696669636174696f6e6044820152642074696d6560d81b60648201526084016104d1565b60028383604051610d3e929190611114565b90815260405190819003602001902080546001600160a01b03191681555f600182018190556002820155600301805460ff19169055505050565b82516020818501810180516003825292820182870120929052525f82815260409020805482908110610da8575f80fd5b5f918252602090912001546001600160a01b0316925083915050565b5f8083601f840112610dd4575f80fd5b50813567ffffffffffffffff811115610deb575f80fd5b6020830191508360208285010111156103bf575f80fd5b5f8060208385031215610e13575f80fd5b823567ffffffffffffffff811115610e29575f80fd5b610e3585828601610dc4565b90969095509350505050565b604081525f83518060408401525f5b81811015610e6d5760208187018101516060868401015201610e50565b505f606082850101526060601f19601f8301168401019150508260208301529392505050565b634e487b7160e01b5f52604160045260245ffd5b5f82601f830112610eb6575f80fd5b813567ffffffffffffffff80821115610ed157610ed1610e93565b604051601f8301601f19908116603f01168101908282118183101715610ef957610ef9610e93565b81604052838152866020858801011115610f11575f80fd5b836020870160208301375f602085830101528094505050505092915050565b5f60208284031215610f40575f80fd5b813567ffffffffffffffff811115610f56575f80fd5b610f6284828501610ea7565b949350505050565b80356001600160a01b0381168114610f80575f80fd5b919050565b5f60208284031215610f95575f80fd5b610f9e82610f6a565b9392505050565b5f805f60408486031215610fb7575f80fd5b833567ffffffffffffffff811115610fcd575f80fd5b610fd986828701610dc4565b909790965060209590950135949350505050565b5f805f8060408587031215611000575f80fd5b843567ffffffffffffffff80821115611017575f80fd5b61102388838901610dc4565b9096509450602087013591508082111561103b575f80fd5b818701915087601f83011261104e575f80fd5b81358181111561105c575f80fd5b8860208260051b8501011115611070575f80fd5b95989497505060200194505050565b5f8060408385031215611090575f80fd5b823567ffffffffffffffff8111156110a6575f80fd5b6110b285828601610ea7565b9250506110c160208401610f6a565b90509250929050565b5f805f606084860312156110dc575f80fd5b833567ffffffffffffffff8111156110f2575f80fd5b6110fe86828701610ea7565b9660208601359650604090950135949350505050565b818382375f9101908152919050565b600181811c9082168061113757607f821691505b60208210810361115557634e487b7160e01b5f52602260045260245ffd5b50919050565b8082018082111561117a57634e487b7160e01b5f52601160045260245ffd5b92915050565b81835281816020850137505f828201602090810191909152601f909101601f19169091010190565b604081525f6111bb604083018587611180565b90508215156020830152949350505050565b601f82111561121157805f5260205f20601f840160051c810160208510156111f25750805b601f840160051c820191505b81811015610a28575f81556001016111fe565b505050565b815167ffffffffffffffff81111561123057611230610e93565b6112448161123e8454611123565b846111cd565b602080601f831160018114611277575f84156112605750858301515b5f19600386901b1c1916600185901b1785556112ce565b5f85815260208120601f198616915b828110156112a557888601518255948401946001909101908401611286565b50858210156112c257878501515f19600388901b60f8161c191681555b505060018460011b0185555b505050505050565b5f826112f057634e487b7160e01b5f52601260045260245ffd5b500490565b634e487b7160e01b5f52603260045260245ffd5b606081525f61131c606083018789611180565b602083820381850152818683528183019050818760051b840101885f5b898110156113a657858303601f190184528135368c9003601e1901811261135e575f80fd5b8b01858101903567ffffffffffffffff811115611379575f80fd5b803603821315611387575f80fd5b611392858284611180565b958701959450505090840190600101611339565b50506001600160a01b038716604087015293506113c292505050565b969550505050505056fea26469706673582212201bcf8541559ff98a42589e04cb2bd8e1fb2188b11034942657f0f7ecf40f3b7164736f6c63430008180033","opcodes":"PUSH1 0x80 PUSH1 0x40 MSTORE CALLVALUE DUP1 ISZERO PUSH3 0x10 JUMPI PUSH0 DUP1 REVERT JUMPDEST POP PUSH1 0x40 MLOAD PUSH3 0x156C CODESIZE SUB DUP1 PUSH3 0x156C DUP4 CODECOPY DUP2 ADD PUSH1 0x40 DUP2 SWAP1 MSTORE PUSH3 0x33 SWAP2 PUSH3 0xB4 JUMP JUMPDEST PUSH0 JUMPDEST PUSH1 0x3 DUP2 LT ISZERO PUSH3 0x90 JUMPI PUSH1 0x1 PUSH0 DUP1 DUP5 DUP5 PUSH1 0x3 DUP2 LT PUSH3 0x58 JUMPI PUSH3 0x58 PUSH3 0x148 JUMP JUMPDEST PUSH1 0x20 SWAP1 DUP2 MUL SWAP2 SWAP1 SWAP2 ADD MLOAD PUSH1 0x1 PUSH1 0x1 PUSH1 0xA0 SHL SUB AND DUP3 MSTORE DUP2 ADD SWAP2 SWAP1 SWAP2 MSTORE PUSH1 0x40 ADD PUSH0 KECCAK256 DUP1 SLOAD PUSH1 0xFF NOT AND SWAP2 ISZERO ISZERO SWAP2 SWAP1 SWAP2 OR SWAP1 SSTORE PUSH1 0x1 ADD PUSH3 0x35 JUMP JUMPDEST POP POP PUSH3 0x15C JUMP JUMPDEST DUP1 MLOAD PUSH1 0x1 PUSH1 0x1 PUSH1 0xA0 SHL SUB DUP2 AND DUP2 EQ PUSH3 0xAF JUMPI PUSH0 DUP1 REVERT JUMPDEST SWAP2 SWAP1 POP JUMP JUMPDEST PUSH0 PUSH1 0x60 DUP3 DUP5 SUB SLT ISZERO PUSH3 0xC5 JUMPI PUSH0 DUP1 REVERT JUMPDEST DUP3 PUSH1 0x1F DUP4 ADD SLT PUSH3 0xD4 JUMPI PUSH0 DUP1 REVERT JUMPDEST PUSH1 0x40 MLOAD PUSH1 0x60 DUP2 ADD PUSH1 0x1 PUSH1 0x1 PUSH1 0x40 SHL SUB DUP2 GT DUP3 DUP3 LT OR ISZERO PUSH3 0x103 JUMPI PUSH4 0x4E487B71 PUSH1 0xE0 SHL PUSH0 MSTORE PUSH1 0x41 PUSH1 0x4 MSTORE PUSH1 0x24 PUSH0 REVERT JUMPDEST PUSH1 0x40 MSTORE DUP1 PUSH1 0x60 DUP5 ADD DUP6 DUP2 GT ISZERO PUSH3 0x118 JUMPI PUSH0 DUP1 REVERT JUMPDEST DUP5 JUMPDEST DUP2 DUP2 LT ISZERO PUSH3 0x13D JUMPI PUSH3 0x12E DUP2 PUSH3 0x98 JUMP JUMPDEST DUP4 MSTORE PUSH1 0x20 SWAP3 DUP4 ADD SWAP3 ADD PUSH3 0x11A JUMP JUMPDEST POP SWAP2 SWAP6 SWAP5 POP POP POP POP POP JUMP JUMPDEST PUSH4 0x4E487B71 PUSH1 0xE0 SHL PUSH0 MSTORE PUSH1 0x32 PUSH1 0x4 MSTORE PUSH1 0x24 PUSH0 REVERT JUMPDEST PUSH2 0x1402 DUP1 PUSH3 0x16A PUSH0 CODECOPY PUSH0 RETURN INVALID PUSH1 0x80 PUSH1 0x40 MSTORE PUSH1 0x4 CALLDATASIZE LT PUSH2 0xA5 JUMPI PUSH0 CALLDATALOAD PUSH1 0xE0 SHR DUP1 PUSH4 0x7E53A740 GT PUSH2 0x62 JUMPI DUP1 PUSH4 0x7E53A740 EQ PUSH2 0x1DA JUMPI DUP1 PUSH4 0x83A00019 EQ PUSH2 0x218 JUMPI DUP1 PUSH4 0x85810BA3 EQ PUSH2 0x237 JUMPI DUP1 PUSH4 0x9AF06CD9 EQ PUSH2 0x24A JUMPI DUP1 PUSH4 0x9F8910F0 EQ PUSH2 0x293 JUMPI DUP1 PUSH4 0xFC28B0D8 EQ PUSH2 0x2B2 JUMPI PUSH0 DUP1 REVERT JUMPDEST DUP1 PUSH4 0x1981DBBD EQ PUSH2 0xA9 JUMPI DUP1 PUSH4 0x1E1D6E1D EQ PUSH2 0xD0 JUMPI DUP1 PUSH4 0x2BF4B910 EQ PUSH2 0xE5 JUMPI DUP1 PUSH4 0x4B13D17D EQ PUSH2 0x112 JUMPI DUP1 PUSH4 0x4E8B87FE EQ PUSH2 0x131 JUMPI DUP1 PUSH4 0x692D51D2 EQ PUSH2 0x152 JUMPI JUMPDEST PUSH0 DUP1 REVERT JUMPDEST CALLVALUE DUP1 ISZERO PUSH2 0xB4 JUMPI PUSH0 DUP1 REVERT JUMPDEST POP PUSH2 0xBD PUSH1 0x2 DUP2 JUMP JUMPDEST PUSH1 0x40 MLOAD SWAP1 DUP2 MSTORE PUSH1 0x20 ADD JUMPDEST PUSH1 0x40 MLOAD DUP1 SWAP2 SUB SWAP1 RETURN JUMPDEST CALLVALUE DUP1 ISZERO PUSH2 0xDB JUMPI PUSH0 DUP1 REVERT JUMPDEST POP PUSH2 0xBD PUSH2 0x12C DUP2 JUMP JUMPDEST CALLVALUE DUP1 ISZERO PUSH2 0xF0 JUMPI PUSH0 DUP1 REVERT JUMPDEST POP PUSH2 0x104 PUSH2 0xFF CALLDATASIZE PUSH1 0x4 PUSH2 0xE02 JUMP JUMPDEST PUSH2 0x2E9 JUMP JUMPDEST PUSH1 0x40 MLOAD PUSH2 0xC7 SWAP3 SWAP2 SWAP1 PUSH2 0xE41 JUMP JUMPDEST CALLVALUE DUP1 ISZERO PUSH2 0x11D JUMPI PUSH0 DUP1 REVERT JUMPDEST POP PUSH2 0x104 PUSH2 0x12C CALLDATASIZE PUSH1 0x4 PUSH2 0xF30 JUMP JUMPDEST PUSH2 0x3C6 JUMP JUMPDEST CALLVALUE DUP1 ISZERO PUSH2 0x13C JUMPI PUSH0 DUP1 REVERT JUMPDEST POP PUSH2 0x150 PUSH2 0x14B CALLDATASIZE PUSH1 0x4 PUSH2 0xE02 JUMP JUMPDEST PUSH2 0x473 JUMP JUMPDEST STOP JUMPDEST CALLVALUE DUP1 ISZERO PUSH2 0x15D JUMPI PUSH0 DUP1 REVERT JUMPDEST POP PUSH2 0x1AE PUSH2 0x16C CALLDATASIZE PUSH1 0x4 PUSH2 0xF30 JUMP JUMPDEST DUP1 MLOAD PUSH1 0x20 DUP2 DUP4 ADD DUP2 ADD DUP1 MLOAD PUSH1 0x2 DUP1 DUP4 MSTORE SWAP4 DUP4 ADD SWAP3 SWAP1 SWAP5 ADD SWAP2 SWAP1 SWAP2 KECCAK256 SWAP3 SWAP1 MSTORE DUP2 SLOAD PUSH1 0x1 DUP4 ADD SLOAD SWAP2 DUP4 ADD SLOAD PUSH1 0x3 SWAP1 SWAP4 ADD SLOAD PUSH1 0x1 PUSH1 0x1 PUSH1 0xA0 SHL SUB SWAP1 SWAP2 AND SWAP3 SWAP1 PUSH1 0xFF AND DUP5 JUMP JUMPDEST PUSH1 0x40 DUP1 MLOAD PUSH1 0x1 PUSH1 0x1 PUSH1 0xA0 SHL SUB SWAP1 SWAP6 AND DUP6 MSTORE PUSH1 0x20 DUP6 ADD SWAP4 SWAP1 SWAP4 MSTORE SWAP2 DUP4 ADD MSTORE ISZERO ISZERO PUSH1 0x60 DUP3 ADD MSTORE PUSH1 0x80 ADD PUSH2 0xC7 JUMP JUMPDEST CALLVALUE DUP1 ISZERO PUSH2 0x1E5 JUMPI PUSH0 DUP1 REVERT JUMPDEST POP PUSH2 0x208 PUSH2 0x1F4 CALLDATASIZE PUSH1 0x4 PUSH2 0xF85 JUMP JUMPDEST PUSH0 PUSH1 0x20 DUP2 SWAP1 MSTORE SWAP1 DUP2 MSTORE PUSH1 0x40 SWAP1 KECCAK256 SLOAD PUSH1 0xFF AND DUP2 JUMP JUMPDEST PUSH1 0x40 MLOAD SWAP1 ISZERO ISZERO DUP2 MSTORE PUSH1 0x20 ADD PUSH2 0xC7 JUMP JUMPDEST CALLVALUE DUP1 ISZERO PUSH2 0x223 JUMPI PUSH0 DUP1 REVERT JUMPDEST POP PUSH2 0x150 PUSH2 0x232 CALLDATASIZE PUSH1 0x4 PUSH2 0xFA5 JUMP JUMPDEST PUSH2 0x641 JUMP JUMPDEST PUSH2 0x150 PUSH2 0x245 CALLDATASIZE PUSH1 0x4 PUSH2 0xFED JUMP JUMPDEST PUSH2 0xA2F JUMP JUMPDEST CALLVALUE DUP1 ISZERO PUSH2 0x255 JUMPI PUSH0 DUP1 REVERT JUMPDEST POP PUSH2 0x208 PUSH2 0x264 CALLDATASIZE PUSH1 0x4 PUSH2 0x107F JUMP JUMPDEST DUP2 MLOAD PUSH1 0x20 DUP2 DUP5 ADD DUP2 ADD DUP1 MLOAD PUSH1 0x4 DUP3 MSTORE SWAP3 DUP3 ADD SWAP5 DUP3 ADD SWAP5 SWAP1 SWAP5 KECCAK256 SWAP2 SWAP1 SWAP4 MSTORE SWAP1 SWAP2 MSTORE PUSH0 SWAP1 DUP2 MSTORE PUSH1 0x40 SWAP1 KECCAK256 SLOAD PUSH1 0xFF AND DUP2 JUMP JUMPDEST CALLVALUE DUP1 ISZERO PUSH2 0x29E JUMPI PUSH0 DUP1 REVERT JUMPDEST POP PUSH2 0x150 PUSH2 0x2AD CALLDATASIZE PUSH1 0x4 PUSH2 0xE02 JUMP JUMPDEST PUSH2 0xBC6 JUMP JUMPDEST CALLVALUE DUP1 ISZERO PUSH2 0x2BD JUMPI PUSH0 DUP1 REVERT JUMPDEST POP PUSH2 0x2D1 PUSH2 0x2CC CALLDATASIZE PUSH1 0x4 PUSH2 0x10CA JUMP JUMPDEST PUSH2 0xD78 JUMP JUMPDEST PUSH1 0x40 MLOAD PUSH1 0x1 PUSH1 0x1 PUSH1 0xA0 SHL SUB SWAP1 SWAP2 AND DUP2 MSTORE PUSH1 0x20 ADD PUSH2 0xC7 JUMP JUMPDEST PUSH1 0x60 PUSH0 DUP1 PUSH1 0x1 DUP6 DUP6 PUSH1 0x40 MLOAD PUSH2 0x2FF SWAP3 SWAP2 SWAP1 PUSH2 0x1114 JUMP JUMPDEST SWAP1 DUP2 MSTORE PUSH1 0x20 ADD PUSH1 0x40 MLOAD DUP1 SWAP2 SUB SWAP1 KECCAK256 PUSH1 0x40 MLOAD DUP1 PUSH1 0x40 ADD PUSH1 0x40 MSTORE SWAP1 DUP2 PUSH0 DUP3 ADD DUP1 SLOAD PUSH2 0x327 SWAP1 PUSH2 0x1123 JUMP JUMPDEST DUP1 PUSH1 0x1F ADD PUSH1 0x20 DUP1 SWAP2 DIV MUL PUSH1 0x20 ADD PUSH1 0x40 MLOAD SWAP1 DUP2 ADD PUSH1 0x40 MSTORE DUP1 SWAP3 SWAP2 SWAP1 DUP2 DUP2 MSTORE PUSH1 0x20 ADD DUP3 DUP1 SLOAD PUSH2 0x353 SWAP1 PUSH2 0x1123 JUMP JUMPDEST DUP1 ISZERO PUSH2 0x39E JUMPI DUP1 PUSH1 0x1F LT PUSH2 0x375 JUMPI PUSH2 0x100 DUP1 DUP4 SLOAD DIV MUL DUP4 MSTORE SWAP2 PUSH1 0x20 ADD SWAP2 PUSH2 0x39E JUMP JUMPDEST DUP3 ADD SWAP2 SWAP1 PUSH0 MSTORE PUSH1 0x20 PUSH0 KECCAK256 SWAP1 JUMPDEST DUP2 SLOAD DUP2 MSTORE SWAP1 PUSH1 0x1 ADD SWAP1 PUSH1 0x20 ADD DUP1 DUP4 GT PUSH2 0x381 JUMPI DUP3 SWAP1 SUB PUSH1 0x1F AND DUP3 ADD SWAP2 JUMPDEST POP POP POP SWAP2 DUP4 MSTORE POP POP PUSH1 0x1 SWAP2 SWAP1 SWAP2 ADD SLOAD PUSH1 0x20 SWAP2 DUP3 ADD MSTORE DUP2 MLOAD SWAP2 ADD MLOAD SWAP1 SWAP4 POP SWAP2 POP POP JUMPDEST SWAP3 POP SWAP3 SWAP1 POP JUMP JUMPDEST DUP1 MLOAD PUSH1 0x20 DUP2 DUP4 ADD DUP2 ADD DUP1 MLOAD PUSH1 0x1 DUP3 MSTORE SWAP3 DUP3 ADD SWAP2 SWAP1 SWAP4 ADD KECCAK256 SWAP2 MSTORE DUP1 SLOAD DUP2 SWAP1 PUSH2 0x3EC SWAP1 PUSH2 0x1123 JUMP JUMPDEST DUP1 PUSH1 0x1F ADD PUSH1 0x20 DUP1 SWAP2 DIV MUL PUSH1 0x20 ADD PUSH1 0x40 MLOAD SWAP1 DUP2 ADD PUSH1 0x40 MSTORE DUP1 SWAP3 SWAP2 SWAP1 DUP2 DUP2 MSTORE PUSH1 0x20 ADD DUP3 DUP1 SLOAD PUSH2 0x418 SWAP1 PUSH2 0x1123 JUMP JUMPDEST DUP1 ISZERO PUSH2 0x463 JUMPI DUP1 PUSH1 0x1F LT PUSH2 0x43A JUMPI PUSH2 0x100 DUP1 DUP4 SLOAD DIV MUL DUP4 MSTORE SWAP2 PUSH1 0x20 ADD SWAP2 PUSH2 0x463 JUMP JUMPDEST DUP3 ADD SWAP2 SWAP1 PUSH0 MSTORE PUSH1 0x20 PUSH0 KECCAK256 SWAP1 JUMPDEST DUP2 SLOAD DUP2 MSTORE SWAP1 PUSH1 0x1 ADD SWAP1 PUSH1 0x20 ADD DUP1 DUP4 GT PUSH2 0x446 JUMPI DUP3 SWAP1 SUB PUSH1 0x1F AND DUP3 ADD SWAP2 JUMPDEST POP POP POP POP POP SWAP1 DUP1 PUSH1 0x1 ADD SLOAD SWAP1 POP DUP3 JUMP JUMPDEST PUSH0 PUSH1 0x2 DUP4 DUP4 PUSH1 0x40 MLOAD PUSH2 0x486 SWAP3 SWAP2 SWAP1 PUSH2 0x1114 JUMP JUMPDEST SWAP1 DUP2 MSTORE PUSH1 0x20 ADD PUSH1 0x40 MLOAD DUP1 SWAP2 SUB SWAP1 KECCAK256 SWAP1 POP PUSH0 DUP2 PUSH1 0x2 ADD SLOAD GT PUSH2 0x4DA JUMPI PUSH1 0x40 MLOAD PUSH3 0x461BCD PUSH1 0xE5 SHL DUP2 MSTORE PUSH1 0x20 PUSH1 0x4 DUP3 ADD MSTORE PUSH1 0x9 PUSH1 0x24 DUP3 ADD MSTORE PUSH9 0x139BDD08199BDD5B99 PUSH1 0xBA SHL PUSH1 0x44 DUP3 ADD MSTORE PUSH1 0x64 ADD JUMPDEST PUSH1 0x40 MLOAD DUP1 SWAP2 SUB SWAP1 REVERT JUMPDEST PUSH1 0x3 DUP2 ADD SLOAD PUSH1 0xFF AND ISZERO PUSH2 0x523 JUMPI PUSH1 0x40 MLOAD PUSH3 0x461BCD PUSH1 0xE5 SHL DUP2 MSTORE PUSH1 0x20 PUSH1 0x4 DUP3 ADD MSTORE PUSH1 0x11 PUSH1 0x24 DUP3 ADD MSTORE PUSH17 0x105B1C9958591E481C1C9BD8D95CDCD959 PUSH1 0x7A SHL PUSH1 0x44 DUP3 ADD MSTORE PUSH1 0x64 ADD PUSH2 0x4D1 JUMP JUMPDEST PUSH2 0x12C DUP2 PUSH1 0x1 ADD SLOAD PUSH2 0x535 SWAP2 SWAP1 PUSH2 0x115B JUMP JUMPDEST TIMESTAMP GT PUSH2 0x572 JUMPI PUSH1 0x40 MLOAD PUSH3 0x461BCD PUSH1 0xE5 SHL DUP2 MSTORE PUSH1 0x20 PUSH1 0x4 DUP3 ADD MSTORE PUSH1 0xC PUSH1 0x24 DUP3 ADD MSTORE PUSH12 0x15D85A5D081D1A5B595BDD5D PUSH1 0xA2 SHL PUSH1 0x44 DUP3 ADD MSTORE PUSH1 0x64 ADD PUSH2 0x4D1 JUMP JUMPDEST DUP1 SLOAD PUSH1 0x1 PUSH1 0x1 PUSH1 0xA0 SHL SUB AND CALLER EQ PUSH2 0x5B7 JUMPI PUSH1 0x40 MLOAD PUSH3 0x461BCD PUSH1 0xE5 SHL DUP2 MSTORE PUSH1 0x20 PUSH1 0x4 DUP3 ADD MSTORE PUSH1 0x9 PUSH1 0x24 DUP3 ADD MSTORE PUSH9 0x2737BA1037BBB732B9 PUSH1 0xB9 SHL PUSH1 0x44 DUP3 ADD MSTORE PUSH1 0x64 ADD PUSH2 0x4D1 JUMP JUMPDEST PUSH1 0x3 DUP2 ADD DUP1 SLOAD PUSH1 0xFF NOT AND PUSH1 0x1 OR SWAP1 SSTORE DUP1 SLOAD PUSH1 0x2 DUP3 ADD SLOAD PUSH1 0x40 MLOAD PUSH1 0x1 PUSH1 0x1 PUSH1 0xA0 SHL SUB SWAP1 SWAP3 AND SWAP2 DUP2 ISZERO PUSH2 0x8FC MUL SWAP2 SWAP1 PUSH0 DUP2 DUP2 DUP2 DUP6 DUP9 DUP9 CALL SWAP4 POP POP POP POP ISZERO DUP1 ISZERO PUSH2 0x600 JUMPI RETURNDATASIZE PUSH0 DUP1 RETURNDATACOPY RETURNDATASIZE PUSH0 REVERT JUMPDEST POP PUSH32 0x94563D730336FF32B7D62D92EAA0C450B413CB41D4B41936DF4D5536232B4B49 DUP4 DUP4 PUSH0 PUSH1 0x40 MLOAD PUSH2 0x634 SWAP4 SWAP3 SWAP2 SWAP1 PUSH2 0x11A8 JUMP JUMPDEST PUSH1 0x40 MLOAD DUP1 SWAP2 SUB SWAP1 LOG1 POP POP POP JUMP JUMPDEST CALLER PUSH0 SWAP1 DUP2 MSTORE PUSH1 0x20 DUP2 SWAP1 MSTORE PUSH1 0x40 SWAP1 KECCAK256 SLOAD PUSH1 0xFF AND PUSH2 0x68E JUMPI PUSH1 0x40 MLOAD PUSH3 0x461BCD PUSH1 0xE5 SHL DUP2 MSTORE PUSH1 0x20 PUSH1 0x4 DUP3 ADD MSTORE PUSH1 0xC PUSH1 0x24 DUP3 ADD MSTORE PUSH12 0x155B985D5D1A1BDC9A5E9959 PUSH1 0xA2 SHL PUSH1 0x44 DUP3 ADD MSTORE PUSH1 0x64 ADD PUSH2 0x4D1 JUMP JUMPDEST PUSH0 PUSH1 0x2 DUP5 DUP5 PUSH1 0x40 MLOAD PUSH2 0x6A1 SWAP3 SWAP2 SWAP1 PUSH2 0x1114 JUMP JUMPDEST SWAP1 DUP2 MSTORE PUSH1 0x20 ADD PUSH1 0x40 MLOAD DUP1 SWAP2 SUB SWAP1 KECCAK256 SWAP1 POP PUSH0 DUP2 PUSH1 0x2 ADD SLOAD GT PUSH2 0x6F8 JUMPI PUSH1 0x40 MLOAD PUSH3 0x461BCD PUSH1 0xE5 SHL DUP2 MSTORE PUSH1 0x20 PUSH1 0x4 DUP3 ADD MSTORE PUSH1 0x11 PUSH1 0x24 DUP3 ADD MSTORE PUSH17 0x14995C5D595CDD081B9BDD08199BDD5B99 PUSH1 0x7A SHL PUSH1 0x44 DUP3 ADD MSTORE PUSH1 0x64 ADD PUSH2 0x4D1 JUMP JUMPDEST PUSH1 0x3 DUP2 ADD SLOAD PUSH1 0xFF AND ISZERO PUSH2 0x741 JUMPI PUSH1 0x40 MLOAD PUSH3 0x461BCD PUSH1 0xE5 SHL DUP2 MSTORE PUSH1 0x20 PUSH1 0x4 DUP3 ADD MSTORE PUSH1 0x11 PUSH1 0x24 DUP3 ADD MSTORE PUSH17 0x14995C5D595CDD081C1C9BD8D95CDCD959 PUSH1 0x7A SHL PUSH1 0x44 DUP3 ADD MSTORE PUSH1 0x64 ADD PUSH2 0x4D1 JUMP JUMPDEST PUSH1 0x4 DUP5 DUP5 PUSH1 0x40 MLOAD PUSH2 0x753 SWAP3 SWAP2 SWAP1 PUSH2 0x1114 JUMP JUMPDEST SWAP1 DUP2 MSTORE PUSH1 0x40 DUP1 MLOAD PUSH1 0x20 SWAP3 DUP2 SWAP1 SUB DUP4 ADD SWAP1 KECCAK256 CALLER PUSH0 SWAP1 DUP2 MSTORE SWAP3 MSTORE SWAP1 KECCAK256 SLOAD PUSH1 0xFF AND ISZERO PUSH2 0x7A6 JUMPI PUSH1 0x40 MLOAD PUSH3 0x461BCD PUSH1 0xE5 SHL DUP2 MSTORE PUSH1 0x20 PUSH1 0x4 DUP3 ADD MSTORE PUSH1 0x5 PUSH1 0x24 DUP3 ADD MSTORE PUSH5 0x159BDD1959 PUSH1 0xDA SHL PUSH1 0x44 DUP3 ADD MSTORE PUSH1 0x64 ADD PUSH2 0x4D1 JUMP JUMPDEST PUSH1 0x1 PUSH1 0x4 DUP6 DUP6 PUSH1 0x40 MLOAD PUSH2 0x7BA SWAP3 SWAP2 SWAP1 PUSH2 0x1114 JUMP JUMPDEST SWAP1 DUP2 MSTORE PUSH1 0x40 DUP1 MLOAD PUSH1 0x20 SWAP3 DUP2 SWAP1 SUB DUP4 ADD DUP2 KECCAK256 CALLER PUSH0 SWAP1 DUP2 MSTORE SWAP4 MSTORE SWAP2 KECCAK256 DUP1 SLOAD PUSH1 0xFF NOT AND SWAP3 ISZERO ISZERO SWAP3 SWAP1 SWAP3 OR SWAP1 SWAP2 SSTORE PUSH1 0x3 SWAP1 PUSH2 0x7F4 SWAP1 DUP7 SWAP1 DUP7 SWAP1 PUSH2 0x1114 JUMP JUMPDEST SWAP1 DUP2 MSTORE PUSH1 0x40 DUP1 MLOAD SWAP2 DUP3 SWAP1 SUB PUSH1 0x20 SWAP1 DUP2 ADD DUP4 KECCAK256 PUSH0 DUP7 DUP2 MSTORE SWAP1 DUP3 MSTORE SWAP2 DUP3 KECCAK256 DUP1 SLOAD PUSH1 0x1 DUP2 ADD DUP3 SSTORE SWAP1 DUP4 MSTORE SWAP1 DUP3 KECCAK256 ADD DUP1 SLOAD PUSH1 0x1 PUSH1 0x1 PUSH1 0xA0 SHL SUB NOT AND CALLER OR SWAP1 SSTORE SWAP1 PUSH1 0x3 SWAP1 PUSH2 0x840 SWAP1 DUP8 SWAP1 DUP8 SWAP1 PUSH2 0x1114 JUMP JUMPDEST SWAP1 DUP2 MSTORE PUSH1 0x40 DUP1 MLOAD PUSH1 0x20 SWAP3 DUP2 SWAP1 SUB DUP4 ADD SWAP1 KECCAK256 PUSH0 DUP7 DUP2 MSTORE SWAP3 MSTORE SWAP1 KECCAK256 SLOAD SWAP1 POP PUSH1 0x2 DUP2 LT PUSH2 0xA28 JUMPI PUSH1 0x3 DUP3 ADD DUP1 SLOAD PUSH1 0xFF NOT AND PUSH1 0x1 OR SWAP1 SSTORE PUSH1 0x40 DUP1 MLOAD PUSH1 0x60 PUSH1 0x20 PUSH1 0x1F DUP9 ADD DUP2 SWAP1 DIV MUL DUP3 ADD DUP2 ADD DUP4 MSTORE SWAP2 DUP2 ADD DUP7 DUP2 MSTORE SWAP1 SWAP2 DUP3 SWAP2 SWAP1 DUP9 SWAP1 DUP9 SWAP1 DUP2 SWAP1 DUP6 ADD DUP4 DUP3 DUP1 DUP3 DUP5 CALLDATACOPY PUSH0 SWAP3 ADD SWAP2 SWAP1 SWAP2 MSTORE POP POP POP SWAP1 DUP3 MSTORE POP PUSH1 0x20 ADD DUP5 SWAP1 MSTORE PUSH1 0x40 MLOAD PUSH1 0x1 SWAP1 PUSH2 0x8C9 SWAP1 DUP9 SWAP1 DUP9 SWAP1 PUSH2 0x1114 JUMP JUMPDEST SWAP1 DUP2 MSTORE PUSH1 0x40 MLOAD SWAP1 DUP2 SWAP1 SUB PUSH1 0x20 ADD SWAP1 KECCAK256 DUP2 MLOAD DUP2 SWAP1 PUSH2 0x8E6 SWAP1 DUP3 PUSH2 0x1216 JUMP JUMPDEST POP PUSH1 0x20 DUP3 ADD MLOAD DUP2 PUSH1 0x1 ADD SSTORE SWAP1 POP POP PUSH0 PUSH1 0x3 DUP7 DUP7 PUSH1 0x40 MLOAD PUSH2 0x907 SWAP3 SWAP2 SWAP1 PUSH2 0x1114 JUMP JUMPDEST SWAP1 DUP2 MSTORE PUSH1 0x40 DUP1 MLOAD SWAP2 DUP3 SWAP1 SUB PUSH1 0x20 SWAP1 DUP2 ADD DUP4 KECCAK256 PUSH0 DUP9 DUP2 MSTORE SWAP1 DUP3 MSTORE DUP3 SWAP1 KECCAK256 DUP1 SLOAD DUP1 DUP4 MUL DUP6 ADD DUP4 ADD SWAP1 SWAP4 MSTORE DUP3 DUP5 MSTORE SWAP2 SWAP1 DUP4 ADD DUP3 DUP3 DUP1 ISZERO PUSH2 0x96B JUMPI PUSH1 0x20 MUL DUP3 ADD SWAP2 SWAP1 PUSH0 MSTORE PUSH1 0x20 PUSH0 KECCAK256 SWAP1 JUMPDEST DUP2 SLOAD PUSH1 0x1 PUSH1 0x1 PUSH1 0xA0 SHL SUB AND DUP2 MSTORE PUSH1 0x1 SWAP1 SWAP2 ADD SWAP1 PUSH1 0x20 ADD DUP1 DUP4 GT PUSH2 0x94D JUMPI JUMPDEST POP POP POP POP POP SWAP1 POP PUSH0 DUP3 DUP5 PUSH1 0x2 ADD SLOAD PUSH2 0x983 SWAP2 SWAP1 PUSH2 0x12D6 JUMP JUMPDEST SWAP1 POP PUSH0 JUMPDEST DUP3 MLOAD DUP2 LT ISZERO PUSH2 0x9E8 JUMPI DUP3 DUP2 DUP2 MLOAD DUP2 LT PUSH2 0x9A2 JUMPI PUSH2 0x9A2 PUSH2 0x12F5 JUMP JUMPDEST PUSH1 0x20 MUL PUSH1 0x20 ADD ADD MLOAD PUSH1 0x1 PUSH1 0x1 PUSH1 0xA0 SHL SUB AND PUSH2 0x8FC DUP4 SWAP1 DUP2 ISZERO MUL SWAP1 PUSH1 0x40 MLOAD PUSH0 PUSH1 0x40 MLOAD DUP1 DUP4 SUB DUP2 DUP6 DUP9 DUP9 CALL SWAP4 POP POP POP POP ISZERO DUP1 ISZERO PUSH2 0x9DF JUMPI RETURNDATASIZE PUSH0 DUP1 RETURNDATACOPY RETURNDATASIZE PUSH0 REVERT JUMPDEST POP PUSH1 0x1 ADD PUSH2 0x987 JUMP JUMPDEST POP PUSH32 0x94563D730336FF32B7D62D92EAA0C450B413CB41D4B41936DF4D5536232B4B49 DUP8 DUP8 PUSH1 0x1 PUSH1 0x40 MLOAD PUSH2 0xA1D SWAP4 SWAP3 SWAP2 SWAP1 PUSH2 0x11A8 JUMP JUMPDEST PUSH1 0x40 MLOAD DUP1 SWAP2 SUB SWAP1 LOG1 POP POP JUMPDEST POP POP POP POP POP JUMP JUMPDEST PUSH0 CALLVALUE GT PUSH2 0xA7E JUMPI PUSH1 0x40 MLOAD PUSH3 0x461BCD PUSH1 0xE5 SHL DUP2 MSTORE PUSH1 0x20 PUSH1 0x4 DUP3 ADD MSTORE PUSH1 0x17 PUSH1 0x24 DUP3 ADD MSTORE PUSH32 0x5061796D656E7420616D6F756E74207265717569726564000000000000000000 PUSH1 0x44 DUP3 ADD MSTORE PUSH1 0x64 ADD PUSH2 0x4D1 JUMP JUMPDEST PUSH0 PUSH1 0x2 DUP6 DUP6 PUSH1 0x40 MLOAD PUSH2 0xA91 SWAP3 SWAP2 SWAP1 PUSH2 0x1114 JUMP JUMPDEST SWAP1 DUP2 MSTORE PUSH1 0x20 ADD PUSH1 0x40 MLOAD DUP1 SWAP2 SUB SWAP1 KECCAK256 SWAP1 POP PUSH0 DUP2 PUSH1 0x2 ADD SLOAD GT ISZERO PUSH2 0xAF9 JUMPI PUSH1 0x3 DUP2 ADD SLOAD PUSH1 0xFF AND PUSH2 0xAF9 JUMPI PUSH1 0x40 MLOAD PUSH3 0x461BCD PUSH1 0xE5 SHL DUP2 MSTORE PUSH1 0x20 PUSH1 0x4 DUP3 ADD MSTORE PUSH1 0x15 PUSH1 0x24 DUP3 ADD MSTORE PUSH21 0x416374697665207265717565737420657869737473 PUSH1 0x58 SHL PUSH1 0x44 DUP3 ADD MSTORE PUSH1 0x64 ADD PUSH2 0x4D1 JUMP JUMPDEST PUSH1 0x40 DUP1 MLOAD PUSH1 0x80 DUP2 ADD DUP3 MSTORE CALLER DUP2 MSTORE TIMESTAMP PUSH1 0x20 DUP3 ADD MSTORE CALLVALUE DUP2 DUP4 ADD MSTORE PUSH0 PUSH1 0x60 DUP3 ADD MSTORE SWAP1 MLOAD PUSH1 0x2 SWAP1 PUSH2 0xB29 SWAP1 DUP9 SWAP1 DUP9 SWAP1 PUSH2 0x1114 JUMP JUMPDEST SWAP1 DUP2 MSTORE PUSH1 0x40 DUP1 MLOAD PUSH1 0x20 SWAP3 DUP2 SWAP1 SUB DUP4 ADD DUP2 KECCAK256 DUP5 MLOAD DUP2 SLOAD PUSH1 0x1 PUSH1 0x1 PUSH1 0xA0 SHL SUB NOT AND PUSH1 0x1 PUSH1 0x1 PUSH1 0xA0 SHL SUB SWAP1 SWAP2 AND OR DUP2 SSTORE SWAP3 DUP5 ADD MLOAD PUSH1 0x1 DUP5 ADD SSTORE SWAP1 DUP4 ADD MLOAD PUSH1 0x2 DUP4 ADD SSTORE PUSH1 0x60 SWAP1 SWAP3 ADD MLOAD PUSH1 0x3 SWAP1 SWAP2 ADD DUP1 SLOAD PUSH1 0xFF NOT AND SWAP2 ISZERO ISZERO SWAP2 SWAP1 SWAP2 OR SWAP1 SSTORE PUSH32 0xF5AF9E5EBDD1FA9D6B7605D73AC037435203ACA5814494C564F48583AE8A78F8 SWAP1 PUSH2 0xBB7 SWAP1 DUP8 SWAP1 DUP8 SWAP1 DUP8 SWAP1 DUP8 SWAP1 CALLER SWAP1 PUSH2 0x1309 JUMP JUMPDEST PUSH1 0x40 MLOAD DUP1 SWAP2 SUB SWAP1 LOG1 POP POP POP POP POP JUMP JUMPDEST CALLER PUSH0 SWAP1 DUP2 MSTORE PUSH1 0x20 DUP2 SWAP1 MSTORE PUSH1 0x40 SWAP1 KECCAK256 SLOAD PUSH1 0xFF AND PUSH2 0xC13 JUMPI PUSH1 0x40 MLOAD PUSH3 0x461BCD PUSH1 0xE5 SHL DUP2 MSTORE PUSH1 0x20 PUSH1 0x4 DUP3 ADD MSTORE PUSH1 0xC PUSH1 0x24 DUP3 ADD MSTORE PUSH12 0x155B985D5D1A1BDC9A5E9959 PUSH1 0xA2 SHL PUSH1 0x44 DUP3 ADD MSTORE PUSH1 0x64 ADD PUSH2 0x4D1 JUMP JUMPDEST PUSH0 PUSH1 0x2 DUP4 DUP4 PUSH1 0x40 MLOAD PUSH2 0xC26 SWAP3 SWAP2 SWAP1 PUSH2 0x1114 JUMP JUMPDEST SWAP1 DUP2 MSTORE PUSH1 0x20 ADD PUSH1 0x40 MLOAD DUP1 SWAP2 SUB SWAP1 KECCAK256 SWAP1 POP PUSH0 DUP2 PUSH1 0x2 ADD SLOAD GT PUSH2 0xC7D JUMPI PUSH1 0x40 MLOAD PUSH3 0x461BCD PUSH1 0xE5 SHL DUP2 MSTORE PUSH1 0x20 PUSH1 0x4 DUP3 ADD MSTORE PUSH1 0x11 PUSH1 0x24 DUP3 ADD MSTORE PUSH17 0x14995C5D595CDD081B9BDD08199BDD5B99 PUSH1 0x7A SHL PUSH1 0x44 DUP3 ADD MSTORE PUSH1 0x64 ADD PUSH2 0x4D1 JUMP JUMPDEST PUSH1 0x3 DUP2 ADD SLOAD PUSH1 0xFF AND ISZERO PUSH2 0xCBE JUMPI PUSH1 0x40 MLOAD PUSH3 0x461BCD PUSH1 0xE5 SHL DUP2 MSTORE PUSH1 0x20 PUSH1 0x4 DUP3 ADD MSTORE PUSH1 0x9 PUSH1 0x24 DUP3 ADD MSTORE PUSH9 0x141C9BD8D95CDCD959 PUSH1 0xBA SHL PUSH1 0x44 DUP3 ADD MSTORE PUSH1 0x64 ADD PUSH2 0x4D1 JUMP JUMPDEST PUSH2 0x12C DUP2 PUSH1 0x1 ADD SLOAD PUSH2 0xCD0 SWAP2 SWAP1 PUSH2 0x115B JUMP JUMPDEST TIMESTAMP GT PUSH2 0xD2C JUMPI PUSH1 0x40 MLOAD PUSH3 0x461BCD PUSH1 0xE5 SHL DUP2 MSTORE PUSH1 0x20 PUSH1 0x4 DUP3 ADD MSTORE PUSH1 0x25 PUSH1 0x24 DUP3 ADD MSTORE PUSH32 0x4E6F742065787069726564207265717565737420766572696669636174696F6E PUSH1 0x44 DUP3 ADD MSTORE PUSH5 0x2074696D65 PUSH1 0xD8 SHL PUSH1 0x64 DUP3 ADD MSTORE PUSH1 0x84 ADD PUSH2 0x4D1 JUMP JUMPDEST PUSH1 0x2 DUP4 DUP4 PUSH1 0x40 MLOAD PUSH2 0xD3E SWAP3 SWAP2 SWAP1 PUSH2 0x1114 JUMP JUMPDEST SWAP1 DUP2 MSTORE PUSH1 0x40 MLOAD SWAP1 DUP2 SWAP1 SUB PUSH1 0x20 ADD SWAP1 KECCAK256 DUP1 SLOAD PUSH1 0x1 PUSH1 0x1 PUSH1 0xA0 SHL SUB NOT AND DUP2 SSTORE PUSH0 PUSH1 0x1 DUP3 ADD DUP2 SWAP1 SSTORE PUSH1 0x2 DUP3 ADD SSTORE PUSH1 0x3 ADD DUP1 SLOAD PUSH1 0xFF NOT AND SWAP1 SSTORE POP POP POP JUMP JUMPDEST DUP3 MLOAD PUSH1 0x20 DUP2 DUP6 ADD DUP2 ADD DUP1 MLOAD PUSH1 0x3 DUP3 MSTORE SWAP3 DUP3 ADD DUP3 DUP8 ADD KECCAK256 SWAP3 SWAP1 MSTORE MSTORE PUSH0 DUP3 DUP2 MSTORE PUSH1 0x40 SWAP1 KECCAK256 DUP1 SLOAD DUP3 SWAP1 DUP2 LT PUSH2 0xDA8 JUMPI PUSH0 DUP1 REVERT JUMPDEST PUSH0 SWAP2 DUP3 MSTORE PUSH1 0x20 SWAP1 SWAP2 KECCAK256 ADD SLOAD PUSH1 0x1 PUSH1 0x1 PUSH1 0xA0 SHL SUB AND SWAP3 POP DUP4 SWAP2 POP POP JUMP JUMPDEST PUSH0 DUP1 DUP4 PUSH1 0x1F DUP5 ADD SLT PUSH2 0xDD4 JUMPI PUSH0 DUP1 REVERT JUMPDEST POP DUP2 CALLDATALOAD PUSH8 0xFFFFFFFFFFFFFFFF DUP2 GT ISZERO PUSH2 0xDEB JUMPI PUSH0 DUP1 REVERT JUMPDEST PUSH1 0x20 DUP4 ADD SWAP2 POP DUP4 PUSH1 0x20 DUP3 DUP6 ADD ADD GT ISZERO PUSH2 0x3BF JUMPI PUSH0 DUP1 REVERT JUMPDEST PUSH0 DUP1 PUSH1 0x20 DUP4 DUP6 SUB SLT ISZERO PUSH2 0xE13 JUMPI PUSH0 DUP1 REVERT JUMPDEST DUP3 CALLDATALOAD PUSH8 0xFFFFFFFFFFFFFFFF DUP2 GT ISZERO PUSH2 0xE29 JUMPI PUSH0 DUP1 REVERT JUMPDEST PUSH2 0xE35 DUP6 DUP3 DUP7 ADD PUSH2 0xDC4 JUMP JUMPDEST SWAP1 SWAP7 SWAP1 SWAP6 POP SWAP4 POP POP POP POP JUMP JUMPDEST PUSH1 0x40 DUP2 MSTORE PUSH0 DUP4 MLOAD DUP1 PUSH1 0x40 DUP5 ADD MSTORE PUSH0 JUMPDEST DUP2 DUP2 LT ISZERO PUSH2 0xE6D JUMPI PUSH1 0x20 DUP2 DUP8 ADD DUP2 ADD MLOAD PUSH1 0x60 DUP7 DUP5 ADD ADD MSTORE ADD PUSH2 0xE50 JUMP JUMPDEST POP PUSH0 PUSH1 0x60 DUP3 DUP6 ADD ADD MSTORE PUSH1 0x60 PUSH1 0x1F NOT PUSH1 0x1F DUP4 ADD AND DUP5 ADD ADD SWAP2 POP POP DUP3 PUSH1 0x20 DUP4 ADD MSTORE SWAP4 SWAP3 POP POP POP JUMP JUMPDEST PUSH4 0x4E487B71 PUSH1 0xE0 SHL PUSH0 MSTORE PUSH1 0x41 PUSH1 0x4 MSTORE PUSH1 0x24 PUSH0 REVERT JUMPDEST PUSH0 DUP3 PUSH1 0x1F DUP4 ADD SLT PUSH2 0xEB6 JUMPI PUSH0 DUP1 REVERT JUMPDEST DUP2 CALLDATALOAD PUSH8 0xFFFFFFFFFFFFFFFF DUP1 DUP3 GT ISZERO PUSH2 0xED1 JUMPI PUSH2 0xED1 PUSH2 0xE93 JUMP JUMPDEST PUSH1 0x40 MLOAD PUSH1 0x1F DUP4 ADD PUSH1 0x1F NOT SWAP1 DUP2 AND PUSH1 0x3F ADD AND DUP2 ADD SWAP1 DUP3 DUP3 GT DUP2 DUP4 LT OR ISZERO PUSH2 0xEF9 JUMPI PUSH2 0xEF9 PUSH2 0xE93 JUMP JUMPDEST DUP2 PUSH1 0x40 MSTORE DUP4 DUP2 MSTORE DUP7 PUSH1 0x20 DUP6 DUP9 ADD ADD GT ISZERO PUSH2 0xF11 JUMPI PUSH0 DUP1 REVERT JUMPDEST DUP4 PUSH1 0x20 DUP8 ADD PUSH1 0x20 DUP4 ADD CALLDATACOPY PUSH0 PUSH1 0x20 DUP6 DUP4 ADD ADD MSTORE DUP1 SWAP5 POP POP POP POP POP SWAP3 SWAP2 POP POP JUMP JUMPDEST PUSH0 PUSH1 0x20 DUP3 DUP5 SUB SLT ISZERO PUSH2 0xF40 JUMPI PUSH0 DUP1 REVERT JUMPDEST DUP2 CALLDATALOAD PUSH8 0xFFFFFFFFFFFFFFFF DUP2 GT ISZERO PUSH2 0xF56 JUMPI PUSH0 DUP1 REVERT JUMPDEST PUSH2 0xF62 DUP5 DUP3 DUP6 ADD PUSH2 0xEA7 JUMP JUMPDEST SWAP5 SWAP4 POP POP POP POP JUMP JUMPDEST DUP1 CALLDATALOAD PUSH1 0x1 PUSH1 0x1 PUSH1 0xA0 SHL SUB DUP2 AND DUP2 EQ PUSH2 0xF80 JUMPI PUSH0 DUP1 REVERT JUMPDEST SWAP2 SWAP1 POP JUMP JUMPDEST PUSH0 PUSH1 0x20 DUP3 DUP5 SUB SLT ISZERO PUSH2 0xF95 JUMPI PUSH0 DUP1 REVERT JUMPDEST PUSH2 0xF9E DUP3 PUSH2 0xF6A JUMP JUMPDEST SWAP4 SWAP3 POP POP POP JUMP JUMPDEST PUSH0 DUP1 PUSH0 PUSH1 0x40 DUP5 DUP7 SUB SLT ISZERO PUSH2 0xFB7 JUMPI PUSH0 DUP1 REVERT JUMPDEST DUP4 CALLDATALOAD PUSH8 0xFFFFFFFFFFFFFFFF DUP2 GT ISZERO PUSH2 0xFCD JUMPI PUSH0 DUP1 REVERT JUMPDEST PUSH2 0xFD9 DUP7 DUP3 DUP8 ADD PUSH2 0xDC4 JUMP JUMPDEST SWAP1 SWAP8 SWAP1 SWAP7 POP PUSH1 0x20 SWAP6 SWAP1 SWAP6 ADD CALLDATALOAD SWAP5 SWAP4 POP POP POP POP JUMP JUMPDEST PUSH0 DUP1 PUSH0 DUP1 PUSH1 0x40 DUP6 DUP8 SUB SLT ISZERO PUSH2 0x1000 JUMPI PUSH0 DUP1 REVERT JUMPDEST DUP5 CALLDATALOAD PUSH8 0xFFFFFFFFFFFFFFFF DUP1 DUP3 GT ISZERO PUSH2 0x1017 JUMPI PUSH0 DUP1 REVERT JUMPDEST PUSH2 0x1023 DUP9 DUP4 DUP10 ADD PUSH2 0xDC4 JUMP JUMPDEST SWAP1 SWAP7 POP SWAP5 POP PUSH1 0x20 DUP8 ADD CALLDATALOAD SWAP2 POP DUP1 DUP3 GT ISZERO PUSH2 0x103B JUMPI PUSH0 DUP1 REVERT JUMPDEST DUP2 DUP8 ADD SWAP2 POP DUP8 PUSH1 0x1F DUP4 ADD SLT PUSH2 0x104E JUMPI PUSH0 DUP1 REVERT JUMPDEST DUP2 CALLDATALOAD DUP2 DUP2 GT ISZERO PUSH2 0x105C JUMPI PUSH0 DUP1 REVERT JUMPDEST DUP9 PUSH1 0x20 DUP3 PUSH1 0x5 SHL DUP6 ADD ADD GT ISZERO PUSH2 0x1070 JUMPI PUSH0 DUP1 REVERT JUMPDEST SWAP6 SWAP9 SWAP5 SWAP8 POP POP PUSH1 0x20 ADD SWAP5 POP POP POP JUMP JUMPDEST PUSH0 DUP1 PUSH1 0x40 DUP4 DUP6 SUB SLT ISZERO PUSH2 0x1090 JUMPI PUSH0 DUP1 REVERT JUMPDEST DUP3 CALLDATALOAD PUSH8 0xFFFFFFFFFFFFFFFF DUP2 GT ISZERO PUSH2 0x10A6 JUMPI PUSH0 DUP1 REVERT JUMPDEST PUSH2 0x10B2 DUP6 DUP3 DUP7 ADD PUSH2 0xEA7 JUMP JUMPDEST SWAP3 POP POP PUSH2 0x10C1 PUSH1 0x20 DUP5 ADD PUSH2 0xF6A JUMP JUMPDEST SWAP1 POP SWAP3 POP SWAP3 SWAP1 POP JUMP JUMPDEST PUSH0 DUP1 PUSH0 PUSH1 0x60 DUP5 DUP7 SUB SLT ISZERO PUSH2 0x10DC JUMPI PUSH0 DUP1 REVERT JUMPDEST DUP4 CALLDATALOAD PUSH8 0xFFFFFFFFFFFFFFFF DUP2 GT ISZERO PUSH2 0x10F2 JUMPI PUSH0 DUP1 REVERT JUMPDEST PUSH2 0x10FE DUP7 DUP3 DUP8 ADD PUSH2 0xEA7 JUMP JUMPDEST SWAP7 PUSH1 0x20 DUP7 ADD CALLDATALOAD SWAP7 POP PUSH1 0x40 SWAP1 SWAP6 ADD CALLDATALOAD SWAP5 SWAP4 POP POP POP POP JUMP JUMPDEST DUP2 DUP4 DUP3 CALLDATACOPY PUSH0 SWAP2 ADD SWAP1 DUP2 MSTORE SWAP2 SWAP1 POP JUMP JUMPDEST PUSH1 0x1 DUP2 DUP2 SHR SWAP1 DUP3 AND DUP1 PUSH2 0x1137 JUMPI PUSH1 0x7F DUP3 AND SWAP2 POP JUMPDEST PUSH1 0x20 DUP3 LT DUP2 SUB PUSH2 0x1155 JUMPI PUSH4 0x4E487B71 PUSH1 0xE0 SHL PUSH0 MSTORE PUSH1 0x22 PUSH1 0x4 MSTORE PUSH1 0x24 PUSH0 REVERT JUMPDEST POP SWAP2 SWAP1 POP JUMP JUMPDEST DUP1 DUP3 ADD DUP1 DUP3 GT ISZERO PUSH2 0x117A JUMPI PUSH4 0x4E487B71 PUSH1 0xE0 SHL PUSH0 MSTORE PUSH1 0x11 PUSH1 0x4 MSTORE PUSH1 0x24 PUSH0 REVERT JUMPDEST SWAP3 SWAP2 POP POP JUMP JUMPDEST DUP2 DUP4 MSTORE DUP2 DUP2 PUSH1 0x20 DUP6 ADD CALLDATACOPY POP PUSH0 DUP3 DUP3 ADD PUSH1 0x20 SWAP1 DUP2 ADD SWAP2 SWAP1 SWAP2 MSTORE PUSH1 0x1F SWAP1 SWAP2 ADD PUSH1 0x1F NOT AND SWAP1 SWAP2 ADD ADD SWAP1 JUMP JUMPDEST PUSH1 0x40 DUP2 MSTORE PUSH0 PUSH2 0x11BB PUSH1 0x40 DUP4 ADD DUP6 DUP8 PUSH2 0x1180 JUMP JUMPDEST SWAP1 POP DUP3 ISZERO ISZERO PUSH1 0x20 DUP4 ADD MSTORE SWAP5 SWAP4 POP POP POP POP JUMP JUMPDEST PUSH1 0x1F DUP3 GT ISZERO PUSH2 0x1211 JUMPI DUP1 PUSH0 MSTORE PUSH1 0x20 PUSH0 KECCAK256 PUSH1 0x1F DUP5 ADD PUSH1 0x5 SHR DUP2 ADD PUSH1 0x20 DUP6 LT ISZERO PUSH2 0x11F2 JUMPI POP DUP1 JUMPDEST PUSH1 0x1F DUP5 ADD PUSH1 0x5 SHR DUP3 ADD SWAP2 POP JUMPDEST DUP2 DUP2 LT ISZERO PUSH2 0xA28 JUMPI PUSH0 DUP2 SSTORE PUSH1 0x1 ADD PUSH2 0x11FE JUMP JUMPDEST POP POP POP JUMP JUMPDEST DUP2 MLOAD PUSH8 0xFFFFFFFFFFFFFFFF DUP2 GT ISZERO PUSH2 0x1230 JUMPI PUSH2 0x1230 PUSH2 0xE93 JUMP JUMPDEST PUSH2 0x1244 DUP2 PUSH2 0x123E DUP5 SLOAD PUSH2 0x1123 JUMP JUMPDEST DUP5 PUSH2 0x11CD JUMP JUMPDEST PUSH1 0x20 DUP1 PUSH1 0x1F DUP4 GT PUSH1 0x1 DUP2 EQ PUSH2 0x1277 JUMPI PUSH0 DUP5 ISZERO PUSH2 0x1260 JUMPI POP DUP6 DUP4 ADD MLOAD JUMPDEST PUSH0 NOT PUSH1 0x3 DUP7 SWAP1 SHL SHR NOT AND PUSH1 0x1 DUP6 SWAP1 SHL OR DUP6 SSTORE PUSH2 0x12CE JUMP JUMPDEST PUSH0 DUP6 DUP2 MSTORE PUSH1 0x20 DUP2 KECCAK256 PUSH1 0x1F NOT DUP7 AND SWAP2 JUMPDEST DUP3 DUP2 LT ISZERO PUSH2 0x12A5 JUMPI DUP9 DUP7 ADD MLOAD DUP3 SSTORE SWAP5 DUP5 ADD SWAP5 PUSH1 0x1 SWAP1 SWAP2 ADD SWAP1 DUP5 ADD PUSH2 0x1286 JUMP JUMPDEST POP DUP6 DUP3 LT ISZERO PUSH2 0x12C2 JUMPI DUP8 DUP6 ADD MLOAD PUSH0 NOT PUSH1 0x3 DUP9 SWAP1 SHL PUSH1 0xF8 AND SHR NOT AND DUP2 SSTORE JUMPDEST POP POP PUSH1 0x1 DUP5 PUSH1 0x1 SHL ADD DUP6 SSTORE JUMPDEST POP POP POP POP POP POP JUMP JUMPDEST PUSH0 DUP3 PUSH2 0x12F0 JUMPI PUSH4 0x4E487B71 PUSH1 0xE0 SHL PUSH0 MSTORE PUSH1 0x12 PUSH1 0x4 MSTORE PUSH1 0x24 PUSH0 REVERT JUMPDEST POP DIV SWAP1 JUMP JUMPDEST PUSH4 0x4E487B71 PUSH1 0xE0 SHL PUSH0 MSTORE PUSH1 0x32 PUSH1 0x4 MSTORE PUSH1 0x24 PUSH0 REVERT JUMPDEST PUSH1 0x60 DUP2 MSTORE PUSH0 PUSH2 0x131C PUSH1 0x60 DUP4 ADD DUP8 DUP10 PUSH2 0x1180 JUMP JUMPDEST PUSH1 0x20 DUP4 DUP3 SUB DUP2 DUP6 ADD MSTORE DUP2 DUP7 DUP4 MSTORE DUP2 DUP4 ADD SWAP1 POP DUP2 DUP8 PUSH1 0x5 SHL DUP5 ADD ADD DUP9 PUSH0 JUMPDEST DUP10 DUP2 LT ISZERO PUSH2 0x13A6 JUMPI DUP6 DUP4 SUB PUSH1 0x1F NOT ADD DUP5 MSTORE DUP2 CALLDATALOAD CALLDATASIZE DUP13 SWAP1 SUB PUSH1 0x1E NOT ADD DUP2 SLT PUSH2 0x135E JUMPI PUSH0 DUP1 REVERT JUMPDEST DUP12 ADD DUP6 DUP2 ADD SWAP1 CALLDATALOAD PUSH8 0xFFFFFFFFFFFFFFFF DUP2 GT ISZERO PUSH2 0x1379 JUMPI PUSH0 DUP1 REVERT JUMPDEST DUP1 CALLDATASIZE SUB DUP3 SGT ISZERO PUSH2 0x1387 JUMPI PUSH0 DUP1 REVERT JUMPDEST PUSH2 0x1392 DUP6 DUP3 DUP5 PUSH2 0x1180 JUMP JUMPDEST SWAP6 DUP8 ADD SWAP6 SWAP5 POP POP POP SWAP1 DUP5 ADD SWAP1 PUSH1 0x1 ADD PUSH2 0x1339 JUMP JUMPDEST POP POP PUSH1 0x1 PUSH1 0x1 PUSH1 0xA0 SHL SUB DUP8 AND PUSH1 0x40 DUP8 ADD MSTORE SWAP4 POP PUSH2 0x13C2 SWAP3 POP POP POP JUMP JUMPDEST SWAP7 SWAP6 POP POP POP POP POP POP JUMP INVALID LOG2 PUSH5 0x6970667358 0x22 SLT KECCAK256 SHL 0xCF DUP6 COINBASE SSTORE SWAP16 0xF9 DUP11 TIMESTAMP PC SWAP15 DIV 0xCB 0x2B 0xD8 0xE1 0xFB 0x21 DUP9 0xB1 LT CALLVALUE SWAP5 0x26 JUMPI CREATE 0xF7 0xEC DELEGATECALL 0xF EXTCODESIZE PUSH18 0x64736F6C6343000818003300000000000000 "},"methodIdentifiers":{"REQUIRED_CONSENSUS()":"1981dbbd","VERIFICATION_TIMEOUT()":"1e1d6e1d","authorizedNodes(address)":"7e53a740","cidRootVotes(string,bytes32,uint256)":"fc28b0d8","claimRefund(string)":"4e8b87fe","cleanIsNotProcessedRequest(string)":"9f8910f0","getRequestDetails(string)":"2bf4b910","hasVoted(string,address)":"9af06cd9","requests(string)":"692d51d2","results(string)":"4b13d17d","submitHtmlRoot(string,bytes32)":"83a00019","submitRequest(string,string[])":"85810ba3"}}}}}