{"project/src/contracts/OpenSEO.sol":{"OpenSEO":{"abi":[{"inputs":[{"internalType":"address[3]","name":"_nodes","type":"address[3]"}],"stateMutability":"nonpayable","type":"constructor"},{"anonymous":false,"inputs":[{"indexed":true,"internalType":"uint256","name":"requestId","type":"uint256"},{"indexed":false,"internalType":"bool","name":"success","type":"bool"}],"name":"RequestCompleted","type":"event"},{"anonymous":false,"inputs":[{"indexed":true,"internalType":"uint256","name":"requestId","type":"uint256"},{"indexed":false,"internalType":"string","name":"cid","type":"string"},{"indexed":false,"internalType":"string[]","name":"keywords","type":"string[]"},{"indexed":false,"internalType":"address","name":"owner","type":"address"}],"name":"VerificationRequested","type":"event"},{"inputs":[],"name":"REQUIRED_CONSENSUS","outputs":[{"internalType":"uint256","name":"","type":"uint256"}],"stateMutability":"view","type":"function"},{"inputs":[],"name":"VERIFICATION_TIMEOUT","outputs":[{"internalType":"uint256","name":"","type":"uint256"}],"stateMutability":"view","type":"function"},{"inputs":[{"internalType":"address","name":"","type":"address"}],"name":"authorizedNodes","outputs":[{"internalType":"bool","name":"","type":"bool"}],"stateMutability":"view","type":"function"},{"inputs":[{"internalType":"string","name":"","type":"string"}],"name":"cidToRequestID","outputs":[{"internalType":"uint256","name":"","type":"uint256"}],"stateMutability":"view","type":"function"},{"inputs":[{"internalType":"uint256","name":"reqID","type":"uint256"}],"name":"getRequestDetails","outputs":[{"internalType":"address","name":"owner","type":"address"},{"internalType":"uint256","name":"timestamp","type":"uint256"},{"internalType":"bool","name":"isProcessed","type":"bool"},{"internalType":"string","name":"cid","type":"string"},{"internalType":"bytes32","name":"resultRoot","type":"bytes32"}],"stateMutability":"view","type":"function"},{"inputs":[{"internalType":"uint256","name":"","type":"uint256"},{"internalType":"uint256","name":"","type":"uint256"}],"name":"requestVotes","outputs":[{"internalType":"address","name":"node","type":"address"},{"internalType":"bytes32","name":"root","type":"bytes32"}],"stateMutability":"view","type":"function"},{"inputs":[{"internalType":"uint256","name":"","type":"uint256"}],"name":"requests","outputs":[{"internalType":"address","name":"owner","type":"address"},{"internalType":"uint256","name":"timestamp","type":"uint256"},{"internalType":"uint256","name":"paymentAmount","type":"uint256"},{"internalType":"bool","name":"isProcessed","type":"bool"},{"internalType":"string","name":"cid","type":"string"},{"internalType":"bytes32","name":"resultRoot","type":"bytes32"}],"stateMutability":"view","type":"function"},{"inputs":[{"internalType":"string","name":"cid","type":"string"},{"internalType":"bytes32","name":"htmlRoot","type":"bytes32"}],"name":"submitVerification","outputs":[],"stateMutability":"nonpayable","type":"function"},{"inputs":[{"internalType":"string","name":"cid","type":"string"},{"internalType":"string[]","name":"keywords","type":"string[]"}],"name":"verifyRequest","outputs":[],"stateMutability":"payable","type":"function"}],"evm":{"bytecode":{"linkReferences":{},"object":"608060405234801562000010575f80fd5b506040516200124a3803806200124a8339810160408190526200003391620000b4565b5f5b6003811015620000905760015f8084846003811062000058576200005862000148565b602090810291909101516001600160a01b031682528101919091526040015f20805460ff191691151591909117905560010162000035565b50506200015c565b80516001600160a01b0381168114620000af575f80fd5b919050565b5f60608284031215620000c5575f80fd5b82601f830112620000d4575f80fd5b604051606081016001600160401b03811182821017156200010357634e487b7160e01b5f52604160045260245ffd5b60405280606084018581111562000118575f80fd5b845b818110156200013d576200012e8162000098565b8352602092830192016200011a565b509195945050505050565b634e487b7160e01b5f52603260045260245ffd5b6110e0806200016a5f395ff3fe608060405260043610610084575f3560e01c80636718ad59116100575780636718ad59146100f85780637e53a7401461012f57806381d12c581461016d578063e9cd1c261461019e578063f34d4c63146101dc575f80fd5b806303cbc784146100885780631981dbbd146100a95780631e1d6e1d146100d057806324a7b434146100e5575b5f80fd5b348015610093575f80fd5b506100a76100a2366004610b1b565b61020c565b005b3480156100b4575f80fd5b506100bd600281565b6040519081526020015b60405180910390f35b3480156100db575f80fd5b506100bd61012c81565b6100a76100f3366004610b63565b610612565b348015610103575f80fd5b506100bd610112366004610c09565b805160208183018101805160028252928201919093012091525481565b34801561013a575f80fd5b5061015d610149366004610cb4565b5f6020819052908152604090205460ff1681565b60405190151581526020016100c7565b348015610178575f80fd5b5061018c610187366004610ce1565b610884565b6040516100c796959493929190610d3b565b3480156101a9575f80fd5b506101bd6101b8366004610d82565b610961565b604080516001600160a01b0390931683526020830191909152016100c7565b3480156101e7575f80fd5b506101fb6101f6366004610ce1565b6109a3565b6040516100c7959493929190610da2565b335f9081526020819052604090205460ff1661025e5760405162461bcd60e51b815260206004820152600c60248201526b155b985d5d1a1bdc9a5e995960a21b60448201526064015b60405180910390fd5b5f60028484604051610271929190610de2565b90815260200160405180910390205490505f81116102c55760405162461bcd60e51b815260206004820152601160248201527014995c5d595cdd081b9bdd08199bdd5b99607a1b6044820152606401610255565b5f6102d1600183610e05565b90505f600182815481106102e7576102e7610e1e565b5f9182526020909120600690910201600381015490915060ff16156103425760405162461bcd60e51b815260206004820152601160248201527014995c5d595cdd081c1c9bd8d95cdcd959607a1b6044820152606401610255565b61012c81600101546103549190610e32565b4211156103e25760038101805460ff19166001179055805460028201546040516001600160a01b039092169181156108fc0291905f818181858888f193505050501580156103a4573d5f803e3d5ffd5b506040515f815282907f6dd7918a82b02b53ca2299f04355a0a04a470c45dc3723dc69d1ace94f92bad29060200160405180910390a2505050505050565b5f828152600360205260408120905b815481101561046c57336001600160a01b031682828154811061041657610416610e1e565b5f9182526020909120600290910201546001600160a01b0316036104645760405162461bcd60e51b8152602060048201526005602482015264159bdd195960da1b6044820152606401610255565b6001016103f1565b506040805180820190915233815260208082018781528354600180820186555f8681529384209451600290920290940180546001600160a01b0319166001600160a01b039092169190911781559051920191909155805b825481101561050a57868382815481106104df576104df610e1e565b905f5260205f209060020201600101540361050257816104fe81610e45565b9250505b6001016104c3565b50600281106106075760038301805460ff191660011790556005830186905560028301545f9061053b908390610e5d565b90505f5b83548110156105ce578784828154811061055b5761055b610e1e565b905f5260205f20906002020160010154036105c65783818154811061058257610582610e1e565b5f91825260208220600290910201546040516001600160a01b039091169184156108fc02918591818181858888f193505050501580156105c4573d5f803e3d5ffd5b505b60010161053f565b506040516001815285907f6dd7918a82b02b53ca2299f04355a0a04a470c45dc3723dc69d1ace94f92bad29060200160405180910390a2505b50505050505b505050565b5f34116106615760405162461bcd60e51b815260206004820152601760248201527f5061796d656e7420616d6f756e742072657175697265640000000000000000006044820152606401610255565b60028484604051610673929190610de2565b9081526020016040518091039020545f14806106df57506001806002868660405161069f929190610de2565b9081526020016040518091039020546106b89190610e05565b815481106106c8576106c8610e1e565b5f91825260209091206003600690920201015460ff165b61071f5760405162461bcd60e51b8152602060048201526011602482015270139bc81858dd1a5d99481c995c5d595cdd607a1b6044820152606401610255565b600180546040805160c0810182523381524260208083019190915234828401525f60608301528251601f89018290048202810182019093528783529293929091608083019189908990819084018382808284375f920182905250938552505050602091820181905283546001808201865594825290829020835160069092020180546001600160a01b0319166001600160a01b03909216919091178155908201519281019290925560408101516002830155606081015160038301805460ff1916911515919091179055608081015190919060048201906108009082610eff565b5060a09190910151600590910155610819816001610e32565b6002868660405161082b929190610de2565b908152602001604051809103902081905550807ffd320264c427fdc25163d24b5346a8a83d139f65245efabf4fd5a066dad872128686868633604051610875959493929190610fe7565b60405180910390a25050505050565b60018181548110610893575f80fd5b5f918252602090912060069091020180546001820154600283015460038401546004850180546001600160a01b0390951696509294919360ff90911692906108da90610e7c565b80601f016020809104026020016040519081016040528092919081815260200182805461090690610e7c565b80156109515780601f1061092857610100808354040283529160200191610951565b820191905f5260205f20905b81548152906001019060200180831161093457829003601f168201915b5050505050908060050154905086565b6003602052815f5260405f20818154811061097a575f80fd5b5f918252602090912060029091020180546001909101546001600160a01b039091169250905082565b5f805f60605f80600187815481106109bd576109bd610e1e565b5f9182526020918290206040805160c081018252600690930290910180546001600160a01b03168352600181015493830193909352600283015490820152600382015460ff1615156060820152600482018054919291608084019190610a2290610e7c565b80601f0160208091040260200160405190810160405280929190818152602001828054610a4e90610e7c565b8015610a995780601f10610a7057610100808354040283529160200191610a99565b820191905f5260205f20905b815481529060010190602001808311610a7c57829003601f168201915b5050509183525050600591909101546020918201528151908201516060830151608084015160a090940151929b919a509850919650945092505050565b5f8083601f840112610ae6575f80fd5b50813567ffffffffffffffff811115610afd575f80fd5b602083019150836020828501011115610b14575f80fd5b9250929050565b5f805f60408486031215610b2d575f80fd5b833567ffffffffffffffff811115610b43575f80fd5b610b4f86828701610ad6565b909790965060209590950135949350505050565b5f805f8060408587031215610b76575f80fd5b843567ffffffffffffffff80821115610b8d575f80fd5b610b9988838901610ad6565b90965094506020870135915080821115610bb1575f80fd5b818701915087601f830112610bc4575f80fd5b813581811115610bd2575f80fd5b8860208260051b8501011115610be6575f80fd5b95989497505060200194505050565b634e487b7160e01b5f52604160045260245ffd5b5f60208284031215610c19575f80fd5b813567ffffffffffffffff80821115610c30575f80fd5b818401915084601f830112610c43575f80fd5b813581811115610c5557610c55610bf5565b604051601f8201601f19908116603f01168101908382118183101715610c7d57610c7d610bf5565b81604052828152876020848701011115610c95575f80fd5b826020860160208301375f928101602001929092525095945050505050565b5f60208284031215610cc4575f80fd5b81356001600160a01b0381168114610cda575f80fd5b9392505050565b5f60208284031215610cf1575f80fd5b5035919050565b5f81518084525f5b81811015610d1c57602081850181015186830182015201610d00565b505f602082860101526020601f19601f83011685010191505092915050565b60018060a01b0387168152856020820152846040820152831515606082015260c060808201525f610d6f60c0830185610cf8565b90508260a0830152979650505050505050565b5f8060408385031215610d93575f80fd5b50508035926020909101359150565b60018060a01b0386168152846020820152831515604082015260a060608201525f610dd060a0830185610cf8565b90508260808301529695505050505050565b818382375f9101908152919050565b634e487b7160e01b5f52601160045260245ffd5b81810381811115610e1857610e18610df1565b92915050565b634e487b7160e01b5f52603260045260245ffd5b80820180821115610e1857610e18610df1565b5f60018201610e5657610e56610df1565b5060010190565b5f82610e7757634e487b7160e01b5f52601260045260245ffd5b500490565b600181811c90821680610e9057607f821691505b602082108103610eae57634e487b7160e01b5f52602260045260245ffd5b50919050565b601f82111561060d57805f5260205f20601f840160051c81016020851015610ed95750805b601f840160051c820191505b81811015610ef8575f8155600101610ee5565b5050505050565b815167ffffffffffffffff811115610f1957610f19610bf5565b610f2d81610f278454610e7c565b84610eb4565b602080601f831160018114610f60575f8415610f495750858301515b5f19600386901b1c1916600185901b178555610fb7565b5f85815260208120601f198616915b82811015610f8e57888601518255948401946001909101908401610f6f565b5085821015610fab57878501515f19600388901b60f8161c191681555b505060018460011b0185555b505050505050565b81835281816020850137505f828201602090810191909152601f909101601f19169091010190565b606081525f610ffa606083018789610fbf565b602083820381850152818683528183019050818760051b840101885f5b8981101561108457858303601f190184528135368c9003601e1901811261103c575f80fd5b8b01858101903567ffffffffffffffff811115611057575f80fd5b803603821315611065575f80fd5b611070858284610fbf565b958701959450505090840190600101611017565b50506001600160a01b038716604087015293506110a092505050565b969550505050505056fea26469706673582212205286f887288e2ff592796c99ad6af76bac536d9f0eba6630d6508286472f6c2b64736f6c63430008180033","opcodes":"PUSH1 0x80 PUSH1 0x40 MSTORE CALLVALUE DUP1 ISZERO PUSH3 0x10 JUMPI PUSH0 DUP1 REVERT JUMPDEST POP PUSH1 0x40 MLOAD PUSH3 0x124A CODESIZE SUB DUP1 PUSH3 0x124A DUP4 CODECOPY DUP2 ADD PUSH1 0x40 DUP2 SWAP1 MSTORE PUSH3 0x33 SWAP2 PUSH3 0xB4 JUMP JUMPDEST PUSH0 JUMPDEST PUSH1 0x3 DUP2 LT ISZERO PUSH3 0x90 JUMPI PUSH1 0x1 PUSH0 DUP1 DUP5 DUP5 PUSH1 0x3 DUP2 LT PUSH3 0x58 JUMPI PUSH3 0x58 PUSH3 0x148 JUMP JUMPDEST PUSH1 0x20 SWAP1 DUP2 MUL SWAP2 SWAP1 SWAP2 ADD MLOAD PUSH1 0x1 PUSH1 0x1 PUSH1 0xA0 SHL SUB AND DUP3 MSTORE DUP2 ADD SWAP2 SWAP1 SWAP2 MSTORE PUSH1 0x40 ADD PUSH0 KECCAK256 DUP1 SLOAD PUSH1 0xFF NOT AND SWAP2 ISZERO ISZERO SWAP2 SWAP1 SWAP2 OR SWAP1 SSTORE PUSH1 0x1 ADD PUSH3 0x35 JUMP JUMPDEST POP POP PUSH3 0x15C JUMP JUMPDEST DUP1 MLOAD PUSH1 0x1 PUSH1 0x1 PUSH1 0xA0 SHL SUB DUP2 AND DUP2 EQ PUSH3 0xAF JUMPI PUSH0 DUP1 REVERT JUMPDEST SWAP2 SWAP1 POP JUMP JUMPDEST PUSH0 PUSH1 0x60 DUP3 DUP5 SUB SLT ISZERO PUSH3 0xC5 JUMPI PUSH0 DUP1 REVERT JUMPDEST DUP3 PUSH1 0x1F DUP4 ADD SLT PUSH3 0xD4 JUMPI PUSH0 DUP1 REVERT JUMPDEST PUSH1 0x40 MLOAD PUSH1 0x60 DUP2 ADD PUSH1 0x1 PUSH1 0x1 PUSH1 0x40 SHL SUB DUP2 GT DUP3 DUP3 LT OR ISZERO PUSH3 0x103 JUMPI PUSH4 0x4E487B71 PUSH1 0xE0 SHL PUSH0 MSTORE PUSH1 0x41 PUSH1 0x4 MSTORE PUSH1 0x24 PUSH0 REVERT JUMPDEST PUSH1 0x40 MSTORE DUP1 PUSH1 0x60 DUP5 ADD DUP6 DUP2 GT ISZERO PUSH3 0x118 JUMPI PUSH0 DUP1 REVERT JUMPDEST DUP5 JUMPDEST DUP2 DUP2 LT ISZERO PUSH3 0x13D JUMPI PUSH3 0x12E DUP2 PUSH3 0x98 JUMP JUMPDEST DUP4 MSTORE PUSH1 0x20 SWAP3 DUP4 ADD SWAP3 ADD PUSH3 0x11A JUMP JUMPDEST POP SWAP2 SWAP6 SWAP5 POP POP POP POP POP JUMP JUMPDEST PUSH4 0x4E487B71 PUSH1 0xE0 SHL PUSH0 MSTORE PUSH1 0x32 PUSH1 0x4 MSTORE PUSH1 0x24 PUSH0 REVERT JUMPDEST PUSH2 0x10E0 DUP1 PUSH3 0x16A PUSH0 CODECOPY PUSH0 RETURN INVALID PUSH1 0x80 PUSH1 0x40 MSTORE PUSH1 0x4 CALLDATASIZE LT PUSH2 0x84 JUMPI PUSH0 CALLDATALOAD PUSH1 0xE0 SHR DUP1 PUSH4 0x6718AD59 GT PUSH2 0x57 JUMPI DUP1 PUSH4 0x6718AD59 EQ PUSH2 0xF8 JUMPI DUP1 PUSH4 0x7E53A740 EQ PUSH2 0x12F JUMPI DUP1 PUSH4 0x81D12C58 EQ PUSH2 0x16D JUMPI DUP1 PUSH4 0xE9CD1C26 EQ PUSH2 0x19E JUMPI DUP1 PUSH4 0xF34D4C63 EQ PUSH2 0x1DC JUMPI PUSH0 DUP1 REVERT JUMPDEST DUP1 PUSH4 0x3CBC784 EQ PUSH2 0x88 JUMPI DUP1 PUSH4 0x1981DBBD EQ PUSH2 0xA9 JUMPI DUP1 PUSH4 0x1E1D6E1D EQ PUSH2 0xD0 JUMPI DUP1 PUSH4 0x24A7B434 EQ PUSH2 0xE5 JUMPI JUMPDEST PUSH0 DUP1 REVERT JUMPDEST CALLVALUE DUP1 ISZERO PUSH2 0x93 JUMPI PUSH0 DUP1 REVERT JUMPDEST POP PUSH2 0xA7 PUSH2 0xA2 CALLDATASIZE PUSH1 0x4 PUSH2 0xB1B JUMP JUMPDEST PUSH2 0x20C JUMP JUMPDEST STOP JUMPDEST CALLVALUE DUP1 ISZERO PUSH2 0xB4 JUMPI PUSH0 DUP1 REVERT JUMPDEST POP PUSH2 0xBD PUSH1 0x2 DUP2 JUMP JUMPDEST PUSH1 0x40 MLOAD SWAP1 DUP2 MSTORE PUSH1 0x20 ADD JUMPDEST PUSH1 0x40 MLOAD DUP1 SWAP2 SUB SWAP1 RETURN JUMPDEST CALLVALUE DUP1 ISZERO PUSH2 0xDB JUMPI PUSH0 DUP1 REVERT JUMPDEST POP PUSH2 0xBD PUSH2 0x12C DUP2 JUMP JUMPDEST PUSH2 0xA7 PUSH2 0xF3 CALLDATASIZE PUSH1 0x4 PUSH2 0xB63 JUMP JUMPDEST PUSH2 0x612 JUMP JUMPDEST CALLVALUE DUP1 ISZERO PUSH2 0x103 JUMPI PUSH0 DUP1 REVERT JUMPDEST POP PUSH2 0xBD PUSH2 0x112 CALLDATASIZE PUSH1 0x4 PUSH2 0xC09 JUMP JUMPDEST DUP1 MLOAD PUSH1 0x20 DUP2 DUP4 ADD DUP2 ADD DUP1 MLOAD PUSH1 0x2 DUP3 MSTORE SWAP3 DUP3 ADD SWAP2 SWAP1 SWAP4 ADD KECCAK256 SWAP2 MSTORE SLOAD DUP2 JUMP JUMPDEST CALLVALUE DUP1 ISZERO PUSH2 0x13A JUMPI PUSH0 DUP1 REVERT JUMPDEST POP PUSH2 0x15D PUSH2 0x149 CALLDATASIZE PUSH1 0x4 PUSH2 0xCB4 JUMP JUMPDEST PUSH0 PUSH1 0x20 DUP2 SWAP1 MSTORE SWAP1 DUP2 MSTORE PUSH1 0x40 SWAP1 KECCAK256 SLOAD PUSH1 0xFF AND DUP2 JUMP JUMPDEST PUSH1 0x40 MLOAD SWAP1 ISZERO ISZERO DUP2 MSTORE PUSH1 0x20 ADD PUSH2 0xC7 JUMP JUMPDEST CALLVALUE DUP1 ISZERO PUSH2 0x178 JUMPI PUSH0 DUP1 REVERT JUMPDEST POP PUSH2 0x18C PUSH2 0x187 CALLDATASIZE PUSH1 0x4 PUSH2 0xCE1 JUMP JUMPDEST PUSH2 0x884 JUMP JUMPDEST PUSH1 0x40 MLOAD PUSH2 0xC7 SWAP7 SWAP6 SWAP5 SWAP4 SWAP3 SWAP2 SWAP1 PUSH2 0xD3B JUMP JUMPDEST CALLVALUE DUP1 ISZERO PUSH2 0x1A9 JUMPI PUSH0 DUP1 REVERT JUMPDEST POP PUSH2 0x1BD PUSH2 0x1B8 CALLDATASIZE PUSH1 0x4 PUSH2 0xD82 JUMP JUMPDEST PUSH2 0x961 JUMP JUMPDEST PUSH1 0x40 DUP1 MLOAD PUSH1 0x1 PUSH1 0x1 PUSH1 0xA0 SHL SUB SWAP1 SWAP4 AND DUP4 MSTORE PUSH1 0x20 DUP4 ADD SWAP2 SWAP1 SWAP2 MSTORE ADD PUSH2 0xC7 JUMP JUMPDEST CALLVALUE DUP1 ISZERO PUSH2 0x1E7 JUMPI PUSH0 DUP1 REVERT JUMPDEST POP PUSH2 0x1FB PUSH2 0x1F6 CALLDATASIZE PUSH1 0x4 PUSH2 0xCE1 JUMP JUMPDEST PUSH2 0x9A3 JUMP JUMPDEST PUSH1 0x40 MLOAD PUSH2 0xC7 SWAP6 SWAP5 SWAP4 SWAP3 SWAP2 SWAP1 PUSH2 0xDA2 JUMP JUMPDEST CALLER PUSH0 SWAP1 DUP2 MSTORE PUSH1 0x20 DUP2 SWAP1 MSTORE PUSH1 0x40 SWAP1 KECCAK256 SLOAD PUSH1 0xFF AND PUSH2 0x25E JUMPI PUSH1 0x40 MLOAD PUSH3 0x461BCD PUSH1 0xE5 SHL DUP2 MSTORE PUSH1 0x20 PUSH1 0x4 DUP3 ADD MSTORE PUSH1 0xC PUSH1 0x24 DUP3 ADD MSTORE PUSH12 0x155B985D5D1A1BDC9A5E9959 PUSH1 0xA2 SHL PUSH1 0x44 DUP3 ADD MSTORE PUSH1 0x64 ADD JUMPDEST PUSH1 0x40 MLOAD DUP1 SWAP2 SUB SWAP1 REVERT JUMPDEST PUSH0 PUSH1 0x2 DUP5 DUP5 PUSH1 0x40 MLOAD PUSH2 0x271 SWAP3 SWAP2 SWAP1 PUSH2 0xDE2 JUMP JUMPDEST SWAP1 DUP2 MSTORE PUSH1 0x20 ADD PUSH1 0x40 MLOAD DUP1 SWAP2 SUB SWAP1 KECCAK256 SLOAD SWAP1 POP PUSH0 DUP2 GT PUSH2 0x2C5 JUMPI PUSH1 0x40 MLOAD PUSH3 0x461BCD PUSH1 0xE5 SHL DUP2 MSTORE PUSH1 0x20 PUSH1 0x4 DUP3 ADD MSTORE PUSH1 0x11 PUSH1 0x24 DUP3 ADD MSTORE PUSH17 0x14995C5D595CDD081B9BDD08199BDD5B99 PUSH1 0x7A SHL PUSH1 0x44 DUP3 ADD MSTORE PUSH1 0x64 ADD PUSH2 0x255 JUMP JUMPDEST PUSH0 PUSH2 0x2D1 PUSH1 0x1 DUP4 PUSH2 0xE05 JUMP JUMPDEST SWAP1 POP PUSH0 PUSH1 0x1 DUP3 DUP2 SLOAD DUP2 LT PUSH2 0x2E7 JUMPI PUSH2 0x2E7 PUSH2 0xE1E JUMP JUMPDEST PUSH0 SWAP2 DUP3 MSTORE PUSH1 0x20 SWAP1 SWAP2 KECCAK256 PUSH1 0x6 SWAP1 SWAP2 MUL ADD PUSH1 0x3 DUP2 ADD SLOAD SWAP1 SWAP2 POP PUSH1 0xFF AND ISZERO PUSH2 0x342 JUMPI PUSH1 0x40 MLOAD PUSH3 0x461BCD PUSH1 0xE5 SHL DUP2 MSTORE PUSH1 0x20 PUSH1 0x4 DUP3 ADD MSTORE PUSH1 0x11 PUSH1 0x24 DUP3 ADD MSTORE PUSH17 0x14995C5D595CDD081C1C9BD8D95CDCD959 PUSH1 0x7A SHL PUSH1 0x44 DUP3 ADD MSTORE PUSH1 0x64 ADD PUSH2 0x255 JUMP JUMPDEST PUSH2 0x12C DUP2 PUSH1 0x1 ADD SLOAD PUSH2 0x354 SWAP2 SWAP1 PUSH2 0xE32 JUMP JUMPDEST TIMESTAMP GT ISZERO PUSH2 0x3E2 JUMPI PUSH1 0x3 DUP2 ADD DUP1 SLOAD PUSH1 0xFF NOT AND PUSH1 0x1 OR SWAP1 SSTORE DUP1 SLOAD PUSH1 0x2 DUP3 ADD SLOAD PUSH1 0x40 MLOAD PUSH1 0x1 PUSH1 0x1 PUSH1 0xA0 SHL SUB SWAP1 SWAP3 AND SWAP2 DUP2 ISZERO PUSH2 0x8FC MUL SWAP2 SWAP1 PUSH0 DUP2 DUP2 DUP2 DUP6 DUP9 DUP9 CALL SWAP4 POP POP POP POP ISZERO DUP1 ISZERO PUSH2 0x3A4 JUMPI RETURNDATASIZE PUSH0 DUP1 RETURNDATACOPY RETURNDATASIZE PUSH0 REVERT JUMPDEST POP PUSH1 0x40 MLOAD PUSH0 DUP2 MSTORE DUP3 SWAP1 PUSH32 0x6DD7918A82B02B53CA2299F04355A0A04A470C45DC3723DC69D1ACE94F92BAD2 SWAP1 PUSH1 0x20 ADD PUSH1 0x40 MLOAD DUP1 SWAP2 SUB SWAP1 LOG2 POP POP POP POP POP POP JUMP JUMPDEST PUSH0 DUP3 DUP2 MSTORE PUSH1 0x3 PUSH1 0x20 MSTORE PUSH1 0x40 DUP2 KECCAK256 SWAP1 JUMPDEST DUP2 SLOAD DUP2 LT ISZERO PUSH2 0x46C JUMPI CALLER PUSH1 0x1 PUSH1 0x1 PUSH1 0xA0 SHL SUB AND DUP3 DUP3 DUP2 SLOAD DUP2 LT PUSH2 0x416 JUMPI PUSH2 0x416 PUSH2 0xE1E JUMP JUMPDEST PUSH0 SWAP2 DUP3 MSTORE PUSH1 0x20 SWAP1 SWAP2 KECCAK256 PUSH1 0x2 SWAP1 SWAP2 MUL ADD SLOAD PUSH1 0x1 PUSH1 0x1 PUSH1 0xA0 SHL SUB AND SUB PUSH2 0x464 JUMPI PUSH1 0x40 MLOAD PUSH3 0x461BCD PUSH1 0xE5 SHL DUP2 MSTORE PUSH1 0x20 PUSH1 0x4 DUP3 ADD MSTORE PUSH1 0x5 PUSH1 0x24 DUP3 ADD MSTORE PUSH5 0x159BDD1959 PUSH1 0xDA SHL PUSH1 0x44 DUP3 ADD MSTORE PUSH1 0x64 ADD PUSH2 0x255 JUMP JUMPDEST PUSH1 0x1 ADD PUSH2 0x3F1 JUMP JUMPDEST POP PUSH1 0x40 DUP1 MLOAD DUP1 DUP3 ADD SWAP1 SWAP2 MSTORE CALLER DUP2 MSTORE PUSH1 0x20 DUP1 DUP3 ADD DUP8 DUP2 MSTORE DUP4 SLOAD PUSH1 0x1 DUP1 DUP3 ADD DUP7 SSTORE PUSH0 DUP7 DUP2 MSTORE SWAP4 DUP5 KECCAK256 SWAP5 MLOAD PUSH1 0x2 SWAP1 SWAP3 MUL SWAP1 SWAP5 ADD DUP1 SLOAD PUSH1 0x1 PUSH1 0x1 PUSH1 0xA0 SHL SUB NOT AND PUSH1 0x1 PUSH1 0x1 PUSH1 0xA0 SHL SUB SWAP1 SWAP3 AND SWAP2 SWAP1 SWAP2 OR DUP2 SSTORE SWAP1 MLOAD SWAP3 ADD SWAP2 SWAP1 SWAP2 SSTORE DUP1 JUMPDEST DUP3 SLOAD DUP2 LT ISZERO PUSH2 0x50A JUMPI DUP7 DUP4 DUP3 DUP2 SLOAD DUP2 LT PUSH2 0x4DF JUMPI PUSH2 0x4DF PUSH2 0xE1E JUMP JUMPDEST SWAP1 PUSH0 MSTORE PUSH1 0x20 PUSH0 KECCAK256 SWAP1 PUSH1 0x2 MUL ADD PUSH1 0x1 ADD SLOAD SUB PUSH2 0x502 JUMPI DUP2 PUSH2 0x4FE DUP2 PUSH2 0xE45 JUMP JUMPDEST SWAP3 POP POP JUMPDEST PUSH1 0x1 ADD PUSH2 0x4C3 JUMP JUMPDEST POP PUSH1 0x2 DUP2 LT PUSH2 0x607 JUMPI PUSH1 0x3 DUP4 ADD DUP1 SLOAD PUSH1 0xFF NOT AND PUSH1 0x1 OR SWAP1 SSTORE PUSH1 0x5 DUP4 ADD DUP7 SWAP1 SSTORE PUSH1 0x2 DUP4 ADD SLOAD PUSH0 SWAP1 PUSH2 0x53B SWAP1 DUP4 SWAP1 PUSH2 0xE5D JUMP JUMPDEST SWAP1 POP PUSH0 JUMPDEST DUP4 SLOAD DUP2 LT ISZERO PUSH2 0x5CE JUMPI DUP8 DUP5 DUP3 DUP2 SLOAD DUP2 LT PUSH2 0x55B JUMPI PUSH2 0x55B PUSH2 0xE1E JUMP JUMPDEST SWAP1 PUSH0 MSTORE PUSH1 0x20 PUSH0 KECCAK256 SWAP1 PUSH1 0x2 MUL ADD PUSH1 0x1 ADD SLOAD SUB PUSH2 0x5C6 JUMPI DUP4 DUP2 DUP2 SLOAD DUP2 LT PUSH2 0x582 JUMPI PUSH2 0x582 PUSH2 0xE1E JUMP JUMPDEST PUSH0 SWAP2 DUP3 MSTORE PUSH1 0x20 DUP3 KECCAK256 PUSH1 0x2 SWAP1 SWAP2 MUL ADD SLOAD PUSH1 0x40 MLOAD PUSH1 0x1 PUSH1 0x1 PUSH1 0xA0 SHL SUB SWAP1 SWAP2 AND SWAP2 DUP5 ISZERO PUSH2 0x8FC MUL SWAP2 DUP6 SWAP2 DUP2 DUP2 DUP2 DUP6 DUP9 DUP9 CALL SWAP4 POP POP POP POP ISZERO DUP1 ISZERO PUSH2 0x5C4 JUMPI RETURNDATASIZE PUSH0 DUP1 RETURNDATACOPY RETURNDATASIZE PUSH0 REVERT JUMPDEST POP JUMPDEST PUSH1 0x1 ADD PUSH2 0x53F JUMP JUMPDEST POP PUSH1 0x40 MLOAD PUSH1 0x1 DUP2 MSTORE DUP6 SWAP1 PUSH32 0x6DD7918A82B02B53CA2299F04355A0A04A470C45DC3723DC69D1ACE94F92BAD2 SWAP1 PUSH1 0x20 ADD PUSH1 0x40 MLOAD DUP1 SWAP2 SUB SWAP1 LOG2 POP JUMPDEST POP POP POP POP POP JUMPDEST POP POP POP JUMP JUMPDEST PUSH0 CALLVALUE GT PUSH2 0x661 JUMPI PUSH1 0x40 MLOAD PUSH3 0x461BCD PUSH1 0xE5 SHL DUP2 MSTORE PUSH1 0x20 PUSH1 0x4 DUP3 ADD MSTORE PUSH1 0x17 PUSH1 0x24 DUP3 ADD MSTORE PUSH32 0x5061796D656E7420616D6F756E74207265717569726564000000000000000000 PUSH1 0x44 DUP3 ADD MSTORE PUSH1 0x64 ADD PUSH2 0x255 JUMP JUMPDEST PUSH1 0x2 DUP5 DUP5 PUSH1 0x40 MLOAD PUSH2 0x673 SWAP3 SWAP2 SWAP1 PUSH2 0xDE2 JUMP JUMPDEST SWAP1 DUP2 MSTORE PUSH1 0x20 ADD PUSH1 0x40 MLOAD DUP1 SWAP2 SUB SWAP1 KECCAK256 SLOAD PUSH0 EQ DUP1 PUSH2 0x6DF JUMPI POP PUSH1 0x1 DUP1 PUSH1 0x2 DUP7 DUP7 PUSH1 0x40 MLOAD PUSH2 0x69F SWAP3 SWAP2 SWAP1 PUSH2 0xDE2 JUMP JUMPDEST SWAP1 DUP2 MSTORE PUSH1 0x20 ADD PUSH1 0x40 MLOAD DUP1 SWAP2 SUB SWAP1 KECCAK256 SLOAD PUSH2 0x6B8 SWAP2 SWAP1 PUSH2 0xE05 JUMP JUMPDEST DUP2 SLOAD DUP2 LT PUSH2 0x6C8 JUMPI PUSH2 0x6C8 PUSH2 0xE1E JUMP JUMPDEST PUSH0 SWAP2 DUP3 MSTORE PUSH1 0x20 SWAP1 SWAP2 KECCAK256 PUSH1 0x3 PUSH1 0x6 SWAP1 SWAP3 MUL ADD ADD SLOAD PUSH1 0xFF AND JUMPDEST PUSH2 0x71F JUMPI PUSH1 0x40 MLOAD PUSH3 0x461BCD PUSH1 0xE5 SHL DUP2 MSTORE PUSH1 0x20 PUSH1 0x4 DUP3 ADD MSTORE PUSH1 0x11 PUSH1 0x24 DUP3 ADD MSTORE PUSH17 0x139BC81858DD1A5D99481C995C5D595CDD PUSH1 0x7A SHL PUSH1 0x44 DUP3 ADD MSTORE PUSH1 0x64 ADD PUSH2 0x255 JUMP JUMPDEST PUSH1 0x1 DUP1 SLOAD PUSH1 0x40 DUP1 MLOAD PUSH1 0xC0 DUP2 ADD DUP3 MSTORE CALLER DUP2 MSTORE TIMESTAMP PUSH1 0x20 DUP1 DUP4 ADD SWAP2 SWAP1 SWAP2 MSTORE CALLVALUE DUP3 DUP5 ADD MSTORE PUSH0 PUSH1 0x60 DUP4 ADD MSTORE DUP3 MLOAD PUSH1 0x1F DUP10 ADD DUP3 SWAP1 DIV DUP3 MUL DUP2 ADD DUP3 ADD SWAP1 SWAP4 MSTORE DUP8 DUP4 MSTORE SWAP3 SWAP4 SWAP3 SWAP1 SWAP2 PUSH1 0x80 DUP4 ADD SWAP2 DUP10 SWAP1 DUP10 SWAP1 DUP2 SWAP1 DUP5 ADD DUP4 DUP3 DUP1 DUP3 DUP5 CALLDATACOPY PUSH0 SWAP3 ADD DUP3 SWAP1 MSTORE POP SWAP4 DUP6 MSTORE POP POP POP PUSH1 0x20 SWAP2 DUP3 ADD DUP2 SWAP1 MSTORE DUP4 SLOAD PUSH1 0x1 DUP1 DUP3 ADD DUP7 SSTORE SWAP5 DUP3 MSTORE SWAP1 DUP3 SWAP1 KECCAK256 DUP4 MLOAD PUSH1 0x6 SWAP1 SWAP3 MUL ADD DUP1 SLOAD PUSH1 0x1 PUSH1 0x1 PUSH1 0xA0 SHL SUB NOT AND PUSH1 0x1 PUSH1 0x1 PUSH1 0xA0 SHL SUB SWAP1 SWAP3 AND SWAP2 SWAP1 SWAP2 OR DUP2 SSTORE SWAP1 DUP3 ADD MLOAD SWAP3 DUP2 ADD SWAP3 SWAP1 SWAP3 SSTORE PUSH1 0x40 DUP2 ADD MLOAD PUSH1 0x2 DUP4 ADD SSTORE PUSH1 0x60 DUP2 ADD MLOAD PUSH1 0x3 DUP4 ADD DUP1 SLOAD PUSH1 0xFF NOT AND SWAP2 ISZERO ISZERO SWAP2 SWAP1 SWAP2 OR SWAP1 SSTORE PUSH1 0x80 DUP2 ADD MLOAD SWAP1 SWAP2 SWAP1 PUSH1 0x4 DUP3 ADD SWAP1 PUSH2 0x800 SWAP1 DUP3 PUSH2 0xEFF JUMP JUMPDEST POP PUSH1 0xA0 SWAP2 SWAP1 SWAP2 ADD MLOAD PUSH1 0x5 SWAP1 SWAP2 ADD SSTORE PUSH2 0x819 DUP2 PUSH1 0x1 PUSH2 0xE32 JUMP JUMPDEST PUSH1 0x2 DUP7 DUP7 PUSH1 0x40 MLOAD PUSH2 0x82B SWAP3 SWAP2 SWAP1 PUSH2 0xDE2 JUMP JUMPDEST SWAP1 DUP2 MSTORE PUSH1 0x20 ADD PUSH1 0x40 MLOAD DUP1 SWAP2 SUB SWAP1 KECCAK256 DUP2 SWAP1 SSTORE POP DUP1 PUSH32 0xFD320264C427FDC25163D24B5346A8A83D139F65245EFABF4FD5A066DAD87212 DUP7 DUP7 DUP7 DUP7 CALLER PUSH1 0x40 MLOAD PUSH2 0x875 SWAP6 SWAP5 SWAP4 SWAP3 SWAP2 SWAP1 PUSH2 0xFE7 JUMP JUMPDEST PUSH1 0x40 MLOAD DUP1 SWAP2 SUB SWAP1 LOG2 POP POP POP POP POP JUMP JUMPDEST PUSH1 0x1 DUP2 DUP2 SLOAD DUP2 LT PUSH2 0x893 JUMPI PUSH0 DUP1 REVERT JUMPDEST PUSH0 SWAP2 DUP3 MSTORE PUSH1 0x20 SWAP1 SWAP2 KECCAK256 PUSH1 0x6 SWAP1 SWAP2 MUL ADD DUP1 SLOAD PUSH1 0x1 DUP3 ADD SLOAD PUSH1 0x2 DUP4 ADD SLOAD PUSH1 0x3 DUP5 ADD SLOAD PUSH1 0x4 DUP6 ADD DUP1 SLOAD PUSH1 0x1 PUSH1 0x1 PUSH1 0xA0 SHL SUB SWAP1 SWAP6 AND SWAP7 POP SWAP3 SWAP5 SWAP2 SWAP4 PUSH1 0xFF SWAP1 SWAP2 AND SWAP3 SWAP1 PUSH2 0x8DA SWAP1 PUSH2 0xE7C JUMP JUMPDEST DUP1 PUSH1 0x1F ADD PUSH1 0x20 DUP1 SWAP2 DIV MUL PUSH1 0x20 ADD PUSH1 0x40 MLOAD SWAP1 DUP2 ADD PUSH1 0x40 MSTORE DUP1 SWAP3 SWAP2 SWAP1 DUP2 DUP2 MSTORE PUSH1 0x20 ADD DUP3 DUP1 SLOAD PUSH2 0x906 SWAP1 PUSH2 0xE7C JUMP JUMPDEST DUP1 ISZERO PUSH2 0x951 JUMPI DUP1 PUSH1 0x1F LT PUSH2 0x928 JUMPI PUSH2 0x100 DUP1 DUP4 SLOAD DIV MUL DUP4 MSTORE SWAP2 PUSH1 0x20 ADD SWAP2 PUSH2 0x951 JUMP JUMPDEST DUP3 ADD SWAP2 SWAP1 PUSH0 MSTORE PUSH1 0x20 PUSH0 KECCAK256 SWAP1 JUMPDEST DUP2 SLOAD DUP2 MSTORE SWAP1 PUSH1 0x1 ADD SWAP1 PUSH1 0x20 ADD DUP1 DUP4 GT PUSH2 0x934 JUMPI DUP3 SWAP1 SUB PUSH1 0x1F AND DUP3 ADD SWAP2 JUMPDEST POP POP POP POP POP SWAP1 DUP1 PUSH1 0x5 ADD SLOAD SWAP1 POP DUP7 JUMP JUMPDEST PUSH1 0x3 PUSH1 0x20 MSTORE DUP2 PUSH0 MSTORE PUSH1 0x40 PUSH0 KECCAK256 DUP2 DUP2 SLOAD DUP2 LT PUSH2 0x97A JUMPI PUSH0 DUP1 REVERT JUMPDEST PUSH0 SWAP2 DUP3 MSTORE PUSH1 0x20 SWAP1 SWAP2 KECCAK256 PUSH1 0x2 SWAP1 SWAP2 MUL ADD DUP1 SLOAD PUSH1 0x1 SWAP1 SWAP2 ADD SLOAD PUSH1 0x1 PUSH1 0x1 PUSH1 0xA0 SHL SUB SWAP1 SWAP2 AND SWAP3 POP SWAP1 POP DUP3 JUMP JUMPDEST PUSH0 DUP1 PUSH0 PUSH1 0x60 PUSH0 DUP1 PUSH1 0x1 DUP8 DUP2 SLOAD DUP2 LT PUSH2 0x9BD JUMPI PUSH2 0x9BD PUSH2 0xE1E JUMP JUMPDEST PUSH0 SWAP2 DUP3 MSTORE PUSH1 0x20 SWAP2 DUP3 SWAP1 KECCAK256 PUSH1 0x40 DUP1 MLOAD PUSH1 0xC0 DUP2 ADD DUP3 MSTORE PUSH1 0x6 SWAP1 SWAP4 MUL SWAP1 SWAP2 ADD DUP1 SLOAD PUSH1 0x1 PUSH1 0x1 PUSH1 0xA0 SHL SUB AND DUP4 MSTORE PUSH1 0x1 DUP2 ADD SLOAD SWAP4 DUP4 ADD SWAP4 SWAP1 SWAP4 MSTORE PUSH1 0x2 DUP4 ADD SLOAD SWAP1 DUP3 ADD MSTORE PUSH1 0x3 DUP3 ADD SLOAD PUSH1 0xFF AND ISZERO ISZERO PUSH1 0x60 DUP3 ADD MSTORE PUSH1 0x4 DUP3 ADD DUP1 SLOAD SWAP2 SWAP3 SWAP2 PUSH1 0x80 DUP5 ADD SWAP2 SWAP1 PUSH2 0xA22 SWAP1 PUSH2 0xE7C JUMP JUMPDEST DUP1 PUSH1 0x1F ADD PUSH1 0x20 DUP1 SWAP2 DIV MUL PUSH1 0x20 ADD PUSH1 0x40 MLOAD SWAP1 DUP2 ADD PUSH1 0x40 MSTORE DUP1 SWAP3 SWAP2 SWAP1 DUP2 DUP2 MSTORE PUSH1 0x20 ADD DUP3 DUP1 SLOAD PUSH2 0xA4E SWAP1 PUSH2 0xE7C JUMP JUMPDEST DUP1 ISZERO PUSH2 0xA99 JUMPI DUP1 PUSH1 0x1F LT PUSH2 0xA70 JUMPI PUSH2 0x100 DUP1 DUP4 SLOAD DIV MUL DUP4 MSTORE SWAP2 PUSH1 0x20 ADD SWAP2 PUSH2 0xA99 JUMP JUMPDEST DUP3 ADD SWAP2 SWAP1 PUSH0 MSTORE PUSH1 0x20 PUSH0 KECCAK256 SWAP1 JUMPDEST DUP2 SLOAD DUP2 MSTORE SWAP1 PUSH1 0x1 ADD SWAP1 PUSH1 0x20 ADD DUP1 DUP4 GT PUSH2 0xA7C JUMPI DUP3 SWAP1 SUB PUSH1 0x1F AND DUP3 ADD SWAP2 JUMPDEST POP POP POP SWAP2 DUP4 MSTORE POP POP PUSH1 0x5 SWAP2 SWAP1 SWAP2 ADD SLOAD PUSH1 0x20 SWAP2 DUP3 ADD MSTORE DUP2 MLOAD SWAP1 DUP3 ADD MLOAD PUSH1 0x60 DUP4 ADD MLOAD PUSH1 0x80 DUP5 ADD MLOAD PUSH1 0xA0 SWAP1 SWAP5 ADD MLOAD SWAP3 SWAP12 SWAP2 SWAP11 POP SWAP9 POP SWAP2 SWAP7 POP SWAP5 POP SWAP3 POP POP POP JUMP JUMPDEST PUSH0 DUP1 DUP4 PUSH1 0x1F DUP5 ADD SLT PUSH2 0xAE6 JUMPI PUSH0 DUP1 REVERT JUMPDEST POP DUP2 CALLDATALOAD PUSH8 0xFFFFFFFFFFFFFFFF DUP2 GT ISZERO PUSH2 0xAFD JUMPI PUSH0 DUP1 REVERT JUMPDEST PUSH1 0x20 DUP4 ADD SWAP2 POP DUP4 PUSH1 0x20 DUP3 DUP6 ADD ADD GT ISZERO PUSH2 0xB14 JUMPI PUSH0 DUP1 REVERT JUMPDEST SWAP3 POP SWAP3 SWAP1 POP JUMP JUMPDEST PUSH0 DUP1 PUSH0 PUSH1 0x40 DUP5 DUP7 SUB SLT ISZERO PUSH2 0xB2D JUMPI PUSH0 DUP1 REVERT JUMPDEST DUP4 CALLDATALOAD PUSH8 0xFFFFFFFFFFFFFFFF DUP2 GT ISZERO PUSH2 0xB43 JUMPI PUSH0 DUP1 REVERT JUMPDEST PUSH2 0xB4F DUP7 DUP3 DUP8 ADD PUSH2 0xAD6 JUMP JUMPDEST SWAP1 SWAP8 SWAP1 SWAP7 POP PUSH1 0x20 SWAP6 SWAP1 SWAP6 ADD CALLDATALOAD SWAP5 SWAP4 POP POP POP POP JUMP JUMPDEST PUSH0 DUP1 PUSH0 DUP1 PUSH1 0x40 DUP6 DUP8 SUB SLT ISZERO PUSH2 0xB76 JUMPI PUSH0 DUP1 REVERT JUMPDEST DUP5 CALLDATALOAD PUSH8 0xFFFFFFFFFFFFFFFF DUP1 DUP3 GT ISZERO PUSH2 0xB8D JUMPI PUSH0 DUP1 REVERT JUMPDEST PUSH2 0xB99 DUP9 DUP4 DUP10 ADD PUSH2 0xAD6 JUMP JUMPDEST SWAP1 SWAP7 POP SWAP5 POP PUSH1 0x20 DUP8 ADD CALLDATALOAD SWAP2 POP DUP1 DUP3 GT ISZERO PUSH2 0xBB1 JUMPI PUSH0 DUP1 REVERT JUMPDEST DUP2 DUP8 ADD SWAP2 POP DUP8 PUSH1 0x1F DUP4 ADD SLT PUSH2 0xBC4 JUMPI PUSH0 DUP1 REVERT JUMPDEST DUP2 CALLDATALOAD DUP2 DUP2 GT ISZERO PUSH2 0xBD2 JUMPI PUSH0 DUP1 REVERT JUMPDEST DUP9 PUSH1 0x20 DUP3 PUSH1 0x5 SHL DUP6 ADD ADD GT ISZERO PUSH2 0xBE6 JUMPI PUSH0 DUP1 REVERT JUMPDEST SWAP6 SWAP9 SWAP5 SWAP8 POP POP PUSH1 0x20 ADD SWAP5 POP POP POP JUMP JUMPDEST PUSH4 0x4E487B71 PUSH1 0xE0 SHL PUSH0 MSTORE PUSH1 0x41 PUSH1 0x4 MSTORE PUSH1 0x24 PUSH0 REVERT JUMPDEST PUSH0 PUSH1 0x20 DUP3 DUP5 SUB SLT ISZERO PUSH2 0xC19 JUMPI PUSH0 DUP1 REVERT JUMPDEST DUP2 CALLDATALOAD PUSH8 0xFFFFFFFFFFFFFFFF DUP1 DUP3 GT ISZERO PUSH2 0xC30 JUMPI PUSH0 DUP1 REVERT JUMPDEST DUP2 DUP5 ADD SWAP2 POP DUP5 PUSH1 0x1F DUP4 ADD SLT PUSH2 0xC43 JUMPI PUSH0 DUP1 REVERT JUMPDEST DUP2 CALLDATALOAD DUP2 DUP2 GT ISZERO PUSH2 0xC55 JUMPI PUSH2 0xC55 PUSH2 0xBF5 JUMP JUMPDEST PUSH1 0x40 MLOAD PUSH1 0x1F DUP3 ADD PUSH1 0x1F NOT SWAP1 DUP2 AND PUSH1 0x3F ADD AND DUP2 ADD SWAP1 DUP4 DUP3 GT DUP2 DUP4 LT OR ISZERO PUSH2 0xC7D JUMPI PUSH2 0xC7D PUSH2 0xBF5 JUMP JUMPDEST DUP2 PUSH1 0x40 MSTORE DUP3 DUP2 MSTORE DUP8 PUSH1 0x20 DUP5 DUP8 ADD ADD GT ISZERO PUSH2 0xC95 JUMPI PUSH0 DUP1 REVERT JUMPDEST DUP3 PUSH1 0x20 DUP7 ADD PUSH1 0x20 DUP4 ADD CALLDATACOPY PUSH0 SWAP3 DUP2 ADD PUSH1 0x20 ADD SWAP3 SWAP1 SWAP3 MSTORE POP SWAP6 SWAP5 POP POP POP POP POP JUMP JUMPDEST PUSH0 PUSH1 0x20 DUP3 DUP5 SUB SLT ISZERO PUSH2 0xCC4 JUMPI PUSH0 DUP1 REVERT JUMPDEST DUP2 CALLDATALOAD PUSH1 0x1 PUSH1 0x1 PUSH1 0xA0 SHL SUB DUP2 AND DUP2 EQ PUSH2 0xCDA JUMPI PUSH0 DUP1 REVERT JUMPDEST SWAP4 SWAP3 POP POP POP JUMP JUMPDEST PUSH0 PUSH1 0x20 DUP3 DUP5 SUB SLT ISZERO PUSH2 0xCF1 JUMPI PUSH0 DUP1 REVERT JUMPDEST POP CALLDATALOAD SWAP2 SWAP1 POP JUMP JUMPDEST PUSH0 DUP2 MLOAD DUP1 DUP5 MSTORE PUSH0 JUMPDEST DUP2 DUP2 LT ISZERO PUSH2 0xD1C JUMPI PUSH1 0x20 DUP2 DUP6 ADD DUP2 ADD MLOAD DUP7 DUP4 ADD DUP3 ADD MSTORE ADD PUSH2 0xD00 JUMP JUMPDEST POP PUSH0 PUSH1 0x20 DUP3 DUP7 ADD ADD MSTORE PUSH1 0x20 PUSH1 0x1F NOT PUSH1 0x1F DUP4 ADD AND DUP6 ADD ADD SWAP2 POP POP SWAP3 SWAP2 POP POP JUMP JUMPDEST PUSH1 0x1 DUP1 PUSH1 0xA0 SHL SUB DUP8 AND DUP2 MSTORE DUP6 PUSH1 0x20 DUP3 ADD MSTORE DUP5 PUSH1 0x40 DUP3 ADD MSTORE DUP4 ISZERO ISZERO PUSH1 0x60 DUP3 ADD MSTORE PUSH1 0xC0 PUSH1 0x80 DUP3 ADD MSTORE PUSH0 PUSH2 0xD6F PUSH1 0xC0 DUP4 ADD DUP6 PUSH2 0xCF8 JUMP JUMPDEST SWAP1 POP DUP3 PUSH1 0xA0 DUP4 ADD MSTORE SWAP8 SWAP7 POP POP POP POP POP POP POP JUMP JUMPDEST PUSH0 DUP1 PUSH1 0x40 DUP4 DUP6 SUB SLT ISZERO PUSH2 0xD93 JUMPI PUSH0 DUP1 REVERT JUMPDEST POP POP DUP1 CALLDATALOAD SWAP3 PUSH1 0x20 SWAP1 SWAP2 ADD CALLDATALOAD SWAP2 POP JUMP JUMPDEST PUSH1 0x1 DUP1 PUSH1 0xA0 SHL SUB DUP7 AND DUP2 MSTORE DUP5 PUSH1 0x20 DUP3 ADD MSTORE DUP4 ISZERO ISZERO PUSH1 0x40 DUP3 ADD MSTORE PUSH1 0xA0 PUSH1 0x60 DUP3 ADD MSTORE PUSH0 PUSH2 0xDD0 PUSH1 0xA0 DUP4 ADD DUP6 PUSH2 0xCF8 JUMP JUMPDEST SWAP1 POP DUP3 PUSH1 0x80 DUP4 ADD MSTORE SWAP7 SWAP6 POP POP POP POP POP POP JUMP JUMPDEST DUP2 DUP4 DUP3 CALLDATACOPY PUSH0 SWAP2 ADD SWAP1 DUP2 MSTORE SWAP2 SWAP1 POP JUMP JUMPDEST PUSH4 0x4E487B71 PUSH1 0xE0 SHL PUSH0 MSTORE PUSH1 0x11 PUSH1 0x4 MSTORE PUSH1 0x24 PUSH0 REVERT JUMPDEST DUP2 DUP2 SUB DUP2 DUP2 GT ISZERO PUSH2 0xE18 JUMPI PUSH2 0xE18 PUSH2 0xDF1 JUMP JUMPDEST SWAP3 SWAP2 POP POP JUMP JUMPDEST PUSH4 0x4E487B71 PUSH1 0xE0 SHL PUSH0 MSTORE PUSH1 0x32 PUSH1 0x4 MSTORE PUSH1 0x24 PUSH0 REVERT JUMPDEST DUP1 DUP3 ADD DUP1 DUP3 GT ISZERO PUSH2 0xE18 JUMPI PUSH2 0xE18 PUSH2 0xDF1 JUMP JUMPDEST PUSH0 PUSH1 0x1 DUP3 ADD PUSH2 0xE56 JUMPI PUSH2 0xE56 PUSH2 0xDF1 JUMP JUMPDEST POP PUSH1 0x1 ADD SWAP1 JUMP JUMPDEST PUSH0 DUP3 PUSH2 0xE77 JUMPI PUSH4 0x4E487B71 PUSH1 0xE0 SHL PUSH0 MSTORE PUSH1 0x12 PUSH1 0x4 MSTORE PUSH1 0x24 PUSH0 REVERT JUMPDEST POP DIV SWAP1 JUMP JUMPDEST PUSH1 0x1 DUP2 DUP2 SHR SWAP1 DUP3 AND DUP1 PUSH2 0xE90 JUMPI PUSH1 0x7F DUP3 AND SWAP2 POP JUMPDEST PUSH1 0x20 DUP3 LT DUP2 SUB PUSH2 0xEAE JUMPI PUSH4 0x4E487B71 PUSH1 0xE0 SHL PUSH0 MSTORE PUSH1 0x22 PUSH1 0x4 MSTORE PUSH1 0x24 PUSH0 REVERT JUMPDEST POP SWAP2 SWAP1 POP JUMP JUMPDEST PUSH1 0x1F DUP3 GT ISZERO PUSH2 0x60D JUMPI DUP1 PUSH0 MSTORE PUSH1 0x20 PUSH0 KECCAK256 PUSH1 0x1F DUP5 ADD PUSH1 0x5 SHR DUP2 ADD PUSH1 0x20 DUP6 LT ISZERO PUSH2 0xED9 JUMPI POP DUP1 JUMPDEST PUSH1 0x1F DUP5 ADD PUSH1 0x5 SHR DUP3 ADD SWAP2 POP JUMPDEST DUP2 DUP2 LT ISZERO PUSH2 0xEF8 JUMPI PUSH0 DUP2 SSTORE PUSH1 0x1 ADD PUSH2 0xEE5 JUMP JUMPDEST POP POP POP POP POP JUMP JUMPDEST DUP2 MLOAD PUSH8 0xFFFFFFFFFFFFFFFF DUP2 GT ISZERO PUSH2 0xF19 JUMPI PUSH2 0xF19 PUSH2 0xBF5 JUMP JUMPDEST PUSH2 0xF2D DUP2 PUSH2 0xF27 DUP5 SLOAD PUSH2 0xE7C JUMP JUMPDEST DUP5 PUSH2 0xEB4 JUMP JUMPDEST PUSH1 0x20 DUP1 PUSH1 0x1F DUP4 GT PUSH1 0x1 DUP2 EQ PUSH2 0xF60 JUMPI PUSH0 DUP5 ISZERO PUSH2 0xF49 JUMPI POP DUP6 DUP4 ADD MLOAD JUMPDEST PUSH0 NOT PUSH1 0x3 DUP7 SWAP1 SHL SHR NOT AND PUSH1 0x1 DUP6 SWAP1 SHL OR DUP6 SSTORE PUSH2 0xFB7 JUMP JUMPDEST PUSH0 DUP6 DUP2 MSTORE PUSH1 0x20 DUP2 KECCAK256 PUSH1 0x1F NOT DUP7 AND SWAP2 JUMPDEST DUP3 DUP2 LT ISZERO PUSH2 0xF8E JUMPI DUP9 DUP7 ADD MLOAD DUP3 SSTORE SWAP5 DUP5 ADD SWAP5 PUSH1 0x1 SWAP1 SWAP2 ADD SWAP1 DUP5 ADD PUSH2 0xF6F JUMP JUMPDEST POP DUP6 DUP3 LT ISZERO PUSH2 0xFAB JUMPI DUP8 DUP6 ADD MLOAD PUSH0 NOT PUSH1 0x3 DUP9 SWAP1 SHL PUSH1 0xF8 AND SHR NOT AND DUP2 SSTORE JUMPDEST POP POP PUSH1 0x1 DUP5 PUSH1 0x1 SHL ADD DUP6 SSTORE JUMPDEST POP POP POP POP POP POP JUMP JUMPDEST DUP2 DUP4 MSTORE DUP2 DUP2 PUSH1 0x20 DUP6 ADD CALLDATACOPY POP PUSH0 DUP3 DUP3 ADD PUSH1 0x20 SWAP1 DUP2 ADD SWAP2 SWAP1 SWAP2 MSTORE PUSH1 0x1F SWAP1 SWAP2 ADD PUSH1 0x1F NOT AND SWAP1 SWAP2 ADD ADD SWAP1 JUMP JUMPDEST PUSH1 0x60 DUP2 MSTORE PUSH0 PUSH2 0xFFA PUSH1 0x60 DUP4 ADD DUP8 DUP10 PUSH2 0xFBF JUMP JUMPDEST PUSH1 0x20 DUP4 DUP3 SUB DUP2 DUP6 ADD MSTORE DUP2 DUP7 DUP4 MSTORE DUP2 DUP4 ADD SWAP1 POP DUP2 DUP8 PUSH1 0x5 SHL DUP5 ADD ADD DUP9 PUSH0 JUMPDEST DUP10 DUP2 LT ISZERO PUSH2 0x1084 JUMPI DUP6 DUP4 SUB PUSH1 0x1F NOT ADD DUP5 MSTORE DUP2 CALLDATALOAD CALLDATASIZE DUP13 SWAP1 SUB PUSH1 0x1E NOT ADD DUP2 SLT PUSH2 0x103C JUMPI PUSH0 DUP1 REVERT JUMPDEST DUP12 ADD DUP6 DUP2 ADD SWAP1 CALLDATALOAD PUSH8 0xFFFFFFFFFFFFFFFF DUP2 GT ISZERO PUSH2 0x1057 JUMPI PUSH0 DUP1 REVERT JUMPDEST DUP1 CALLDATASIZE SUB DUP3 SGT ISZERO PUSH2 0x1065 JUMPI PUSH0 DUP1 REVERT JUMPDEST PUSH2 0x1070 DUP6 DUP3 DUP5 PUSH2 0xFBF JUMP JUMPDEST SWAP6 DUP8 ADD SWAP6 SWAP5 POP POP POP SWAP1 DUP5 ADD SWAP1 PUSH1 0x1 ADD PUSH2 0x1017 JUMP JUMPDEST POP POP PUSH1 0x1 PUSH1 0x1 PUSH1 0xA0 SHL SUB DUP8 AND PUSH1 0x40 DUP8 ADD MSTORE SWAP4 POP PUSH2 0x10A0 SWAP3 POP POP POP JUMP JUMPDEST SWAP7 SWAP6 POP POP POP POP POP POP JUMP INVALID LOG2 PUSH5 0x6970667358 0x22 SLT KECCAK256 MSTORE DUP7 0xF8 DUP8 0x28 DUP15 0x2F CREATE2 SWAP3 PUSH26 0x6C99AD6AF76BAC536D9F0EBA6630D6508286472F6C2B64736F6C PUSH4 0x43000818 STOP CALLER "},"methodIdentifiers":{"REQUIRED_CONSENSUS()":"1981dbbd","VERIFICATION_TIMEOUT()":"1e1d6e1d","authorizedNodes(address)":"7e53a740","cidToRequestID(string)":"6718ad59","getRequestDetails(uint256)":"f34d4c63","requestVotes(uint256,uint256)":"e9cd1c26","requests(uint256)":"81d12c58","submitVerification(string,bytes32)":"03cbc784","verifyRequest(string,string[])":"24a7b434"}}}}}